:020000040800F2
:10000000000A00246D030008BB3100081530000809
:10001000B93100083D070008D53B0008000000008A
:100020000000000000000000000000000134000893
:100030006509000800000000BD3100080334000815
:100040008703000887030008870300088703000868
:100050008703000887030008870300088703000858
:100060008703000887030008870300088703000848
:10007000410700088703000887030008870300087A
:100080008703000887030008870300088703000828
:100090008703000887030008870300088703000818
:1000A0008703000887030008870300088703000808
:1000B00087030008870300088703000887030008F8
:1000C00087030008870300088703000887030008E8
:1000D00087030008870300088703000887030008D8
:1000E000870300088703000800000000870300085A
:1000F00087030008870300088703000887030008B8
:1001000087030008870300088703000887030008A7
:100110008703000887030008870300088703000897
:100120008703000887030008870300088703000887
:100130008703000887030008870300088703000877
:1001400000000000000000000000000000000000AF
:100150008703000887030008870300088703000857
:100160008703000887030008870300088703000847
:1001700087030008870300088703000800000000C9
:100180008703000887030008870300088703000827
:100190008703000887030008870300088703000817
:1001A0008703000887030008870300080000000099
:1001B00087030008870300088703000887030008F7
:1001C000870300088703000800000000000000000B
:1001D000000000000000000087030008000000008D
:1001E000000000000000000000000000000000000F
:1001F00000000000000000008703000887030008DB
:100200008703000887030008000000008703000838
:100210008703000887030008870300088703000896
:1002200087030008000000008703000800000000AA
:100230008703000887030008000000008703000808
:100240008703000887030008870300088703000866
:100250008703000887030008870300088703000856
:100260008703000887030008870300088703000846
:1002700087030008870300088703000800000000C8
:100280008703000887030008870300088703000826
:10029000000000008703000887030008000000003A
:1002A0000000000087030008870300088703000898
:1002B00087030008870300088703000887030008F6
:1002C00087030008870300088703000800F002F88E
:1002D00000F03CF80AA090E8000C82448344AAF1A4
:1002E0000107DA4501D100F031F8AFF2090EBAE8A2
:1002F0000F0013F0010F18BFFB1A43F0010318475A
:100300007C3B00009C3B0000103A24BF78C878C1B9
:10031000FAD8520724BF30C830C144BF04680C600B
:10032000704700000023002400250026103A28BF53
:1003300078C1FBD8520728BF30C148BF0B60704757
:100340001FB503F075FD1FBD10B510BD00F001F91C
:100350001146FFF7F5FF03F0A3FC00F01FF903B40B
:10036000FFF7F2FF03BC00F027F9000009488047BF
:1003700009480047FEE7FEE7FEE7FEE7FEE7FEE787
:10038000FEE7FEE7FEE7FEE704480549054A064B9F
:1003900070470000A1340008CD02000800040024CA
:1003A000000A0024000600240006002453EA020C80
:1003B00000F069802DE9F04B4FF00006002B1FBFC5
:1003C000B3FA83F503FA05F424FA05F65E4012BF8A
:1003D0001643B2FA82F502FA05F4C5F120051EBFF4
:1003E00022FA05FC44EA0C04203556EA044C4FEA94
:1003F000144418BF641C4FF000084FF000099042ED
:1004000071EB030C39D3002919BFB1FA81F701FA56
:1004100007F6B0FA80F700FA07F6C7F120071EBF0B
:1004200020FA07FC46EA0C062037B6FBF4FCA7EBE3
:100430000507103F07F01F0BCBF120060CFA0BFB52
:100440002CFA06F644BFB3460026202FA4BF5E4612
:100450004FF0000B5BEA060C08BF4FF0010B19EBE5
:100460000B09ABFB027C48EB0608C01B06FB02CC69
:100470000BFB03CC71EB0C01C1E70B460246414676
:100480004846BDE8F08B13B54FF000004FF0000177
:10049000AFF30080BDE81C40704710B5203AC0F0B3
:1004A0000B80B1E81850203AA0E81850B1E8185075
:1004B000A0E81850BFF4F5AF5FEA027C24BFB1E8B2
:1004C0001850A0E8185044BF18C918C0BDE8104023
:1004D0005FEA827C24BF51F8043B40F8043B08BF2C
:1004E0007047D20728BF31F8023B48BF11F8012BF3
:1004F00028BF20F8023B48BF00F8012B70474FF09F
:10050000000200B5134694469646203922BFA0E863
:100510000C50A0E80C50B1F12001BFF4F7AF09076F
:1005200028BFA0E80C5048BF0CC05DF804EB890060
:1005300028BF40F8042B08BF704748BF20F8022BA3
:1005400011F0804F18BF00F8012B704770477047BB
:100550007047754600F02CF8AE46050069465346D4
:1005600020F00700854618B020B5FFF70DFFBDE865
:1005700020404FF000064FF000074FF000084FF00A
:10058000000B21F00701AC46ACE8C009ACE8C0099B
:10059000ACE8C009ACE8C0098D46704710B5044608
:1005A000AFF300802046BDE81040FFF7D8BE000042
:1005B000004870479C03002401491820ABBEFEE7A9
:1005C000260002007047000010B5040003D0114857
:1005D0000178042901D3002010BD0F4B01EBC102AB
:1005E000491C43F8324003EBC2020170104603F08D
:1005F0000FFC204603F000FB2168002004E04A6A5B
:10060000401CC0B2202803D2CA69D2439206F6D554
:10061000012010BD000000247C02002410B5302110
:1006200004460848FFF76BFF06484FF490713030DE
:10063000FFF765FF0449002008702046BDE8104020
:10064000FFF7C2BF4C0200240000002430B587B081
:100650000C460390F8B1F4B103A8694603F050FBCF
:10066000C8B103A803F03EFBA8B103A86D4601A9D9
:1006700003F046FB78B103A803F034FB58B103A89C
:1006800002A903F03DFB002806D003A803F0C6FB37
:100690000398007810B1002007B030BD302120460B
:1006A000FFF72DFF5FF00000431C05EB800204EB19
:1006B000800192ED000AD8B281ED000A92ED000AA5
:1006C000032881ED030AEFD3032084F82D001834AA
:1006D00000F0ACFF014621600120E075A075DBE76A
:1006E0002DE9F047134D0024DFF84C901CE000BFCB
:1006F00004EBC40755F8370003F07EFA002605EB3B
:10070000C70808E0416A4046C9B203F055FB761CB1
:10071000F6B2202E06D255F837000068C169C943E9
:100720008906EFD5641CE4B299F800008442DFD357
:10073000BDE8F0877C02002400000024FEE70000F2
:10074000014800F013B90000D4010024294A0168CF
:1007500091423AD0274A1832914236D0254A303257
:10076000914232D0234A483291422ED0214A6032FF
:1007700091422AD01F4A7832914226D01D4A9032A7
:10078000914222D01B4AA83291421ED01A4A91426D
:100790001BD0194A1832914217D0174A3032914271
:1007A00013D0154A483291420FD0134A6032914219
:1007B0000BD0114A7832914207D00F4A90329142C1
:1007C00003D00D4AA832914211D1CAB21823103A6F
:1007D000B2FBF3F26FF30901032A02F00703074AA1
:1007E000D25CC26500D9091D81650846704721F0B9
:1007F000FF01F9E710000240100402403A3E0008F1
:1008000030B5224A012301689142CAB21BD01F4C65
:100810001434A14217D01D4C2834A14213D01B4CD4
:100820003C34A1420FD0194C5034A1420BD0174C8C
:100830006434A14207D0154C7834A14203D0134C44
:100840008C34A1420CD11421114C083AB2FBF1F1C5
:100850000F4A803201F01F0504EB8101AB4010E02C
:100860000C4D1824103A0D44B2FBF4F1A82D00D819
:100870000831094A01F01F0402EB8101064AA34036
:100880008032603080E80E0030BD0000085402580D
:1008900000580258F0FBFDBF0008024010B5027975
:1008A000531E072B2DD8174C0168A1421BD0154CA5
:1008B0001434A14217D0134C2834A14213D0114C48
:1008C0003C34A1420FD00F4C5034A1420BD00D4C00
:1008D0006434A14207D00B4C7834A14203D0094CB8
:1008E0008C34A14203D10849074C443102E0074946
:1008F000064C443104EB8202C0E91B2101219940DE
:10090000416710BD08540258FC580258FC080240C8
:1009100010B583694FF0C074826A0146002053B15C
:10092000B3F5005F15D072B1012A0CD0022A0AD0AB
:10093000032A09D104E01AB1012A06D0022A03D100
:10094000C96AC90100D5012010BDC96AA142FAD007
:1009500010BD002AF7D0012AF2D0022AF3D0032AD0
:10096000F3D010BD704772B6FEE700002DE9FC5FC2
:100970000446F74E0020DFF8D88300904FF416525B
:10098000F44808F11808A56DDFF8C493DFF8C0A398
:10099000016809F1300920680AF1480AB1FBF2F157
:1009A000B04201912F68D5F800C0DFF8ACB335D064
:1009B0004146884232D0484530D050452ED0584527
:1009C0002CD0E5491831884228D0E349303188429B
:1009D00024D0E1494831884220D0E04988421DD0E6
:1009E000DE491831884219D0DC493031884215D0AF
:1009F000DA494831884211D0DFF860E30EF1600E29
:100A000070450BD0D54A7832904207D0D34B903303
:100A1000984203D0D149A83188427DD194F85C2016
:100A2000082102F01F0201FA02F23A424AD0B04213
:100A300032D0404530D048452ED050452CD0584576
:100A40002AD0C54A1832904226D0C34A303290424A
:100A500022D0C14A483290421ED0C04A90421BD098
:100A6000BE4A1832904217D0BC4A3032904213D05E
:100A7000BA4A483290420FD0B84A603290420BD006
:100A8000B64A7832904207D0B44A9032904203D0AE
:100A9000B24AA832904203D1026802F0040202E096
:100AA000026802F008026AB1026822F004020260E1
:100AB00094F85C0000F01F008140A960606D40F078
:100AC0000100606594F85C00012100F01F00814086
:100AD000394240D02068B04234D0404532D04845F9
:100AE00030D050452ED058452CD09B4A18329042D9
:100AF00028D0994A3032904224D0974A48329042C6
:100B000020D0964A90421DD0944A1832904219D073
:100B1000924A3032904200E0AFE113D08F4A48321F
:100B200090420FD08D4A603290420BD08B4A78327F
:100B3000904207D0894A9032904203D0874AA83227
:100B400090427DD1406910F0800F04D0A960606DA3
:100B500040F00200606594F85C00042100F01F0082
:100B6000814039423ED02068B04232D0404530D03A
:100B700048452ED050452CD058452AD0764A1832B8
:100B8000904226D0744A3032904222D0724A483283
:100B900090421ED0714A90421BD0704A1832904247
:100BA00017D06E4A3032904213D06C4A483290428D
:100BB0000FD06A4A603290420BD0684A7832904235
:100BC00007D0664A9032904203D0644AA8329042DD
:100BD0004ED1006810F0020F04D0A960606D40F0A3
:100BE0000400606594F85C00102100F01F00814053
:100BF000394258D02068B04234D0404532D04845C0
:100C000030D050452ED058452CD0534A18329042FF
:100C100028D0514A3032904224D04F4A4832904234
:100C200020D04E4A90421DD04C4A1832904219D0E2
:100C30004A4A3032904215D0484A4832904200E049
:100C400014E00FD0454A603290420BD0434A7832CC
:100C5000904207D0414A9032904203D03F4AA83296
:100C6000904207D1006800F0080006E0006872E7D3
:100C70000068B7E7006800F00400A0B1A960206830
:100C80000168490304D50068000308D5A16C07E09A
:100C90000168C90503D4016821F008010160216CD5
:100CA00009B12046884794F85C00202100F01F001D
:100CB0008140394279D02068B04232D0404530D0AE
:100CC00048452ED050452CD058452AD0224A1832BB
:100CD000904226D0204A3032904222D01E4A4832DA
:100CE00090421ED01D4A90421BD01C4A183290429E
:100CF00017D01A4A3032904213D0184A48329042E4
:100D00000FD0164A603290420BD0144A783290428B
:100D100007D0124A9032904203D0104AA832904233
:100D200003D1006800F0100002E0006800F002004B
:100D3000B0B3A96094F835000428206801680FD08A
:100D400049037ED5006800032BD4616C2AE00000C3
:100D50001000024010000024700002401004024005
:100D600021F0160101602068416921F08001416194
:100D7000206C08B9A06C20B12068016821F008013E
:100D8000016094F85C303F21012003F01F03002232
:100D90009940A96084F8350084F83420216D65E01D
:100DA00003E0E16B09B120468847606D00287DD0E3
:100DB000606DC00759D02068042184F83510B04216
:100DC0002BD0404529D0484527D0504525D05845FF
:100DD00023D09D49884220D09B49183188421CD09D
:100DE00099493031884218D09849884215D097499E
:100DF0001831884211D09549303188420DD093493D
:100E00004831884209D091496031884205D08F49E4
:100E10007831884201D08D499031016821F001017B
:100E2000016020680099019A491C0091914202D802
:100E30000168C907F6D10068C00710D003200FE091
:100E4000FFE70168C905ACD403680121002223F043
:100E50001003036084F8351084F83420A1E70120E2
:100E600084F83500002084F83400E16C00291DD09E
:100E700002B02046BDE8F05F0847754988421DD0A2
:100E800073491431884219D071492831884215D0EC
:100E90006F493C31884211D06D49503188420DD0A4
:100EA0006B496431884209D0694900E084E07831B7
:100EB000884203D066498C3188427DD194F85C80A9
:100EC0000427016808F01F0807FA08F717EA0C0F53
:100ED000009746D04F0744D500980F04686003D5AB
:100EE000C8033CD4A16CC1E7880638D42068B0425E
:100EF0002DD055496039884229D0484527D05045E2
:100F000025D0584523D05049884220D04E49183129
:100F100088421CD04C493031884218D04B49884215
:100F200015D04A491831884211D048493031884299
:100F30000DD046494831884209D0704507D09042CB
:100F400005D0984203D04149A831884203D10168B5
:100F500021F0080102E0016821F004010160216C28
:100F600084E7022707FA08F717EA0C0F00974ED01C
:100F70008F074CD500980F04686003D5C80344D48C
:100F8000616C73E7880640D42068B0422FD02E49A8
:100F9000603988422BD0484529D0504527D0584544
:100FA00025D02949884222D02749183188421ED0AD
:100FB00025493031884200E044E018D02349884276
:100FC00015D022491831884211D020493031884249
:100FD0000DD01E494831884209D0704507D0904253
:100FE00005D0984203D01949A831884203D101683D
:100FF00021F0140102E0016821F00A0101600121E1
:1010000084F83510002084F83400E16B2EE70822C4
:1010100002FA08F212EA0C0F14D0090712D501687F
:1010200021F00E01016094F85C100120002201F013
:101030001F0100FA01F16960606584F8350084F8E9
:10104000342012E7BDE8FC9F8800024010040240F3
:10105000085402582DE9F05F044600F0E7FA002C2E
:1010600007467DD0E24E022120684FF00308DFF8EA
:1010700084934FF00005DFF880A3B042DFF87CB323
:1010800034D0DB4A1832904230D048452ED05045FB
:101090002CD058452AD0D94A1832904226D0D74A67
:1010A0003032904222D0D54A483290421ED0D44AA3
:1010B00090421BD0D24A1832904217D0D04A3032D8
:1010C000904213D0CE4A483290420FD0CC4A603280
:1010D00090420BD0CA4A7832904207D0C84A903228
:1010E000904203D0C64AA83290427DD184F8351090
:1010F000B04284F834502ED0BD49183188422AD0ED
:10110000484528D0504526D0584524D0BB491831F1
:10111000884220D0B949303188421CD0B749483183
:10112000884218D0B649884215D0B549183188424E
:1011300011D0B349303188420DD0B149483188428D
:1011400009D0AF496031884205D0AD497831884235
:1011500001D0AB499031016821F00101016008E044
:1011600025E100BF00F062FAC01B052801D920214B
:101170001AE120680068C007F4D1D4E902032168AD
:10118000103418438E4694E88410D4E90338096873
:101190003A4310439B4A40EA0C00676918431140E8
:1011A000103C40EA0800042F40EA010003D1D4E9D2
:1011B0000B12114308436168A1F12902052A0BD9DA
:1011C000163A032A08D9083A012A05D9083A032A07
:1011D00002D97439032901D840F48010CEF80000F8
:1011E0002068676A406900E020E0042F20F00700D3
:1011F00047EA00070DD1D4E90A01074349B1204667
:10120000FFF786FB28B140206065012184F8351086
:10121000CDE0206847612046FFF798FA94F85C20FB
:101220003F2102F01F029140816055E0764A9042D2
:101230001BD0754B1433984217D0734B2833984208
:1012400013D0714B3C3398420FD06F4B50339842C0
:101250000BD06D4B6433984207D06B4B7833984278
:1012600003D0694B8C3398427ED184F8351084F8D2
:101270003450664B0168A26801EA030E402A74D01C
:10128000802A73D05FF00002D4E90378D4E90531F5
:1012900042EAD70242EAD8085B4AD4E9077C48EA26
:1012A000D30848EAD10141EAD701524241EA1C1170
:1012B000142341EA0E01016020681044B0FBF3F0F2
:1012C0008000E0652046FFF741FA94F85C20012198
:1012D00002F01F02914041602068B04257D044495B
:1012E0001831884253D0484551D050454FD05845C9
:1012F0004DD042491831884249D040493031884266
:1013000045D03E494831884241D03D4988423ED08F
:101310003B49183188423AD039493031884236D079
:1013200037494831884232D03549603188422ED021
:101330003349783188422AD031499031884226D0C9
:101340002F49A831884222D02F4988421FD02E49E8
:10135000143188421BD02C492831884217D02A49A1
:101360003C31884213D002E01DE017E018E0264926
:10137000503188420BD024496431884207D0224939
:101380007831884203D020498C31884229D12046C7
:10139000FFF736FAA06880280CD00CE0102273E723
:1013A0004FF4804270E74021616584F83580012068
:1013B000BDE8F09F6560216E20790860D4E91901CD
:1013C00041606068401E072808D82046FFF766FA8B
:1013D000E06E0560D4E91C01416002E0E566256726
:1013E00065670120656584F835000020E0E70000AE
:1013F00010000240400002405800024070000240CD
:10140000100402403F8010FE085402580F00FEFFF7
:101410002DE9F84F03247A4D00234FF001094FF0D6
:10142000B04B4FF00F0AE4E009FA03F6324078D0EF
:101430000F7907F00307012F01D0022F1AD1876817
:101440004FEA430ED1F80CC004FA0EF827EA080759
:101450000CFA0EFC4CEA070CC0F808C0476891F87B
:1014600004C0B743CCF3001C0CFA03FC4CEA070C95
:10147000C0F804C00E79F643B6070BD0C6684FEA31
:1014800043088F6804FA08FC26EA0C0607FA08F7F6
:101490003743C7600E7906F00306022E12D1DE082C
:1014A0000F694FEA437C00EB8606B646366A4FEA80
:1014B000DC6C0AFA0CF807FA0CF726EA0806374340
:1014C000CEF820700F7906684FEA430807F003074B
:1014D00004FA08FC07FA08F726EA0C063743076007
:1014E0004E6816F4403F1CD0464E376847F002075E
:1014F000376036689F0706F00206009623F0030661
:1015000006F1B046B6463F0FD6F80864DFF8F8801B
:101510000AFA07FC404526EA0C0603D14FF0000CFE
:101520003AE065E0DFF8E4C0604502D14FF0010C1D
:1015300032E0DFF8DCC0604502D14FF0020C2BE056
:10154000DFF8D0C0604502D14FF0030C24E0DFF893
:10155000C8C0604502D14FF0040C1DE0DFF8BCC0EC
:10156000604502D14FF0050C16E0DFF8B4C06045CD
:1015700002D14FF0060C0FE0DFF8A8C0604502D1A1
:101580004FF0070C08E0DFF8A0C0604502D14FF033
:10159000090C01E04FF00A0C0CFA07FC4CEA060CAF
:1015A000CEF808C44F68DBF80060FF0226EA0206A6
:1015B00000D516435F46CBF80060D1F804C0DBF8D5
:1015C00004605FEA8C2C26EA020600D516437E6092
:1015D0006E684F6826EA0206BF0300D516436E60A8
:1015E0002E684F6826EA0206FF0300D516432E60D8
:1015F0005B1C0A6832FA03F67FF416AFBDE8F88F79
:1016000080000058F44402580000025800040258B8
:1016100000080258000C025800100258001402582A
:1016200000180258001C0258002402580148806823
:1016300070470000040000240248816802781144C9
:101640008160704704000024032010B500F086F884
:1016500001F028F80F4A104914681368C4F30322F4
:1016600003F00F038A5CC95C02F01F0201F01F0146
:10167000D0400A4A20FA01F11160094908600F20A0
:1016800000F010F808B1012010BD00F02BF8002088
:1016900010BD0000184402586A3E000814000024DF
:1016A0001000002470B50D4D04462878A0B14FF409
:1016B0007A71B1FBF0F00A490968B1FBF0F001F072
:1016C00020FB48B9102C07D200222146501E00F002
:1016D00025F800206C6070BD012070BD040000245E
:1016E00010000024054808B5016841F002010160BE
:1016F000006800F00200009008BD0000F4440258A9
:10170000002809DB410900F01F028900012001F1D6
:10171000E0219040C1F80001704700000E4BF0B48A
:101720001B680D46C3F30223C3F10706042E00D93C
:101730000426191D072901D2002300E0DB1E012425
:1017400004FA06F19C40491E2940641E9940144049
:101750002143F0BC02F03FBA0CED00E0064900F076
:10176000070210B54FF6FF040868044B204040EA1A
:1017700002201843086010BD0CED00E00000FA05DF
:10178000134970B50A68D243520705D5096801F0BC
:101790000701814213D118E00A6822F007020243D0
:1017A0000A60FFF743FF0A4D4FF47A760446083D7E
:1017B00007E000BFFFF73AFF001BB04201D901204C
:1017C00070BD2868C0438004F4D4002070BD0000C0
:1017D0000C48025810B500F01FFF05490968054A7A
:1017E000C1F30211515C01F01F01C84010BD00009F
:1017F000204402586A3E0008494930B5484C0B1D48
:101800000A68143409681D68246802F00303C5F3EC
:101810000012C1F30531C4F3CC04002914FB02F219
:1018200000EE102AF8EE400A75D03F4A9FED3D1AAF
:10183000B7EE000A6BB1DFED3D1A012B01D0022B90
:1018400064D002EE101A1168F8EE422A81EEA22A44
:1018500021E0334C283C23689B0612D5344B246886
:1018600001EE901A1168C4F3C104F8EE612AE34056
:1018700001EE903AC1F30801F8EE611A81EEA22A56
:101880000BE001EE901ADFED2B2A00BFF8EE611A93
:10189000116882EEA12AC1F3080101EE901A1168C5
:1018A000F8EE611A40EE811A71EE800A62EE200AAB
:1018B000C1F3462101EE101AB8EE411A31EE001ABA
:1018C000C0EE811ABCEEE11A80ED001A1168C1F376
:1018D000064101EE101AB8EE411A31EE001AC0EEC0
:1018E000811ABCEEE11A80ED011A1168C1F306619C
:1018F00001EE101AB8EE411A31EE000A80EE801A9D
:10190000BCEEC10A80ED020A30BD04E001EE901A7F
:10191000DFED092ABAE70021016041608160F3E749
:101920002844025800000039384402580024744A00
:101930000090D0030024744C001BB74B494930B5CC
:10194000484C0B1D0A681C3409681D68246802F0A5
:101950000303C5F30022C1F30551C4F3CC040029ED
:1019600014FB02F200EE102AF8EE400A75D03F4A4E
:101970009FED3D1AB7EE000A6BB1DFED3D1A012B6A
:1019800001D0022B64D002EE101A1168F8EE422A40
:1019900081EEA22A21E0334C283C23689B0612D515
:1019A000344B246801EE901A1168C4F3C104F8EEB8
:1019B000612AE34001EE903AC1F30801F8EE611AA2
:1019C00081EEA22A0BE001EE901ADFED2B2A00BF78
:1019D000F8EE611A116882EEA12AC1F3080101EE46
:1019E000901A1168F8EE611A40EE811A71EE800AC1
:1019F00062EE200AC1F3462101EE101AB8EE411A38
:101A000031EE001AC0EE811ABCEEE11A80ED001A28
:101A10001168C1F3064101EE101AB8EE411A31EE19
:101A2000001AC0EE811ABCEEE11A80ED011A1168AD
:101A3000C1F3066101EE101AB8EE411A31EE000A48
:101A400080EE801ABCEEC10A80ED020A30BD04E0CF
:101A500001EE901ADFED092ABAE70021016041602A
:101A60008160F3E7284402580000003940440258DE
:101A70000024744A0090D0030024744C001BB74B20
:101A80002DE9FE4F0546DFF800A450F8081B00249E
:101A9000FD4FC943019005F1280026460AF1240AAA
:101AA000009008011DD4686E50B1B0F5801F0CD0B5
:101AB000B0F5001F0ED0B0F5401F1ED001240FE07E
:101AC000386840F40030386017E00198022101F0D6
:101AD00077FB03E00098022101F002FC04000CD027
:101AE00026462888C043C00523D4A86D05281ED2E9
:101AF000DFE800F00C11161B1B006A6EDAF800100C
:101B000021F440111143CAF80010EAE7386840F4A4
:101B10000030386009E00198002101F051FB03E03A
:101B20000098002101F0DCFB0446C4B100E0012470
:101B300026462888DFF85083C04308F12C0840056A
:101B40002FD4D5F8A400B0F5C00F28D010DCB8B160
:101B5000B0F5001F19D0B0F5800F0FD11AE0AA6DB3
:101B6000DAF8001021F007011143CAF80010E0E78D
:101B7000B0F5000F13D0B0F5200F10D001240FE006
:101B8000386840F40030386009E00198002101F025
:101B900017FB03E00098002101F0A2FB044694B17A
:101BA00026462888C043000530D4D5F8A800B0F1F7
:101BB000407F29D011DCC0B1B0F1807F1AD0B0F1E4
:101BC000007F10D11BE0D5F8A420D8F8001021F434
:101BD00060011143C8F80010E3E7B0F1806F13D043
:101BE000B0F1A06F10D001240FE0386840F400304D
:101BF000386009E00198002101F0E2FA03E0009862
:101C0000002101F06DFB044694B126462868DFF8F8
:101C100078B2C0430BF1200B80011FD4E86CD8B11F
:101C200010280FD0202812D0302815D0012414E01D
:101C3000D5F8A820D8F8001021F0E0611143C8F8C9
:101C40000010E3E7386840F40030386004E00198A1
:101C5000022101F0B5FA044674B126462888C04333
:101C6000C0042BD4E86DB0F5005F20D00DDCA0B12E
:101C7000B0F5805F0FD115E0EA6CDBF8001021F0C1
:101C800030011143CBF80010E8E7B0F5405F13D006
:101C9000B0F5804F10D001240FE0386840F40030D8
:101CA000386009E00198002101F08AFA03E0009809
:101CB000002101F015FB04468CB126462888C0435C
:101CC000800429D4286EB0F5403F23D010DC08B33F
:101CD000B0F5803F14D0B0F5003F0FD115E0EA6DAC
:101CE000DAF8001021F4E0411143CAF80010E5E7EA
:101CF000B0F5802F0ED0B0F5A02F0BD001240AE054
:101D00000198012101F05CFA03E00098012101F043
:101D1000E7FA044694B126462888C04340042AD4F2
:101D2000D5F8AC00B0F1405F23D010DC08B3B0F1BF
:101D3000805F14D0B0F1005F0FD115E02A6EDAF8A1
:101D4000001021F4E0211143CAF80010E4E7B0F1DB
:101D5000804F0ED0B0F1A04F0BD001240AE00198C3
:101D6000012101F02DFA03E00098012101F0B8FAF9
:101D7000044674B126462888C04300041FD4E86E88
:101D8000D8B1B0F1805F0ED0B0F1005F10D0012467
:101D900014E0D5F8AC20D8F8001021F0E041114350
:101DA000C8F80010E7E7386840F40030386004E015
:101DB0000198012101F004FA044674B1264628680E
:101DC000C043C0011ED4A86CD0B101280ED0022897
:101DD00011D0032814D0012413E0EA6EDAF80010C1
:101DE00021F040511143CAF80010E8E7386840F488
:101DF0000030386004E00198022101F0E1F9044666
:101E00006CB126462868C043400255D41F4801687B
:101E100041F480710160FFF709FC81460EE0AA6C75
:101E2000DBF8001021F003011143CBF80010E9E7C3
:101E3000FFF7FCFBA0EB090064283BD813480068BF
:101E4000C005F5D5BCBBDFF84090B5F8B01009F17E
:101E50004409D9F8000001F4407100F44070884250
:101E600011D0D9F80010D9F8002021F4407142F4C3
:101E70008032C9F80020D9F8002022F48032C9F855
:101E80000020C9F8001003E02C4402580048025812
:101E9000D5F8B000B0F5807F19D1FFF7C7FB0290ED
:101EA00011E000BFFFF7C2FB0299411A41F28830EE
:101EB000814208D9032426462878DFF81494C043C9
:101EC000C00721D03CE0D9F800008007EAD5D5F85A
:101ED000B010C1F301200328FE480DD0016821F4A1
:101EE0007C510160B5F8B020D9F80010C2F30B02A4
:101EF0001143C9F80010DFE7F74A036802EA11123C
:101F000023F47C511143ECE7A86F182816D005DCA8
:101F1000A0B1082808D0102804D10AE020280DD04C
:101F200028280BD001240AE00198012101F048F98A
:101F300003E00098012101F0D3F9044664B126467C
:101F40002878C04380071ED4686F062819D2DFE8BE
:101F500000F0160C11161616AA6FD9F8001021F011
:101F600038011143C9F80010EAE70198012101F096
:101F700027F903E00098012101F0B2F904467CB191
:101F800000E0012426462878C04340071FD4D5F836
:101F90009000062819D2DFE800F0160C111616166C
:101FA0006A6FD9F8001021F007011143C9F8001039
:101FB000E9E70198012101F003F903E0009801210C
:101FC00001F08EF90446A4B100E0012426462878E9
:101FD000C04380062BD4D5F88C00B0F1405F24D0EC
:101FE00011DC10B3B0F1805F15D0B0F1005F10D1FB
:101FF00016E0D5F89020D8F8001021F00701114321
:10200000C8F80010E3E7B0F1804F0ED0B0F1A04F58
:102010000BD001240AE00198002101F0D1F803E07F
:102020000098022101F05CF9044694B12646287814
:10203000C04340062BD4D5F89800B0F5406F24D0AB
:1020400011DC10B3B0F5806F15D0B0F5006F10D172
:1020500016E0D5F88C20D9F8001021F0E0411143AA
:10206000C9F80010E3E7B0F5805F0ED0B0F5A05FCF
:102070000BD001240AE00198002101F0A1F803E04F
:102080000098022101F02CF9044694B126462878E4
:10209000C04300062BD4D5F89C00B0F5C04F24D027
:1020A00011DC10B3B0F5005F15D0B0F5804F10D142
:1020B00016E0D5F89820D8F8001021F4E05111432B
:1020C000C8F80010E3E7B0F5004F0ED0B0F5204F90
:1020D0000BD001240AE00198002101F071F803E01F
:1020E0000098022101F0FCF8044654B126462878F5
:1020F000C04300071ED4D5F88000B0F5805F0AD039
:102100000FE0D5F89C20D8F8001021F4604111436D
:10211000C8F80010EBE70098022101F0E1F800B1E7
:102120000126D5F88020D9F8001021F44051114340
:10213000C9F800102878C043C00613D4D5F894001D
:10214000B0F5807F05D10098022101F0C9F800B1F7
:102150000126D5F89420D8F8001021F440711143DD
:10216000C8F800102868C043000316D4D5F8A000B2
:1021700038B1B0F5803F09D0B0F5003F0BD0012455
:102180000AE00198002101F01BF803E00098022109
:1021900001F0A6F804468CB126462868C0434003E7
:1021A00022D4D5F88400B0F5801F11D0B0F5001FFF
:1021B00013D0B0F5401F15D0012414E0D5F8A020AD
:1021C000D8F8001021F440311143C8F80010E4E7BA
:1021D000386840F40030386004E00098012101F0D4
:1021E0007FF804465CB126462868C043C0031CD46F
:1021F000286D70B1B0F5803F10D0012414E0D5F8FF
:102200008420D9F8001021F440111143C9F80010BE
:10221000EAE7386840F40030386004E001980221B1
:1022200000F0CEFF0446DCB126462868C04380009B
:1022300005D40098022101F053F800B10126286866
:10224000C04380031BD4E86FB8B1B0F5807F10D0D5
:10225000B0F5007F11D0B0F5407F0ED001240DE025
:102260002A6DDBF8001021F480311143CBF8001007
:10227000DBE7386840F4003038607CB326462868D5
:10228000C043C00207D42A6FDAF8001021F00041E1
:102290001143CAF800102868C043800207D4AA6E10
:1022A000DAF8001021F080711143CAF80010286894
:1022B000C043400009D40748016821F4004101608F
:1022C0000168D5F8B420114301602868C04306E0D6
:1022D0005444025810440258CFFFFF001DE007D4B9
:1022E0006A6DDBF8001021F040511143CBF800106B
:1022F0002868C043000208D4D5F88820D9F8001017
:1023000021F440011143C9F8001028790024C0438A
:1023100000F00100204309D00EE0EA6FD9F8001068
:1023200021F440711143C9F80010A8E70198002179
:1023300000F046FF00B106462879C04300F00200D5
:10234000204305D10198012100F03AFF00B1064673
:102350002879C04300F00400204305D101980221F0
:1023600000F02EFF00B106462879C04300F00800B7
:10237000204305D10098002100F0B2FF00B10646CD
:102380002879C04300F01000204305D100980121B6
:1023900000F0A6FF00B106462879C04300F02000F7
:1023A000044304D10098022100F09AFF00B916B14D
:1023B0000120BDE8FE8F0020FBE700002DE9F05F63
:1023C00004000F467ED0DFF83882D8F8000000F015
:1023D0000F00B8420CD2D8F8001021F00F01394399
:1023E000C8F80010D8F8000000F00F00B84269D11A
:1023F0002078844D40070AD52069296801F07001D2
:10240000884204D9296821F07001014329602078AD
:102410007C4E361D00070AD56069316801F07001F5
:10242000884204D9316821F070010143316020787D
:10243000C0060AD5A069316801F4E061884204D978
:10244000316821F4E061014331602078DFF8B4B1F4
:1024500080060BF1080B0CD5E1695846DBF800202B
:1024600002F07002914204D9026822F070020A431D
:102470000260207880070AD5E068296801F00F0122
:10248000884204D9296821F00F010143296020788E
:10249000C0073ED05B49A2682868183920F47060F4
:1024A000104328606068022818D0032819D00968F2
:1024B000012819D0490700294ADADFF848A1AAF112
:1024C000080A00E044E0DAF8002022F007020243A4
:1024D000CAF80020FFF7AAF8814612E009688903CC
:1024E000E9E709688901E6E7C905E4E7FFF79EF82F
:1024F000A0EB090141F28830814202D90320BDE8F6
:10250000F09F6168DAF8000000F03800B0EBC10F0E
:10251000ECD1207880070AD5E068296801F00F0126
:10252000884204D2296821F00F0101432960D8F8BC
:102530000010404601F00F01B9420BD9016821F0AB
:102540000F0139430160006800F00F00B84201D06C
:102550000120D4E7207840070AD52069296801F0D6
:102560007001884204D2296821F07001014329607A
:10257000207800070AD56069316801F0700188424F
:1025800004D2316821F07001014331602078C00627
:102590000AD5A069316801F4E061884204D231684B
:1025A00021F4E06101433160207880060CD5E169B7
:1025B0005846DBF8002002F07002914204D2026813
:1025C00022F070020A43026000F06CF80E492A689B
:1025D0002B68C2F3032203F00F038A5CC95C02F08C
:1025E0001F0201F01F01D040084A20FA01F11160DA
:1025F0000749086007480068BDE8F05FFFF752B878
:1026000000200052184402586A3E000814000024BA
:10261000100000240800002430B500F043F80B4AF5
:102620000B490C4B15681468C5F3032204F00F0422
:102630008A5C095D02F01F0201F01F01D040064ACA
:1026400020FA01F119601060084630BD18440258A4
:102650006A3E0008140000241000002400B5FFF7B3
:10266000DBFF05490968054AC1F30211515C01F01D
:102670001F01C84000BD00001C4402586A3E00080B
:1026800000B5FFF7C9FF05490968054AC1F30221F2
:10269000515C01F01F01C84000BD00001C440258FD
:1026A0006A3E0008454970B545480968434B103BF0
:1026B00011F0380208D00111082A03D0102A0BD0DB
:1026C000182A0BD0084670BD19688906FBD5196811
:1026D000C1F3C101C84070BD3A4870BD3749374D9C
:1026E00018310C1D24350A68096826682D6802F027
:1026F000030406F00102C1F30511C5F3CC0515FB77
:1027000002F200EE102AB8EE400AE9B32F4ADFEDDC
:102710002E0AB7EE001A6CB1DFED2D1A012C01D094
:10272000022C43D002EE101A1068F8EE422A81EE15
:10273000A22A1EE01C68A40611D51B6801EE901A9F
:102740001168C3F3C103F8EE612AD84001EE900A84
:10275000C1F30800F8EE611A81EEA22A0BE001EE47
:10276000901ADFED1C2A00BFF8EE611A106882EEA5
:10277000A12AC0F3080001EE900AF8EE611A40EEBB
:10278000201A31EE810A00E015E022EE000A1068FE
:10279000C0F34620401C00EE900AF8EE600A80EE7E
:1027A000201ABCEEC10A10EE100A70BD01EE901A9C
:1027B000DFED092AD8E7002070BD00001044025860
:1027C0000090D00300366E010000003930440258FA
:1027D0000024744A0024744C001BB74B2DE9F05FB1
:1027E00004007DD0FF4F2078FE4D1837DFF8F483CA
:1027F000103DC00748D0D8F80000396800F0380014
:10280000102815D0182803D101F0030002280FD09A
:102810006068B0F5803F12D010B1B0F5A02F18D08D
:10282000286820F480302860286820F4802009E09F
:102830002868800328D560680028D2D024E0286862
:1028400040F480302860606888B1FEF7EFFE0646ED
:1028500009E0286840F480202860F0E7FEF7E6FEF3
:10286000801B64287ED828688003F7D50CE0FEF72B
:10287000DDFE064605E000BFFEF7D8FE801B64289B
:10288000F0D828688003F7D42078800756D5D8F888
:102890000000DFF85093396810F03800A9F10C09F6
:1028A0000ED0182801D188070AD0E068A8B329689B
:1028B00021F0190101432960FEF7B8FE064628E021
:1028C0002868400702D5E06800288AD0E1682868B7
:1028D00020F0190008432860FEF7A8FE064606E02F
:1028E000D2E000BFFEF7A2FE801B0228BAD82868FB
:1028F0004007F7D5217CD9F8002022F0FE4242EAB9
:102900000161C9F8001019E0FEF790FE801B022853
:10291000A8D828684007F7D5ECE7FFE7286820F03B
:1029200001002860FEF782FE064604E0FEF77EFE08
:10293000801B022896D828684007F7D42078C00664
:1029400046D5D8F80000DFF89C92396800F03800CE
:10295000A9F10409082812D0182805D101F00300B4
:10296000012800E0CEE00AD0E0690028286820D0E5
:1029700040F080002860FEF759FE064615E0286802
:10298000C00502D5E06980287ED194F82010D9F8DE
:10299000002022F07C5242EA0161C9F8001017E0E1
:1029A000FEF744FE801B0228A0D82868C005F7D592
:1029B000EBE720F080002860FEF738FE064604E0D2
:1029C000FEF734FE801B022890D82868C005F7D493
:1029D0002078000729D58348616964300029814641
:1029E000016811D041F001010160FEF71FFE0646AB
:1029F00005E000BFFEF71AFE801B022888D8D9F830
:102A000000008007F6D510E021F001010160FEF71B
:102A10000DFE064605E000BFFEF708FE801B0228FB
:102A200070D8D9F800008007F6D42078800623D526
:102A3000A0690028286810D040F480502860FEF774
:102A4000F5FD064605E000BFFEF7F0FD801B0228FD
:102A500058D828688004F7D50EE020F4805028600C
:102A6000FEF7E4FD064604E0FEF7E0FD801B0228C9
:102A700048D828688004F7D42078400751D5DFF87B
:102A80006891D9F8001000E015E141F48071C9F8AF
:102A90000010FEF7CBFD064605E000BFFEF7C6FDC1
:102AA000801B64282ED8D9F80000C005F6D54D4EFD
:102AB000A068603601280AD008B1052813D0306814
:102AC00020F001003060306820F0040002E030683F
:102AD00040F001003060A06841F2883A98B1FEF7FA
:102AE000A5FD81460AE0306840F004003060EEE762
:102AF000FEF79CFDA0EB0901514503D83068800723
:102B0000F6D50EE072E0FEF791FD814606E000BFCB
:102B1000FEF78CFDA0EB0901514567D830688007AE
:102B2000F6D4606A00287CD0DFF8B8A0D8F800108E
:102B30000AF1200A4FF6F87B0AF10408C1F3C2013A
:102B40000329AAF104096DD00228286820F08070BA
:102B5000286003D0FEF76AFD044681E0FEF766FDBB
:102B6000064604E0FEF762FD801B022875D828683F
:102B70008001F7D4E26A40F2F331386854F8283F14
:102B8000884340EA021018433860217B4FF4FE0C62
:102B900022894FF0FE47208A4902267D521E401EA0
:102BA000A1F5007189B2C2F308021143761E0CEA46
:102BB00000400143484607EA06621143CAF8001084
:102BC000D9F8001021F00101C9F80010D8F8003040
:102BD000266A23EA0B0343EAC601C8F80010D9F8B5
:102BE000001004E0104402580048025835E0A26981
:102BF00021F00C011143C9F800100168E26921F0CD
:102C0000020111430160016841F4803101600168F3
:102C100041F400310160016841F4802101600168E4
:102C200001E06CE020E041F001010160286840F023
:102C300080702860FEF7FAFC044604E0FEF7F6FC1C
:102C4000001B022809D828688001F7D557E000BF8B
:102C5000FEF7ECFC001B022802D90320BDE8F09F20
:102C600028688001F4D44AE039680128DAF80000C5
:102C700021D0A26A01F0030393421CD1E26AC1F39E
:102C800005118A4217D1216BC0F30802491E8A42FE
:102C900011D1616BC0F34622491E91420BD1A16B49
:102CA000C0F30642491E914205D1E16BC0F30660B4
:102CB000491E814201D00120D0E7A16C4646D8F8D8
:102CC0000000C0F3CC00814219D0D9F800004D4675
:102CD00020F00100C9F80000FEF7A8FC4FEA000749
:102CE000FEF7A4FCB842FBD0A26C306820EA0B00CF
:102CF00040EAC2003060286840F0010028600020EF
:102D0000ACE7401EB0F1807F10B501D3012010BDAB
:102D10004FF0E02460610F21601700F05CFF00209D
:102D2000A0610721216110BD30B590F88410012900
:102D300018D0012280F884202421C0F888100022B5
:102D4000202401680B680D6823F0005325F001056D
:102D50000D60426601680B60C0F8884080F88420EE
:102D6000104630BD022030BD70B5044690F8840096
:102D700001281DD0012284F884202420C4F8880072
:102D800020680568026822F00102026020688268FB
:102D900022F060620A438260204600F0E1FB226874
:102DA000202100201560C4F8881084F8840070BDCC
:102DB000022070BD70B5044690F8840001281DD033
:102DC000012284F884202420C4F888002068056843
:102DD000026822F0010202602068826822F06042EC
:102DE0000A438260204600F0BBFB226820210020BD
:102DF0001560C4F8881084F8840070BD022070BD8E
:102E000010B5040003D0D4F8880010B107E0012009
:102E100010BD002084F88400204600F027F824200C
:102E2000C4F888002068016821F001010160204693
:102E300000F09CFC0128EBD0A06A10B1204600F005
:102E4000B1FB2068416821F49041416020688168AD
:102E500021F02A0181602068016841F001010160D0
:102E60002046BDE8104000F001BC00002DE9F04F05
:102E7000B5B0804614212EA8FDF741FBB821684665
:102E8000FDF73DFB5C490226D8F800000327584CAB
:102E90000025DFF860B188424FF0070A26D10020F4
:102EA0001D950221CDE900106846FEF7E9FD08B145
:102EB000FDF759FD4E480830016841F0804101603E
:102EC000006800F080403390206840F010002060DF
:102ED00020684FF4C071CDE92E1600F01000CDE946
:102EE00030572EA9CDE932A058467EE04349DFF89D
:102EF0001091884244D100201E950122CDE9002086
:102F00006846FEF7BDFD08B1FDF72DFDD9F80010AC
:102F100041F01001C9F80010D9F8000000F01000CD
:102F20003390206840F00100206020684FF4C061B9
:102F3000CDE92E1600F001002C46CDE930572EA920
:102F4000CDE932A02F48FEF763FA2F4D2A212F48F2
:102F5000402285E81700861503152846C5E9043484
:102F6000C5E906462C626C62FEF774F808B1FDF7FD
:102F7000FAFCC8F87C50C5F8388035B0BDE8F08F51
:102F800023498842F9D100201E950121CDE9001086
:102F90006846FEF775FD08B1FDF7E5FCD9F80010AD
:102FA00041F08001C9F80010D9F8000000F080005D
:102FB0003390206840F01000206020682EA93095E2
:102FC0005C4600F0100033900420CDE92E06CDE9D8
:102FD00031705846FEF71CFA0B2130950820CDE9D8
:102FE0003171CDE92E062EA92046FEF711FAC4E76D
:102FF000E0440258001002580078004000100140E0
:10300000F044025800000258D40100242800024075
:10301000001C0140FEE70000094808B5016841F0C6
:103020000101016000680022114600F001000090DB
:103030000C20FEF773FBBDE808400C20FEF760BBD8
:10304000D84402580D4808B5016841F010010160EC
:10305000016801F010010091016841F080010160F8
:10306000016801F080010091016841F001010160F7
:10307000006800F00100009008BD0000E044025824
:103080001848002110B5164C0C224FF4612304603F
:10309000C0E90131C160C0E904128161C16101620E
:1030A00041628162FFF7ACFE08B1FDF75CFC0D48A0
:1030B0000021FFF77FFE08B1FDF755FC094800210C
:1030C000FFF752FE08B1FDF74EFC0648FFF72CFE55
:1030D000002803D0BDE81040FDF745BC10BD00003E
:1030E00000780040180000241848002110B5164C44
:1030F0000C224FF461230460C0E90131C160C0E9D2
:1031000004128161C161016241628162FFF778FE50
:1031100008B1FDF728FC0D480021FFF74BFE08B170
:10312000FDF721FC09480021FFF71EFE08B1FDF75D
:103130001AFC0648FFF7F8FD002803D0BDE8104050
:10314000FDF711BC10BD0000001C0140400100242F
:103150001848002110B5164C0C224FF4612304606E
:10316000C0E90131C160C0E904128161C16101623D
:1031700041628162FFF744FE08B1FDF7F4FB0D48A0
:103180000021FFF717FE08B1FDF7EDFB094800210C
:10319000FFF7EAFD08B1FDF7E6FB0648FFF7C4FDBF
:1031A000002803D0BDE81040FDF7DDBB10BD0000D6
:1031B00000100140AC000024FEE7FEE7704700006D
:1031C0002DE9F047454D044689464FF0000A28682E
:1031D000C04380070AD0414E283E306820F080600E
:1031E0003060FEF723FA0746B04608E00120BDE84C
:1031F000F08700BFFEF71AFAC01B022867D8D8F87C
:1032000000000001F6D4206829684FF4FE0721F47D
:103210007C313E0241EA00302860207AA389B4F86C
:1032200004C040022D4D2D495B1E227CACF1010CE7
:103230001035091DA0F5007080B2521ECCF3080CA9
:1032400007EA034340EA0C00184306EA026210430F
:1032500028600868626920F0C000104308600A68AE
:10326000A06922F0200202430A60281D0A6822F0A9
:1032700010020A6002684FF6F873E4699A4342EA62
:10328000C40202600868B9F1000F40F010020A6041
:1032900011D00868B9F1010F11D040F40010086096
:1032A000D8F80000444640F08060C8F80000FEF7FF
:1032B000BDF905460DE0086840F40020EFE740F452
:1032C0008010ECE7FEF7B2F9401B022801D9032079
:1032D0008DE720680001F5D5504688E7284402585C
:1032E0002DE9F047454D044689464FF0000A28680D
:1032F000C04380070AD0414E283E306820F08050FD
:103300003060FEF793F90746B04608E00120BDE8BB
:10331000F08700BFFEF78AF9C01B022867D8D8F8EB
:1033200000008000F6D4208829684FF4FE0721F0C1
:103330007C713E0241EA00502860207AA389B4F8EB
:1033400004C040022D4D2D495B1E227CACF1010CC6
:103350001835091DA0F5007080B2521ECCF3080C80
:1033600007EA034340EA0C00184306EA02621043EE
:1033700028600868626920F44060104308600A68A9
:10338000A06922F4007202430A60281D0A6822F430
:1033900080720A6002684FF6F873E4699A4342EA61
:1033A000C40202600868B9F1000F40F480720A603C
:1033B00011D00868B9F1010F11D040F08070086099
:1033C000D8F80000444640F08050C8F80000FEF7EE
:1033D0002DF905460DE0086840F48000EFE740F461
:1033E0000000ECE7FEF722F9401B022801D9032078
:1033F0008DE720688000F5D5504688E728440258BC
:103400007047FEF719B9000070B59CB04C216846B2
:10341000FDF775F8202113A8FDF771F80220FEF7DB
:10342000AFF91E48016821F44041016001680024A1
:1034300001F440411B9101688904FCD502200A90E7
:1034400028230990C20301210D910425CDE9001222
:10345000CDE90B030C261294CDE90E50CDE9106492
:103460006846FFF7BBF908B172B6FEE740201A9034
:1034700008230501CDE9163013ABCDE918053F212E
:10348000032283E8160013A81146FEF797FF0028D1
:1034900001D072B6FEE71CB070BD0000184802589B
:1034A0002748F0B5274A016841F4700101601068AF
:1034B00000F00F00072804D2106820F00F00C01D94
:1034C000106021490020204C10340B681F4D43F040
:1034D00001030B6020600B682B400B60136803F046
:1034E0000F03072B04D9136823F00F03DB1D1360B0
:1034F000154C174A1834174B261D371D2060124CE7
:10350000154D28343060261D3860371D23603B1D63
:1035100035601C1D3A60251D2E1D1860331D22606C
:103520002860326018600A6843F2D204064B0B4DE3
:1035300022F4802260330A6018602C60F0BD000025
:1035400088ED00E000200052004402587FEDF6EACA
:1035500080020101000202020000FF01004000524F
:1035600030B5416EB9B101680D4B03F108048A68AA
:103570008968C2F34262490F5D5C615C2D01B5FB55
:10358000F1F1A0F86A10995CA25C0901B1FBF2F1BB
:10359000A0F8681030BD0121A0F86A10F8E700001B
:1035A0005A3E000890F82810C90706D00168C36A7F
:1035B0004A6822F400321A434A6090F828108907BA
:1035C00006D50168036B4A6822F480321A434A60C8
:1035D00090F82810490706D50168436B4A6822F421
:1035E00080221A434A6090F82810090706D501681E
:1035F000836B4A6822F400421A434A6090F828100C
:10360000C90606D50168C36B8A6822F480521A4342
:103610008A6090F82810890606D50168036C8A68CC
:1036200022F400521A438A6090F82810490611D5F6
:103630000168436C4A6822F480121A434A60416C64
:10364000B1F5801F06D10168836C4A6822F4C0027C
:103650001A434A6090F82810090606D50168C26C22
:10366000486820F400201043486070472DE9F84373
:1036700000250446C0F89050FDF7D8FF804620682A
:1036800020266FF07E470068000713D500224346CE
:1036900031042046009700F057FA58B1216851E8EC
:1036A000000F20F0800041E80002002AF6D1C4F8A3
:1036B000886021E020680068400722D50022434648
:1036C0004FF480012046009700F03EFAC8B1206810
:1036D00050E8001F21F4907140E80012002AF6D152
:1036E0002068083050E8001F21F0010140E8001276
:1036F000002AF5D1C4F88C60032084F88450BDE81A
:10370000F883C4F88860C4F88C60E56625670020FB
:1037100084F88450F3E7000010B5026852E8001FF7
:1037200021F4907142E80013002BF6D10E4B026891
:10373000083252E8001F194042E80014002CF6D16C
:10374000C16E012908D1026852E8001F21F0100162
:1037500042E80013002BF6D100212022C0F88C2073
:10376000C166416710BD0000FEFFFFEF2DE9F04389
:1037700004468068E24E87B0E24B2168D4E9042712
:10378000D4F81CC010430A68002547EA0C073843E8
:10379000324002430A602068E268416821F44051E7
:1037A000114341602268A1699A4201D0206A014315
:1037B0009668DFF854C3D54FD54806EA0C060E4389
:1037C00096602168666ACA6A22F00F023243CA62B2
:1037D0002268BA420ED1006800F0380018286FD075
:1037E0007ADCB8B308286CD010286BD18BE028287D
:1037F00068D18EE0C7498A4209D1006800F007000D
:1038000006285FD2DFE800F0507D7F818385C249C2
:103810008A4209D1006800F0070006287BD2DFE861
:1038200000F0437072747678BC498A4209D100680E
:1038300000F0070006286ED2DFE800F03663656707
:10384000696BB7498A420BD1006800F0070006286F
:1038500061D200E043E0DFE800F0275456585A5C9C
:10386000B0498A4206D1006800F0380018284CD0D0
:10387000B7DD31E0AC498A4209D1006800F00700A9
:10388000062848D2DFE800F0103D3F414345A749F4
:103890008A420BD1006800F0070006283BD2DFE81F
:1038A00000F0033032343638002035E0A0498A4237
:1038B00009D1006800F03800182826D091DD0BE00F
:1038C00023E01EE027E09B498A420AD1006800F00D
:1038D0003800182819D084DD202888D11CE0012068
:1038E0001AE09A4217D18A48001D006800F00700CC
:1038F000062810D2DFE800F0030507090B0D0220AF
:103900000AE0042008E0082006E0102004E020205F
:1039100002E0402000E080208749DFF820829A42C0
:10392000874A4FF400434FEA21174FF000064ED16B
:1039300010281AD006DC022809D004280BD0082849
:103940007ED10DE020283ED0402879D13DE0FDF722
:1039500041FF014610E06846FDF74EFF01990BE07C
:1039600003A8FDF7EBFF049906E01068800605D573
:103970001068C0F3C100C140002970D0606A676858
:1039800038F8102007EB4703B1FBF2F0834257D819
:10399000B0EB073F54D8002308461946FCF706FD54
:1039A00002467808130E120243EA012110183A4623
:1039B00071410023FCF7FAFC624AA0F54071914284
:1039C0003ED821688FE03946D8E71946D6E7D4F8C3
:1039D0001CC04FF6EF799C4546D1082819D005DC6C
:1039E00058B101280CD0042875D10DE0102815D04D
:1039F000202835D040286ED134E0FEF72FFE01E0BC
:103A0000FEF73EFE014610E06846FDF7F5FE01991F
:103A10000BE003A8FDF792FF049906E0106880060A
:103A200004D51068C0F3C100C140C1B1636A6068C9
:103A300038F81330B1FBF3F1490001EB500100E01D
:103A400049E0B1FBF0F0A0F11001494543D84FF631
:103A5000F0732168C0F342021840104343E043E092
:103A60003946E3E71946E1E7082819D005DC58B1E3
:103A700001280CD004282ED10DE0102815D02028C4
:103A80002BD0402827D12AE0FEF7E8FD01E0FEF721
:103A9000F7FD014610E06846FDF7AEFE01990BE028
:103AA00003A8FDF74BFF049906E01068800604D5D3
:103AB0001068C0F3C100C140B1B1636A606838F8F2
:103AC0001330B1FBF3F101EB5001B1FBF0F0A0F1C9
:103AD0001001494505D9012506E03946EDE71946AB
:103AE000EBE7216880B2C8600120A4F86A00A4F85E
:103AF000680028466667A66707B0BDE8F083000047
:103B0000F369FFCF000C0058FFF4FF1100100140D3
:103B1000544402580044004000480040004C00401B
:103B2000005000400014014000780040007C00403C
:103B300000180140001C01400090D003423E0008E4
:103B400000440258FFFC0F002DE9F0479946174644
:103B50000E460446089D4FF000082FE0681C2DD04B
:103B6000FDF764FDA0EB0900A84214D89DB12068C0
:103B70000168490722D5C169C94309070DD4082541
:103B800005622046FFF7C8FDC4F89050012084F874
:103B90008480BDE8F0870320FBE7C069C0430005CF
:103BA0000CD421684FF4006008622046FFF7B4FD92
:103BB0002021C4F8901084F88480ECE72068C06964
:103BC00036EA000004D00020B842C7D00020E0E769
:103BD0000120F9E7FEE7090700284FEA116104DB3D
:103BE00000F1E02080F80014704700F00F0000F1B1
:103BF000E02080F8141D70470168CA69D24312079B
:103C000001D408220A620168CA69D243920701D42A
:103C100002220A620168CA69D243520701D404220F
:103C20000A620068C169C943C90701D10121016263
:103C30007047000030B5044690F8450000258DB06F
:103C400028BB94F8440010B3211D4554201D69463B
:103C5000FCF7FCFC0028114813D03022C169079101
:103C6000016A491C0891416A491C0991816A0A91BB
:103C7000694690F82C008DF82C000848FCF70DFCE4
:103C800005E0016A491C0162816A491C816284F86D
:103C9000445084F845500DB030BD00004C02002463
:103CA000FDF7D2FCFFF7B0FBFFF7CCF9FFF7B4F953
:103CB000FFF74EFAFFF718FAFFF7E2F90648FCF7AC
:103CC000ADFC0648FCF780FC0548FCF77DFC00BF16
:103CD000FCF706FDFCE70000AC00002440010024D6
:103CE0001800002410B5044600F098F82068017808
:103CF0002C2901D0002010BD401C2060012010BDE7
:103D00002DE9F04101260F46002504462DED028BDA
:103D1000F7EE008A9FED278A00F080F82068B2EE67
:103D2000040A01782D2901D02B2916D1411C2160CC
:103D300000782D2811D14FF0FF360EE0411C216094
:103D400000780125B0EE481A303800EE900AF8EEFF
:103D5000E00AB0EE608A01EE008A2068017830390E
:103D60000929EBD901782E2916D1401C20600FE0DB
:103D7000411C21600078012568EE808A303800EE11
:103D8000900A0846B8EEE01AC1EE280A30EE888A9A
:103D9000017830390929EBD900EE106A2846B8EECF
:103DA000C00A28EE000A87ED000ABDEC028BBDE8D0
:103DB000F081000000000000144A0A2930B4D369E1
:103DC00003F10103D36182F82C1011D00D290FD01B
:103DD000A1F120025E2A13460DD890F844203F2A14
:103DE00009D2531C80F84430041D115530BC704773
:103DF00030BCFFF71FBF5F2B03D3002180F84410B6
:103E000000E0012180F84510F0E700004C0200249A
:103E1000002180F8441080F845107047016801E0E7
:103E2000491C01600A78202AFAD0092AF8D0704784
:103E30004FF04070E1EE100A7047000610160006C1
:103E40001016010002000400060008000A000C0021
:103E50001000200040008000000101010103070163
:103E60000000080402040801010100000000010232
:103E70000304010203040607080900009C3E000831
:103E8000000000241800000008030008B43E0008E9
:103E900018000024E80900002403000800000000C6
:103EA0000100000010000000000000000090D0039E
:043EB0000090D003AB
:04000005080002CD20
:00000001FF
