:020000040000FA
:10000000202B20200102000059760000070200008A
:1000100000000000000000000000000000000000E0
:1000200000000000000000000000000009020000C5
:1000300000000000000000000B020000ED9F000027
:100040000F020000E14F000015A000000F020000A9
:100050000F0200000F0200000F0200000F0200005C
:10006000000000000F0200000F020000000000006E
:10007000000000000F02000095B700000F02000012
:100080000F020000F59F00000F0200000F020000A9
:100090000F0200000F02000000000000000000003E
:1000A0000F0200000F02000000000000000000002E
:1000B0000F020000000000000F0200000F0200000D
:1000C00000F002F800F071F812A030C808382418C7
:1000D0002D18AC4201D100F068F80FCCA246AB4617
:1000E0000CA730CF2D1B083F3F197C427F1E544484
:1000F0002D090426F441641EAC4201D300F055F8EA
:100100000126334200D0FB1A3343984754465D46DC
:10011000DFE700003C6301006C63010000000000A9
:10012000103A02D378C878C1FAD8520701D330C840
:1001300030C101D504680C60704700000000000069
:100140007047000000000000002300240025002666
:10015000103A01D378C1FBD8520700D330C100D583
:100160000B60704710B5662902D10EF03BFE10BD42
:10017000752902D100F0CCF810BD782902D100F029
:10018000FDF810BD732902D101F0E7FC10BD00207D
:1001900010BD1FB501F0A4FD0400002000210EF0E9
:1001A00073FCE0601FBD10B510BD02F0D5F911461B
:1001B000FFF7EFFF0CF0ACFE02F0EDF903B4FFF730
:1001C000F2FF03BC02F0A2FA70B505460C461646D3
:1001D00002E00FCC0FC5103E102EFAD2082E02D32B
:1001E00003CC03C5083E042E07D301CC01C5361F3E
:1001F00003E021782970641C6D1C761EF9D270BD55
:1002000006480047FEE7FEE7FEE7FEE7FEE7FEE7FB
:1002100003480449044A054B70470000C100000030
:10022000200B2020202B2020201B2020201B2020E2
:100230000FB41CB50C0007AA009007D04142A142A0
:1002400002D30019401E01E00020C043074B7B444D
:1002500069460190069801F052FC0020002C01D064
:10026000009908701CBC08BC04B01847D3180000E3
:1002700070B5044685690068C10601D5302600E0E6
:100280002026C00707D070BD62683046A16890473D
:10029000206A401C20626D1EF6D570BD70B5044604
:1002A00085690078C00707D170BD6268A168202009
:1002B0009047206A401C20626D1EF6D570BD70B557
:1002C0000C460546012A05D02878800600D5EA6943
:1002D000002302E0012305E05B1C934202D2E05CB4
:1002E0000028F9D1A869E618C01AA861286AC018C0
:1002F00028622846FFF7BCFF04E06A682078A968F6
:10030000641C9047B442F8D32846FFF7C7FF70BD7E
:10031000F7B5002575291068009914A611D0C046BC
:10032000C046002802DA404211A608E00099096898
:100330008A0701D50FA602E0490704D50EA60125BC
:1003400001E0C046C046009F0024243704E001F0CD
:1003500008FC30313955641C0028F8D12B46324650
:100360002146009801F064F9FEBD00000000000085
:100370002D0000002B0000002000000070B5044696
:100380000D4621461068C046C0462188090502D5A1
:100390000F4A7A4402E00E4A7A440E322346002184
:1003A000243305E006070009360F965D5E54491CAC
:1003B0000028F7D120780023000705D5702D03D041
:1003C000002901D002231132204601F031F970BD1D
:1003D0005EEA0000F3B50446002081B020622046AA
:1003E000E1688847002872D0252802D06268A16899
:1003F000ABE0594F00267F442046E168884720281B
:10040000054608DB312D06D27819203800780028FF
:1004100001D00643F0E7B00701D504208643002051
:10042000E0610746A0612A2D0AD028460DF0B7FFEB
:10043000002827D0B8000019303D0090856119E0F0
:100440000298BA00121902C8916102902046E16830
:100450008847012F054617D1E06900281FDA2020C0
:1004600086431CE000980A2180694843009940199E
:10047000303888612046E168884705460DF08FFFD7
:100480000028EFD1012F0AD02E2D08D12046E16897
:1004900088470546202006437F1C022FC3DBA06946
:1004A000002803DA4042A06101200643F00701D092
:1004B000102086436C2D0BD0682D09D04C2D3CD0DC
:1004C0006A2D38D0742D38D07A2D36D016E040E021
:1004D000E1682F4620468847B842054609D16C2F6F
:1004E00029D001208002E16806432046884705465E
:1004F00004E06C2F1DD0FF2001300643002D28D0D2
:1005000028464138192803D80120C0020643203567
:10051000204626602946029A1646FFF723FE002849
:1005200010D001280BD0F61DF008C0000830029052
:1005300055E74020E1E78020D5E70020D3E7361DCE
:1005400002964CE762682846A1689047206A401CE2
:1005500044E7206AFEBD000022EA00000346F0B531
:100560000B439B072DD1244DEF01042A29D308C842
:1005700010C95E1B9E43121F3E4017D0D8B2E1B295
:10058000401A3106014310D198B2A1B2401A310489
:1005900001430AD118022102000A090A401A310255
:1005A000014302D1180E210E401AF0BDA342DCD047
:1005B00018BA21BA884201D90120F0BD0020C043F9
:1005C000F0BD002A01D10020F0BD03780C78401C5A
:1005D000491C002B0DD0A3420BD1521E09D0037829
:1005E0000C78401C491C002B03D0A34201D1521EA1
:1005F000EBD1181BF0BD000001010101F8B5042A80
:100600002CD3830712D00B78491C0370401C521E58
:1006100083070BD00B78491C0370401C521E8307C4
:1006200004D00B78491C0370401C521E8B079B0F93
:1006300005D0C91ADF002023DE1B08C90AE0FFF736
:10064000C3FDF8BD1D4608C9FD401C46B4402C43FF
:1006500010C0121F042AF5D2F308C91A521EF0D492
:100660000B78491C0370401C521EEAD40B78491CBD
:100670000370401C012AE4D409780170F8BDD2B29D
:1006800010B513029A1813049A1800F001F810BD5F
:1006900001E004C0091F0429FBD28B0701D50280A9
:1006A000801CC90700D00270704700290BD0C30717
:1006B00002D00270401C491E022904D3830702D5D0
:1006C0000280801C891EE3E70022EEE70022DFE7BC
:1006D000002203098B4273D3030A8B4258D3030BC6
:1006E0008B423CD3030C8B4221D312E003460B43D5
:1006F0007FD4002243088B4274D303098B425FD31B
:10070000030A8B4244D3030B8B4228D3030C8B4246
:100710000DD30902FF2212BA030C8B4202D312122C
:10072000090265D0030B8B4219D300E0090AC30B01
:100730008B4201D3CB03C01A5241830B8B4201D3AE
:100740008B03C01A5241430B8B4201D34B03C01A97
:100750005241030B8B4201D30B03C01A5241C30A0F
:100760008B4201D3CB02C01A5241830A8B4201D380
:100770008B02C01A5241430A8B4201D34B02C01A6A
:100780005241030A8B4201D30B02C01A5241CDD20F
:10079000C3098B4201D3CB01C01A524183098B425A
:1007A00001D38B01C01A524143098B4201D34B0143
:1007B000C01A524103098B4201D30B01C01A5241A6
:1007C000C3088B4201D3CB00C01A524183088B422D
:1007D00001D38B00C01A524143088B4201D34B0016
:1007E000C01A5241411A00D2014652411046704788
:1007F0005DE0CA0F00D04942031000D3404253408D
:100800009C46002203098B422DD3030A8B4212D34C
:100810008901FC2212BA030A8B420CD3890192117E
:100820008B4208D3890192118B4204D389013AD0BB
:10083000921100E08909C3098B4201D3CB01C01A90
:10084000524183098B4201D38B01C01A52414309A3
:100850008B4201D34B01C01A524103098B4201D391
:100860000B01C01A5241C3088B4201D3CB00C01AFE
:10087000524183088B4201D38B00C01A5241D9D216
:1008800043088B4201D34B00C01A5241411A00D297
:1008900001465241104663465B1001D34042002B93
:1008A00000D54942704763465B1000D3404201B512
:1008B0000449002802DC491C084000E00846C04604
:1008C000C04602BDFFFFFF7F7047704770470000C2
:1008D0000246C80FC00781434B0030B54B405B0058
:1008E0009B0D20D01923DB06C91801231B05994253
:1008F00020DB0324A40704251346AB400BD3002BB5
:1009000004D1EB0613409B00E34204D401246407A6
:10091000002312195941FF231B0599420BD2C9002C
:100920000143500F09E0CB0204D501430803024301
:1009300005D0054830BDFF21C905084330BD084634
:1009400007210905884330BD0000C07FF0B50C4683
:10095000871A9C410D46861A9D4103D2C01BA141B6
:10096000D21963410D0D1F0DC94EEC1BAE435CD077
:100970007F057F0D0026002F51D02D05AC46A943E1
:10098000DD020123ED0A1B051D4320231B1B24D47C
:100990001746E740381871412F46E740CC199D4073
:1009A0002818314661410C0D27D161449A4013D576
:1009B0000023401C594152000ED140084000012242
:1009C0004B005205D34207D305204007C14201D551
:1009D000B04900E0B0493046F0BD6B00002A00D0BD
:1009E00001229A181F23203C1B1B01D5002302E083
:1009F000E540281871410C0DD7D0012424050919B0
:100A0000C407CD0740084908E40F28436144002C7F
:100A1000D5D00024401C61419A40D0D1CDE76A0571
:100A2000520DD9D1C90FC907D5E79C4D4E000028FA
:100A300001D0012400E0002434195F00002A01D015
:100A4000012600E00026BE19954FAC420CD8AE42FC
:100A50000AD8B44206D001256D05EC42BCD0104640
:100A60001946F0BD9942FCD000203946F0BDF0B5E2
:100A70001FB40C460F46811A9F412546861A9D4198
:100A800006D20125ED076F40401ABC4152187B4148
:100A9000210D1E0D8D1BAC467D4D8D437ED0750501
:100AA0006D0D7CD00D05AE46AC431B031B0B794D81
:100AB00052429D41202366469B1B14D31746F740A4
:100AC000381800260090744160462F460741E4190B
:100AD00000989D402818664116D4714671189A40B6
:100AE00025D5012320E093182A466A415200002BA5
:100AF00000D0521C1E23203E9B1B002B61DD354184
:100B0000EE1728186641E8D5001876415B1C9A401C
:100B100000D3401C4B05F3181524E34010D3002BE1
:100B200052D071467118D30FC01802D3491C05B0BA
:100B3000F0BD0123DB079A42F9D140084000F6E7F7
:100B400001225205B21801D1002853D00123CC0A4A
:100B5000DB029943891E002A08D1020C03D0020C43
:100B60000004103902E00246002020390023550B12
:100B700005D112020823550B01D152010D23550C4A
:100B800001D112011B1DD50C01D192009B1C150D2A
:100B900001D152005B1C2025EE1A01E02CE022E07E
:100BA0000546F54015439840CA1AE1076918130530
:100BB000C918002ABBDA032040070818C10FC9076B
:100BC0000FE071466118B2E7F10740080843711061
:100BD00071444A000CD001235B059A42A7D2C90F89
:100BE000C9070020A3E74905490D26D1002001E0EF
:100BF0000028F4D100219AE7284D6600002801D092
:100C0000012100E0002171185F00002A01D00126B7
:100C100000E00026BE19224FA94210D8AE420ED8DD
:100C2000B14208D001256D05E94206D01946A80257
:100C3000414010467BE79C4201D0214677E70020E7
:100C4000394674E710B50C465C4005D50124E4072D
:100C50006340FFF70CFF10BDFFF778FE10BD30B406
:100C60000C465C4004D50124E407634030BC6DE6CB
:100C700030BCFCE670B50124E40761400D465D40E0
:100C800002D4FFF763FE70BD6340FFF7F0FE70BD56
:100C9000FF0700000000F0FF0000F07F0000E0FF11
:100CA0000000F87FF0B5F94D0C091E092C402E40CC
:100CB0002F468BB0A7437DD0B543FCD0002E7AD011
:100CC000002CFCD00D465D40ED0F2543AC1BFF25ED
:100CD000AD0464190894C502440DC9022143500DA6
:100CE000DC0204430120C00701430443D202019106
:100CF000200C110C00958C46010423468B430A916D
:100D000061460904E24D8A430991010A7D4449196B
:100D10008039097805464D4301266D18F605751B87
:100D20006943C90C640B891C4C436418B5012C1B26
:100D3000250C2E04B4434C434D43210C69188909FA
:100D40000591009DE90701D00121C90704912C46B6
:100D500001996708CD072F434C08059DE10B4D43D2
:100D60002D0C29466646754302950D4645432E4691
:100D7000029D7D1BB44100950D465D4301942C0CF2
:100D80002F040D465543AE462D0C3D43029503946A
:100D90007546049C2D04641B049406D2029C039D9A
:100DA000641C002675410395029401AC70CC009F31
:100DB0007D1B01E03EE162E1B44109040095079129
:100DC00001940599A4086143090C0C464443650B42
:100DD000E7040C4666467443A646640B3C43039501
:100DE00002947446049DE4042C1B049406D2029CD5
:100DF000039D641C002675410395029401AC70CCE0
:100E0000009F7D1BB44101940C465C430095650F27
:100E1000E7000C465443A646640F3C4303950294F6
:100E20007446049DE4002C1B049406D2029C039D8E
:100E3000641C002675410395029401AC70CC009FA0
:100E40007D1BB441AE09AF06049DC900AD092F4317
:100E5000049DA406AD060495079D344369180791C7
:100E6000059DE10B4D432D0C2946664675430295C1
:100E70000D4645432E46029D7D1BB44100950D460F
:100E80005D4301942C0C2F040D465543AE462D0CAA
:100E90003D43029503947546049C2D04641B049401
:100EA00006D2029C039D641C0026754103950294A2
:100EB00001AC70CC009F7D1BB44101948C0506945D
:100EC000079C890A611800950791019C0599A4085F
:100ED0006143090C0D464543680BEF040D4664461B
:100EE00065436C0B3C43049FED047D1BAC4602D272
:100EF0000025641C6841009E019D371B8541084602
:100F0000584301950C46460FC5005443600F2843D3
:100F10006546E4002C1B02D20025401C6E41019D59
:100F20003F1AB5412846BD09800628438446A009DA
:100F3000BF064E020699A40676180743079D0020B7
:100F400068410A99079019430020099B0090604668
:100F5000FF1913434041E20F64003A43A44604469C
:100F6000D71A8C41A04203D90120009020463A466E
:100F7000C70F941840416246D20F22436446640072
:100F80000494009CBE466400D71AA4460446029707
:100F90008C417746002F01D1A04204D96046401C05
:100FA0008446029A2046C40FA64694184041049AEB
:100FB0000546D20F224364466400D31A8D41714620
:100FC000002901D1A84202D928461A46641C1043C0
:100FD0000122002800D0164361020020079B8919D6
:100FE00004465C410223002C02DB4918134664418D
:100FF000089DCE0A2D145D194B056705E10A2C05E5
:101000000D1908993E43C9076940002B08D0934049
:1010100006D30022761C5141002B01D176087600C0
:101020001C4A002D43DB154241D0AA433FD0304635
:101030000BB0F0BD06180D464D41174C7642AC4141
:101040001AD395181C465C41134A6D42A24113D332
:10105000012252054C00D4420AD15C00D4420BD08C
:101060004B4002D592021143E2E749004908DFE70D
:101070005940C90FC90718E000200849D8E70548BA
:1010800001420DD10342F7D0F2E700000000FF0754
:101090001DE100000000F07F0000E0FF0000F87F8D
:1010A000114859400143C01241400020C0E70123CC
:1010B000089A9B069A4205DC032252078918C90F39
:1010C000C907B5E7052252078918074A1143D2120A
:1010D0005140ADE770B515461C4602460B46284602
:1010E0002146FFF7DFFD70BDFFFFFF7F1F22030CCE
:1010F00002D10F22000402D0030E03D004E000202E
:10110000014670470002083A030F01D10001121F87
:10111000830F01D18000921E002801DB4000521E87
:10112000120551184205C012411810467047C10FF0
:10113000C90700D04042012292071143D6E701219E
:101140008907D3E7F0B58B4C0F09254689B0BD431D
:101150007BD01D092646AE43FAD00E465E4027409E
:10116000F60F3E43254071D024012142FBD0FF24DD
:10117000AD19A4042D1B039501252D05DB02DB0A07
:10118000C9022B43C90A29431E010901040F130F89
:10119000050121431701880B820391432D098C46D9
:1011A000A90B1E438A039543B30B9A0396433F0949
:1011B000BA0B9403A74302962E467E430497B64685
:1011C0004E19D7190C460196544305977E43371B99
:1011D0007646BF1B3601B646BE0B361900967646DC
:1011E000BC043719009C01D3641C00946400002FD8
:1011F00001D001263443029E049F754366467E4318
:101200000496760034196E0034190094029C019EF5
:101210001C196643751BAE46069465464519059C28
:1012200005956C43594375460891691A0191049ECE
:1012300001465143A41B0491611A009C0791E106E9
:1012400005D061090122114302E072E06EE06109FC
:10125000089D00272C0A2D066918049D7C412A0A46
:101260002D066918019D6241AC0DAD026D18544107
:10127000079A910D920255196141029A64465843AA
:101280005443069B059A5A43121A131B9A0E9B014C
:101290005B187A41010B0005C3185141220A200650
:1012A00044195A419A4200D2491C0120400281420D
:1012B00003D315230226F64302E014230326F64344
:1012C0002020C51AA9401746AF40DA400A432046FD
:1012D0000399D8400914731819055118039A384313
:1012E000D2075140AC4009D00122944006D30022DD
:1012F000401C5141002C01D1400840001E4A93423D
:1013000012D3012203989206904207DB0520400782
:1013100009181A480143C012414004E00320400765
:101320000818C10FC907002009B0F0BD0020F1075F
:10133000FAE705180C464C4111486D42A04115D3FF
:1013400094181A465A410E48644290410ED3012027
:101350004A004005824209D35A00824206D35940CE
:10136000C90F084AC90700201143DDE700200649DC
:10137000DAE700000000FF07FE070000FFFFFF7F25
:101380000000E0FF0000F07F0000F87F0121C905A8
:101390000123411842001B06D3185B0E0AD0C1106E
:1013A0000722D206891840075242D14201D5520085
:1013B00089187047090208D50146002A03D0C10FD9
:1013C000C9070020704710467047420202D0002033
:1013D00002497047072109050143F4E70000F87F3F
:1013E000F0B5FF252D04C609C209FF2704462E408B
:1013F0000137CB093E4348402A402B400746002A8C
:101400006BD0002B69D0AA4267D0AB4265D00028D0
:1014100000DA32460125ED0529432C43090220025A
:10142000090AD21A4B0C7F24E31A434C000A7C446D
:10143000E35C7D242404121914145B00A218884272
:1014400001D3521C00E0400049420C465C43241189
:101450005C43DB016415E318040A5C43C502200DFC
:101460000C4644436419250A5D432303EC0C0D46E6
:10147000654300030019EB184C42A34201D35B18EB
:10148000401CD4052018002B07D05B00C91804D3DA
:10149000401C002901D1400840003F2189048A42B4
:1014A00009D3002A08DC1106090F04D003214907DB
:1014B0004018C00FC007F0BD012241001206891874
:1014C0007F2252069142F6D205214907C84201D532
:1014D0009010F0BDFF20C005F0BD002F00DA3246AD
:1014E0001648AA4207D2AB4205D21902090E17D0FC
:1014F000F80FC007F0BDFF2563002D06AB42F9D8F9
:101500004900A942F6D8AB4201D1A942F2D0A94282
:1015100001D1002101E061004908D0050843F0BD78
:101520001102090EFBD0FF200243D005F0BD0A4690
:101530000146104654E700007BDA00000000C07F3F
:1015400010B501469E240002CA15A307002A02D046
:101550001843002A04DBA21A002A0CDDD04010BD7B
:101560001206120E01D140004008A21A03D4D04046
:1015700040420028F3DDFF2248001206904201D9C4
:10158000002010BDC817C043584010BD0102C2154D
:1015900004D00123DB071943002A0ADB9E239A1A91
:1015A00002D40846D0407047FF2241001206914203
:1015B00001D900207047C017C04370471F22030C99
:1015C00002D10F2200041CD0030E01D10002083A00
:1015D000030F01D10001121F830F01D18000921E61
:1015E000002801DB4000521ED2055118021251188A
:1015F0001922904004D3491C002801D14908490010
:1016000008467047C10FC90700D040420122920727
:101610001143D3E701218907D0E710B500F064FB3F
:10162000006810BD10B5044600F05EFB046010BDFC
:10163000FFB504460D4681B024300090216888062D
:1016400004D51022E0699143216000E00120A84206
:1016500001DD471B00E000270498A1697A191018E2
:10166000081AA0612078C00602D42046FEF700FECA
:10167000002608E003986268A168805D9047206AB0
:10168000401C761C206204988642F3DB2078C0065A
:101690000AD52046FEF7ECFD06E06268A16830201E
:1016A0009047206A401C206238467F1E0028F4DCE8
:1016B00007E000986268A168405D9047206A401C7E
:1016C000206228466D1E0028F3DC2046FEF7E6FD6A
:1016D0002078000602D5022005B0F0BD0120FBE70E
:1016E000FFB50C461E468FB003CA089009914F0003
:1016F0007D0D00D16D1E002108460020C04603214B
:10170000099A89050840002A03DA820080184008F7
:101710000840800D01280A9002DD0020C0430A9095
:10172000089807430DD0F048F0492818484307149B
:10173000189800281DD07542291E1DDD0A984242C6
:101740001BE01898012802D00020302104E000207E
:10175000F24305E02154401CB042FBDB304600223E
:10176000189B002121540F998B600A60486013B0C8
:10177000F0BDBD1B6D1CDFE70A9A002900DA694243
:101780000BA800F037FB0BAB07CB03AB07C30899E3
:10179000099800F09BFB6B4607C30146D448091823
:1017A000002D00910BDDD24903980A9A4942401856
:1017B000002303A90390684600F0F8FD08E00399B0
:1017C0000A9A0023081803A90390684600F098FDC0
:1017D0006B4607C30004000C03D00020C04341083F
:1017E00000E01046189A002A03D000220092154605
:1017F0001EE0751E05D400F07BFA303262556D1E76
:10180000F9D501220843079602D000227F1C04E08C
:101810002078302801D100227F1E002A069787D029
:101820001EE0112D07DA00F063FA303262556D1CAC
:1018300002460A43F5D1084303D00098002819D086
:101840000EE00021681E05E0235C625C63542254B4
:10185000401E491C8142F7DBA81B401E07950690DD
:10186000079A18990020A0540F98079B069A816048
:101870000CC07CE711260020189059E7D21DF0B566
:101880000D460446D10893B0C90003C90C900D91D0
:101890000CF04EFC02460D98C00F01D02D2007E041
:1018A0002068810701D52B2002E04007C00F4001CE
:1018B000032A0F9001D0072A05DB0346294620465C
:1018C00000F054FA0EE12078800601D5E76900E0C7
:1018D00006272846652D04D0662814D0672D69D1C7
:1018E0002DE00020112F009001DB112300E07B1C74
:1018F0000CAA03A910A8FFF7F3FE1199002610986F
:101900007D1C0E9142E001203B460CAAC0070B90C3
:101910000120009003A910A8FFF7E2FE119D129884
:101920001099002600280E9501D1781C0D18781BFF
:1019300002D446427D1C761EE81B00903AE0012F3F
:1019400000DA01270020112F009001DD112300E0B3
:101950003B460CAA03A910A8FFF7C2FE11993D4609
:10196000109800260E91217809070BD40E99A942F0
:1019700000DA0D4603A9012D04DD4A19203AD27F71
:10198000302A06D0B84201DA011D04DA01210091A3
:101990000FE06D1EEFE7002802DC86192D1A03E028
:1019A000411CA94200DD0D46801B401C0090012017
:1019B000C0070B902078000705D40098A84202DBEE
:1019C0000020C043009069460020C8720B98012196
:1019D00002AF0337C907884225D0022010902B2080
:1019E00011900B9800280BDA40420B902D2011909B
:1019F00006E00B9800F0B5F830317F1E0B9039707F
:101A00001099481E00291090F3DC0B980028F0D1A3
:101A100011987F1E38702088000501D5452000E010
:101A200065207F1E387001A8C01BC01D0B900F9849
:101A3000002800D0012041190098C01709180B9800
:101A40000818A169081A401EA0612078C00602D4B7
:101A50002046FEF70DFC0F98002805D06268A168AB
:101A60009047206A401C20622078C00625D5204679
:101A7000FEF7FEFB21E0002E07DB0E98B04204DDEE
:101A800003A86268805DA16802E06268A1683020F6
:101A90009047206A761C401C20620098401E002857
:101AA00000900AD100F01CF9C06862680168405CCF
:101AB000A1689047206A401C206228466D1E0028BD
:101AC000D9DC07E062683878A1687F1C9047206AFB
:101AD000401C20620B99481E00290B90F2DC204626
:101AE000FEF7DCFB032042E601FCFFFF104D000087
:101AF000E1DFFFFF01694A1C02610878704700B509
:101B00008FB0029100210591054901937944039119
:101B1000114604906846FEF75DFC0FB000BD000062
:101B2000E5FFFFFF0CC908399A4202D2531C0B6033
:101B30001070704710B54369002B02D0C046C046F4
:101B400001E0FEF7BCFB012010BD127801462431F4
:101B50000A7000224A700122ECE711680022D24389
:101B6000E8E701468008081A02091018020A10184E
:101B7000020C1018C008820012185200891A01E0E5
:101B8000401C0A390A29FBD270470000C10D10B56C
:101B90000906090E2ED0FF2931D07E292DD319D068
:101BA000962916D2024675398A4005D0002402468D
:101BB0008A4003D3012302E00124F8E70023022234
:101BC000CA41511E8843002B03D08018002C00D03E
:101BD000904310BD0121420201D1012200E0002208
:101BE000C00FC0070029F4D0002AF2D17F21C90517
:101BF000084310BDC00FC00710BD0021EFE7410230
:101C0000FAD0014810BD00000000C07F10B5FF22CF
:101C1000C30D134009D05A4007D0914205DA5C4207
:101C2000A14202DDC905081810BDC40FE407002B4E
:101C300006D0002A06D0002902DBFF20C00504439D
:101C4000204610BD4102FCD0004810BD0000C07FFE
:101C500030B5C30D1906214A090E31D0FF292FD006
:101C600000283ADB01025002014301207D33C340CA
:101C700000D24908012080071724091A24064908C0
:101C800082102343FF252D064C00211A04D4891A03
:101C900002D45400201800E0214652085B19F3D505
:101CA0001A220446944007D382068A4203D1802137
:101CB0008030884300E08030C009D905081830BD65
:101CC000FF2904D04100FAD0C00FC00730BD410247
:101CD00001D0104630BD0028FCDAFAE70000C07FD2
:101CE0000048704748002020004870472800202006
:101CF0000B4670B5024689078008084319469D08BF
:101D0000141AA94125090807054308092C19484157
:101D1000250A01060D43010A2C194141200C0D042E
:101D200028430D0C00194D41002140194D41C008B8
:101D300069070843E908840F8D00254384002418AF
:101D40004D4124196D41121BAB4107E00925ED43BC
:101D50002C11521963410024401C61411C460A2584
:101D60000026551BB441F1D270BD0000F8B51F46E6
:101D7000044601230068DB02032601461840072AB7
:101D800005DB002801D017A506E017A504E0002810
:101D900001D016A500E016A5102081432160A0699E
:101DA000C01E002FA06101D0401EA0612046FEF79A
:101DB0005FFA002F09D038466268A1689047206A10
:101DC000401C2062C01C206206E0206AFAE76268BC
:101DD0002878A1686D1C9047761EF8D22046FEF741
:101DE0005DFAF8BD4E414E006E616E00494E4600F0
:101DF000696E6600F7B516468AB0334878446C467B
:101E000003467C33C06F5A689B680DC42E487844E3
:101E1000763003AC0DC80DC43720C0010818372137
:101E20001B30FEF763FC05460C46803D1B3C02D58B
:101E30006442012000E000200027099010E0E00744
:101E40000CD00C2020497843794432464C39411853
:101E50006846012300F054FA6B4607C364107F1CE8
:101E6000002CECD1184F7F442E3F16E0E80712D02B
:101E70002001C0190EC80691089307920068F0422D
:101E800001D1981908903246012306A903A800F051
:101E900037FA03AB07C36D10641C002DE6D1099817
:101EA000002806D032466946012303A800F07EFAD6
:101EB00005E001233246694603A800F021FA0A9B97
:101EC00007C30DB0F0BD000010D100000346400074
:101ED0000A4610B5400D0BD00121C9070F24A402FA
:101EE00000191C0364082143540D2143D20207E06A
:101EF00000210120F2E7D40F490021435200401E87
:101F00000029F8DADB0FDB07184310BDFFB50D46DB
:101F1000144685B0486851680CF0F2F800910190C1
:101F2000A868A1680CF0ECF802910390A8686168B9
:101F30000CF0E6F8029A12188242029201D20120B5
:101F400000E00020019A0B18D2180028019202D05C
:101F50008A4202D903E08A4201D2012000E0002037
:101F60000099081800906868A1680CF0C9F8029AF6
:101F700012188242029201D2012000E00020019A50
:101F80000B18D2180028019202D08A4202D903E02D
:101F90008A4201D2012000E0002000990818009038
:101FA0002868216840004900400849084018FA495B
:101FB000471814E001994000C90F084300900198A8
:101FC00002994000C90F084301900298039940000C
:101FD000C90F08430290039840007F1E03900098A9
:101FE0000028E7DA0898002801D0EC4E00E000262F
:101FF000B74201DA012000E00020002804902AD036
:10200000F71BF806C00E15D0029B2021091A039A6F
:102010008B401A430392029A019BC2408B401A43A1
:102020000292019A009BC2408B4000991A43019290
:10203000C14000917B110DD06F460320C11A03D51A
:1020400000218200B95003E08A008100BA587A501A
:10205000401EF3D5374603980299002800D001208E
:10206000014308980291002808460CD0002800D0AF
:1020700001200199019A490508430121D20AC902A8
:10208000D202019200E001210E9B0122D207012B16
:1020900002D0002B03D013E0002807D120E09042AB
:1020A00004D890420CD1019B0B4209D0019B5918D6
:1020B000019105D10099491C009101D17F1C00922A
:1020C00000280DD0102108460020C04604980028A2
:1020D00006D00F98002803D0082108460020C046EB
:1020E00028682168019B009A4840C10F0598C907DC
:1020F00039430EC009B0F0BDFFB587B0099A089802
:10210000089953689268406889689646002203934C
:1021100017469446089A12685300099A5B08126899
:10212000520052089A1A9E4BD4180A9A002A01D0DB
:10213000352200E040220692002201231546049237
:10214000DB07059324E0002D05D175460346039E69
:102150004D1BB34109D375466646039B491B049D3D
:102160009841059B7519AC465F4163463B4308D0D7
:10217000059B049EDD0776082E435B0804960593B5
:1021800001E0521E641EC50FED0749184041521C64
:10219000069B9A42D7DB002D04D17546039A6B1A31
:1021A000824101D203200CE0039A0B466B4042406F
:1021B000134303D0014303D0012002E0022000E0DA
:1021C0000020614601910021009702910A9900299F
:1021D00005D0614640020143704B019102E0800747
:1021E000002302909C4201DA012000E00020070059
:1021F0003AD01A1BD006C00E15D0029D2021019C9A
:10220000091AC5408C402543029C8C4000D0012413
:102210002543019C0295009DC4408D4000992C43AC
:102220000194C140009154111DD06D46022100223D
:1022300002290CD10320001B07E0002804DB8600E4
:10224000AE59002E00D00122401C0328F5DB081BEC
:1022500002D588002A5004E08000285810438A00E4
:10226000A850491EE3D51C460A98002802980CD0B5
:10227000002800D001200199019A49050843012155
:10228000D20AC902D202019200E00121109B012270
:10229000D207012B02D0002B03D013E0002807D176
:1022A0001FE0904204D890420CD1019B0B4209D010
:1022B000019B5918019105D10099491C009101D148
:1022C000641C009200280CD0102108460020C04653
:1022D000002F06D01198002803D0082108460020BE
:1022E000C04608980999019A009B0068096848400F
:1022F000C10F0798C907214382600AC00BB0F0BD27
:1023000000B585B0019300920A460146002302A859
:10231000FFF7FCFD02A807C805B000BDFFB50A46DF
:102320001F4685B00799019301230091014602A839
:10233000FFF7ECFD02990398049ECA0F4900D207EB
:1023400000920F22490892028C1A0021002800DB1B
:102350000C46450013486D08844214D3079A002A9E
:1023600004DA441E0026104DF64302E004460D46F2
:102370000E46102108460020C046002F03D004213D
:1023800008460020C0462005E90A08430099084392
:102390006905F20A1143ADE602C0FFFF013C0000EF
:1023A000FF3F0000FF070000FFFFFF7F00B585B083
:1023B000019300920A460146002302A8FFF79CFE03
:1023C00002A807C8A8E7FFB50A461F4685B00799C7
:1023D000019301230091014602A8FFF78DFE0299A7
:1023E0000398049ECA0F4900D20700920F224908A1
:1023F00092028C1A0021002800DB0C46450011488F
:102400006D08844214D3079A002A04DA441E002679
:102410000D4DF64302E004460D460E4610210846D7
:102420000020C046002F03D0042108460020C046EB
:102430002005E90A0843009908436905F20A114397
:1024400058E60000FF070000FFFFFF7FF8B5264CAD
:102450004E00069DA6420AD8A64201D1002806D108
:102460005E00A64203D8A6420AD1002A08D00D2455
:102470002404254233D02946002000F0EDF8F8BDB1
:102480000C461C4311D4994207D0C81A02D3EFF36B
:102490000080F8BDEFF30080F8BD801A02D3EFF39F
:1024A0000080F8BDEFF30080F8BD09242407E500A3
:1024B0008B4207D0581A02D3EFF3008006E0EFF307
:1024C000008007E0101A03D3EFF30080A04303E07D
:1024D000EFF30080A043284380F30088F8BD009507
:1024E00000F0D2F8F8BD00000000E0FF10B5FF23B7
:1024F0001B0644009C421DD84C009C421AD803463F
:10250000124A0B4307D4401A02D3EFF3008010BDE8
:10251000EFF3008010BD081A03D3EFF3008090435F
:1025200005E0EFF3008001219043C907084380F3E1
:10253000008810BD0D231B041A4204D01146002050
:1025400000F08AF810BD00F0A9F810BD000000905E
:1025500000487047280020207546FFF7F9FFAE4677
:10256000050069465346C008C000854618B020B52E
:10257000FDF74EFE60BCB64600260027C0C5C0C5AC
:10258000C0C5C0C5C0C5C0C5C0C5C0C5403D49085F
:1025900049008D46704710B50446C046C0462046E7
:1025A000FDF70CFE10BD000082078B079A423FD159
:1025B00070B5920F0AD0032402780B78401C491C96
:1025C000002A33D09A4231D12042F5D1214EF40174
:1025D00004C808C9951B9543254018D19A420FD1CC
:1025E00004C808C9951B9543254010D19A4207D1CC
:1025F00004C808C9951B9543254008D19A42E7D0E5
:1026000012BA1BBA01209A4200D2404270BD12BADF
:102610001BBA2DBA18241000E0401900E140401AFE
:1026200005D12E00E64002D1083CF4D1D01A70BD8D
:1026300002780B78401C491C002A09D09A4207D125
:1026400002780B78401C491C002A01D09A42EFD036
:10265000D01A704701010101C80212D54803400F8A
:10266000002804D0C803C043012188407047EFF31D
:1026700000800001000903210907084380F3008856
:10268000704700207047000010B500200249029AF0
:1026900000F00CF810BD00000000F87F10B50248F3
:1026A00000F004F810BD00000000C07F10B50C461B
:1026B0001107090F092904D00A290AD008290CD1C9
:1026C00004E011460820FFF7C7FF06E0510606D5D3
:1026D00001E0510601D50120C007214610BDD106F9
:1026E00007D501010909CC084907000E000604437B
:1026F00009E0410F20024907000A0143200E0006AD
:102700001D22D14101430846E7E700000149182096
:10271000ABBEFEE72600020070470000F0B5B7B080
:102720000C930346002736973597349733973297A3
:10273000319730972F972E972D972C972B972A9775
:1027400029970220002900D191E0002B00D18EE0D2
:10275000089309919221FB4B0791595C002900D104
:1027600085E00F923C980E90912006901C46185CD4
:102770000A904B2006010D9606E00125284601F03F
:10278000DDFF7F1CBE425DD0902025461090205C6E
:10279000C00702D0EC4800F061FE1098285C80076A
:1027A0000F9E02D5E94801F0B9FEC82F3DD310981D
:1027B000285CC0071CD01AA802F00EFF17A802F070
:1027C000FBFE4920E04A105C4821565C06431C98F9
:1027D0000B901B9A1A991798189D199C00900195B7
:1027E000F64D029403960F9E30A80B9B09F0AAF8B1
:1027F0001098285C800718D514A802F031FF11A8A2
:1028000002F01AFF3420D14A105C3321545C044397
:1028100014AB0ECB11AE61CE00900195E74D029640
:102820000F9E039429A809F08DF8002E01D00C9872
:10283000B0472C460E9A002A0D9E9ED0384631464F
:1028400090479AE70F950E9A002A02D030463146FB
:10285000904725461098205CC0070AD00C200A99A2
:1028600048432A1830A809F02BF9002801D037B0C6
:10287000F0BD1098285C800709D50C200A994843C0
:102880002A18483229A809F01BF90028EFD1069927
:10289000685C401C6854C0B2062802D2002037B0E1
:1028A000F0BD23A808991CC91CC01CC91CC01DA8C8
:1028B00009991CC91CC01CC91CC01098295CC807F8
:1028C00010D1880700D599E023A8089C0EC80EC433
:1028D0000EC80EC41DA8099C0EC80EC40EC80EC496
:1028E0000120C6E005912F68ED68384629460CF0B6
:1028F00011FA0646002421460BF039FD0146062058
:10290000002900D0B4E00690384629460CF004F9BE
:102910003F2109060A910CF099F902460F98C10768
:102920000C928A438A4910460BF016FD05468948E9
:102930003146FEF755FD064687490BF00DFD07466B
:102940002F43864930460BF01FFD384300D08EE000
:102950000D969A4E28361DA8109023A80E900C9D17
:102960000BE00C994C1C0E99091D0E911099091D34
:1029700010911C36002800D080E010980D9901605D
:102980000E9805600C94022C78D0304634680C38D0
:102990000568284621460CF0BDF9074600210BF0DA
:1029A000E6FC00286AD16B483946FEF719FD074658
:1029B00069490BF0D1FC411E88410B900D973846B8
:1029C00066490BF0E1FC0746401E87412846214638
:1029D0000CF0A2F80A990CF039F905460120C1075C
:1029E000284688435A490BF0B7FC00280F9800D1BD
:1029F000384600280F98B4D10B98B2E7AE6C6F6DD3
:102A0000304639460CF086F90446002529460BF07D
:102A1000AEFC01461DA80E9023A8109006200029A8
:102A200026D10690304639460CF076F83F2109064B
:102A30000A910CF00BF9074601200C90C1073846AB
:102A4000884343490BF088FC0F9042482146FEF72B
:102A5000C7FC064640490BF07FFC04460F98044330
:102A60003E490D9630460BF08FFC20430DD0069862
:102A7000524D0021079AA95437B0F0BD0C98022896
:102A800006984E4D0599F4D31BE70E9E0C36109810
:102A90000C301090494870300F900BE00B994D1C92
:102AA0001099091D10910E9E361D0F991C310F9122
:102AB000002840D10D983060109807600B95022DCA
:102AC00039D00F9805680C380768384629460CF04D
:102AD00021F9044600210BF04AFC00282BD10E9668
:102AE0001C482146FEF77CFC06461B490BF034FCD3
:102AF0000446401E84410D96304618490BF044FCB4
:102B00000646401E8641384629460CF005F80A99CB
:102B10000CF09CF807460120C107384688430C4951
:102B20000BF01AFC00280C9800D1304600280C98B5
:102B3000B4D12046B2E70B98022806981F4D98D3CF
:102B4000C2E6C04608022020F000202074012020A8
:102B5000000040400AE89C419A99993FCDCC4C3FF7
:102B600091201649085C704792201449085C704710
:102B70009220124900220A5490200A527047C046FF
:102B8000B0B50321014016D000200C4A0B23DC43D2
:102B9000151900236B65EB60241DF9D10C32401C24
:102BA0000628F3D19222054C0120A0549122A3546F
:102BB0009022A154B0BD0020B0BDC0460802202024
:102BC000F0B58BB00190EF48002101604160816059
:102BD000C160016141618161EB4801644164403041
:102BE0000291018103200890C003E8490860E84C85
:102BF0002068EFF30581002903D0E64801F056FE76
:102C000020E02168091A01291CD80022014606E0AB
:102C10002168002230BF23681B1A022B12D22368BE
:102C20008B42F5D1DC4B9A4202D8521CD84CF1E7CA
:102C3000D7490968081A022804D20221081AD7497C
:102C40004843DBE701260298049606E001F02EFED9
:102C50000398401C032800D11CE30390C949029843
:102C600088604880FF2205920A7008F0F7FDC84C82
:102C70002068EFF30581002903D0C84801F016FE53
:102C800018E02168814215D10022014605E0216843
:102C9000002230BF236883420CD123688B42F6D1D7
:102CA000BD4B9A4202D8521CB94CF2E7B8490968A8
:102CB0008142E2D00025284608F0D0FDB14B197EB4
:102CC000091A4A424A41997E0029334600D01346E8
:102CD000002B03D1AB4BDA7C521CDA74421CD2B20B
:102CE000022A03D312221E2803D003E011221E2839
:102CF00000D11022A34CA35C5B1CA3542076A070CF
:102D0000491CA1761E284CD0A14B1868EFF3058111
:102D10000029049C03D0A14801F0C8FD15E0196802
:102D2000814212D1014605E01968002530BF1A68BA
:102D300082420AD11A688A42F6D1974A954201D84E
:102D40006D1CF3E719688142E5D0002008F086FD8C
:102D50008C4B197E091A4A424A41997E0029234622
:102D600000D01346002B03D1864BDA7C521CDA7458
:102D7000421CD2B2022A03D312221E2803D003E03F
:102D800011221E2800D110227E4CA35C5B1CA35490
:102D90002076A070491CA1761E280598069000D0C8
:102DA000C7E07E20B62108F09FFD794D2968EFF33A
:102DB000058000287A48049E02D001F077FD20E0CB
:102DC0002868401A4F281CD80022084606E02868C8
:102DD000002230BF2B685B1A502B12D22B68834223
:102DE000F5D16D4B9A4202D8521C694DF1E7684DFE
:102DF0002868401A4F2804D85021081A67494843C8
:102E0000DBE70024204608F029FD2868EFF3058160
:102E1000002903D0614801F049FD15E0296881428D
:102E200012D1014605E02968002430BF2A68824299
:102E30000AD12A688A42F6D1574A944201D8641CC2
:102E4000F3E729688142E5D00025284608F006FD11
:102E50004C4B197E091A4A424A41997E0029334651
:102E600000D01346002B03D1464BDA7C521CDA7497
:102E7000421CD2B2022A03D312221E2803D003E03E
:102E800011221E2800D110223E4CA35C5B1CA354CF
:102E90002076E070491CA1761E280598069048D13E
:102EA000069502E06D1C062D43D0089868433D4905
:102EB0000E5C0818079044783046214608F014FD4F
:102EC000334F3868EFF30581002903D0334801F010
:102ED000EDFC18E03968814215D10022014605E079
:102EE0003968002230BF3B6883420CD13B688B427B
:102EF000F6D1294B9A4202D8521C254FF2E72449B9
:102F000009688142E2D0304608F0A8FCA042C9D04E
:102F10000121A9401B4BDA7A0A43DA72069900298B
:102F2000C0D1184988724C720E720798807806904A
:102F3000B8E700241348C46084800599417006995D
:102F40000170204609F088FA114B1868EFF30581EB
:102F50000029049E03D0114801F0A8FC27E019685D
:102F6000814224D1014605E01968002430BF1A6867
:102F700082421CD11A688A42F6D1074A944213D879
:102F8000641CF3E73C012020F000202090120A404E
:102F900074072020007102001F4E000080380100DD
:102FA00000A86100C8EF000019688142D3D0002555
:102FB000284609F051FAFA4B597E091A4A424A4109
:102FC000D97E0029334600D01346002B03D1F84B9D
:102FD000DA7D521CDA75421CD2B2022A03D31622C1
:102FE0000F2803D003E015220F2800D11422F04C43
:102FF000A35C5B1CA35460762071491CE1760F280A
:1030000049D0EC4B1868EFF30581002903D0EA485A
:1030100001F04CFC15E01968814212D1014605E02F
:103020001968002530BF1A6882420AD11A688A429C
:10303000F6D1FC4A954201D86D1CF3E7196881422C
:10304000E5D0002009F008FAF34B597E091A4A42EC
:103050004A41D97E0029334600D01346002B03D1C4
:10306000ED4BDA7D521CDA75421CD2B2022A03D330
:1030700016220F2803D003E015220F2800D11422B6
:10308000E54CA35C5B1CA35460762071491CE1767F
:103090000F2800D0C5E01425B621284609F006FA0D
:1030A000DF4E3168EFF305800028E04802D001F0E0
:1030B000FDFB20E03068401A4F281CD8002208464B
:1030C00006E03068002230BF33685B1A502B12D202
:1030D00033688342F5D1D34B9A4202D8521CD04E6A
:1030E000F1E7CF4E3068401A4F2804D85021081A13
:1030F000CD494843DBE70024204609F0ADF93068AC
:10310000EFF30581002903D0C74801F0CFFB15E09C
:103110003168814212D1014605E03168002430BF98
:10312000326882420AD132688A42F6D1BD4A94425C
:1031300001D8641CF3E731688142E5D000263046AF
:1031400009F08AF9B44B597E091A4A424A41D97E9C
:103150000029049B00D01346002B03D1AE4BDA7D2F
:10316000521CDA75421CD2B2022A03D316220F284F
:1031700003D103E015220F2800D01546A64B5A5D57
:10318000521C5A5558765871491CD9760F2848D187
:10319000059602E0761C062E45D008987043A44997
:1031A0000D5C0818079044782846214609F07EF9FE
:1031B0009B4F3868EFF30581002903D09A4801F04E
:1031C00075FB18E03968814215D10022014605E0FF
:1031D0003968002230BF3B6883420CD13B688B4288
:1031E000F6D1904B9A4202D8521C8D4FF2E78C498F
:1031F00009688142E2D0284609F02EF9A042C9D0E0
:103200000121B140844BDA7B0A43DA730599002926
:10321000C0D1814988734C730D73079880780590ED
:10322000B8E7FF2005907C4805994170069808434F
:103230002CD07B4C2168EFF3058000287D48049E4C
:1032400000D003E52068401A092800D900E50022D3
:10325000084607E02068002230BF23685B1A0A2B6B
:1032600000D3F5E423688342F4D16E4B9A4202D82E
:10327000521C6B4CF0E76A480068401A092800D9D4
:10328000E6E40A21081A68494843DFE40020069072
:10329000049A06E00598424242410699481E81413F
:1032A0000691F249088BC880002A02D10698801C3A
:1032B00006900198002800D180E0069800287DD172
:1032C00000F0F6F9002800D08BE000205C4B5D4C4C
:1032D0005D4D5E4E5E4F514A176256629562D462F2
:1032E00013635649516390635349D16359499161BE
:1032F000594F064605900790089005E04A4801F0AE
:10330000D5FA681CBD426FD2054609AC204609F0CB
:1033100073F820780F2827D1022009AC205EFEF731
:1033200071F904963E46AE4F39460BF08FFC059975
:103330000BF0F2FB05900420205EFEF763F939469E
:103340000BF084FC08990BF0E7FB08900620205E48
:10335000FEF758F939463746049E0BF077FC07997B
:103360000BF0DAFB0790761C2D4C2068EFF30581FB
:103370000029C3D121688142C3D10022014605E062
:103380002168002230BF23688342BAD123688B4270
:10339000F6D1244B9A4205D8521C214CF2E7C04684
:1033A0003C0120201E4909688142AAD1A6E7C046F7
:1033B0003C01202074072020803801000022204B8F
:1033C000204C214D214E224F14490F624E628D62D6
:1033D000CC620B63194848638A631748C8631D4869
:1033E000886106980BB0F0BD3004FAD0B0B2FEF799
:1033F00011F9044607982146FDF7F2FF074DE862F0
:1034000008982146FDF7ECFFA86205982146FDF7D4
:10341000E7FF6862E5E7C0463C012020F00020207D
:10342000740720201F4E00008038010000A86100B2
:10343000F850010000350C007A841D412A98933D14
:103440000B6F993EB1EFBBBAB9F3AFBAF0A032BA85
:103450000F187F3F00002042E7030000F0B587B05F
:103460000446122005AE06223146029208F0B4F955
:103470003078717809020818039000B2FEF7C2F89C
:10348000544F39460BF0E2FB256A29460BF0DEFB70
:10349000216B0BF03FFC2060B078F178090208182E
:1034A000049000B2FEF7AEF839460BF0CFFB294688
:1034B0000BF0CCFB616B0BF02DFC60603079717907
:1034C00009020F1838B2FEF79DF842490BF0BEFB17
:1034D00029460BF0BBFBA16B0BF01CFCA060304637
:1034E00008F08AFF3C490498401882B23B4D012302
:1034F0000020AA4204931A4600D302467B189BB2CE
:10350000AB42049B1D4600D305461543039A511850
:1035100089B2324A9142194600D301460D432746EB
:10352000483731780F2946D18320000201900220CC
:1035300005AE305E0390FEF765F829490BF086FB77
:10354000616A0BF0E7FBE0600420305E0090FEF75C
:1035500059F823490BF07AFBA16A0BF0DBFB2061E1
:103560000298365E3046FEF74DF81D490BF06EFBB3
:10357000E16A0BF0CFFB606101980146009A1018D8
:1035800082B2012000230293144B9A42034600D3D7
:10359000029B721892B2114EB242049A00D31A469C
:1035A000039B5B189BB2B34200D30298002A049994
:1035B00000D1014608467D703870002802D0206C8A
:1035C000401C2064002D02D0606C401C606407B079
:1035D000F0BDC0463333EB3A0083FFFF0106000025
:1035E00058A08B3A10B5002008F038F91F498A7EA0
:1035F000002A05D00B7E834202D0CB7C5B1CCB74AF
:10360000431CDBB2022B03D312231E2803D003E09A
:1036100011231E2800D11023CC5C641CCC540876E6
:103620008871521C8A7610BD10B5002008F014FF76
:103630000E49CA7E002A05D04B7E834202D0CB7D44
:103640005B1CCB75431CDBB2022B03D316230F2864
:1036500003D003E015230F2800D11423CC5C641C95
:10366000CC544876C871521CCA7610BD3C0120204B
:10367000F0B581B014460D46064622206F46022260
:10368000394608F0A9F8797848093A78D30018182B
:103690009B0A02D01F23DB02C018002E00D032701C
:1036A000002D00D02970002C00D0208001B0F0BD8A
:1036B000F0B59DB00020012103910090019002908F
:1036C00001991A91199118911791169115911491C8
:1036D00013911291119110910F91084606910E4687
:1036E000049110E0C04D2868EFF30581002900D156
:1036F0009DE0079EBE4801F0D9F8089A501CBD49CC
:103700008A4200D3F5E00796089012201BAF0622EC
:103710003946059208F060F8387879780902081877
:1037200000B2FDF76FFFAF4D29460BF08FFA04464C
:103730000C90B878F9780902081800B2FDF762FF1A
:1037400029460BF083FA06460D90387979790902FB
:10375000081800B2FDF756FF29460BF077FA054628
:103760000E90384608F048FE38780F28BAD102206B
:103770001BAF385EFDF746FF9C490BF067FA0990D6
:103780000420385EFDF73EFF98490BF05FFA0A907F
:103790000598385EFDF736FF94490BF057FA0B9009
:1037A000304631460BF052FA0646204621460BF0D1
:1037B0004DFA31460BF0B0F90446284629460BF085
:1037C00045FA21460BF0A8F90BF048F90746069890
:1037D000000443D00025079E02E02D1D0C2D14D0BF
:1037E00009A8445912A8415920460AF0AAFD002808
:1037F00001D112A844510FA8415920460AF0B7FD43
:103800000028EAD10FA84451E7E7384631460AF0CC
:10381000A3FD0446384604990AF0B6FD002C3C4648
:1038200000D13446002800D1049F002521E02968FA
:1038300081426B4C079E00D05FE70022014606E004
:103840002968002230BF2B68834200D055E72B68DF
:103850008B42F5D1A24240D8521CF3E70B9814904A
:103860000A991391099A12920F92109111900025C2
:103870003C460CA8405918AE71590BF04DF97051E7
:1038800009A8405915AE71590BF046F970512D1D1C
:103890000C2DEED1544E30680699491C0691EFF379
:1038A0000581002902D00497264623E7316881422A
:1038B0004B4D0FD10022014605E03168002230BF98
:1038C0003368834206D133688B42F6D1AA4209D8C5
:1038D000521CF4E7049726460FE72968814200D17D
:1038E00008E70AE7316881420497264600D101E7DC
:1038F00003E7304604990BF00DFA3F490AF02CFD1E
:10390000411E884106998FB2F9084B29039900D3CB
:103910000146002912D10F9812990BF0FBF9374C90
:1039200021460AF019FD002808D1109813990BF0D0
:10393000F1F921460AF010FD002808D0039D002D62
:1039400049D00299481C0229029044D2B8E6119845
:1039500014990BF0DFF921460AF0FEFC0028039DC4
:10396000EDD1049831460BF0D7F83F2109060BF052
:103970006DF9044622490BF0CFF801210091C907E7
:103980008843FF2189050AF0E7FC00281D4900D182
:1039900021461D4CE1631B48FDF722FD206238469D
:1039A000FDF738FE04460B20C6431748871900254B
:1039B000FD6315A88019C0682146FDF711FD386325
:1039C000361DF2D1124810490863104848638D63D0
:1039D00010488861B3E70098C0B21DB0F0BDC04682
:1039E0001F4E00003333EB3A7407202058A08B3A67
:1039F00080380100AF040000CDCC4C3FEC51383E84
:103A00000AE81CC10AE81C41F00020202A98933DD6
:103A10000B6F993E00002042F0B585B0EF480027BB
:103A20008761C76107628762C7620763EC490F60FD
:103A30004F608F60CF600F614F6128300773F94886
:103A400040210160F84D2868EFF30581002903D07B
:103A5000F64800F02BFF1EE02968091A02291AD83F
:103A60000022F349034606E02B68002230BF2C6891
:103A7000241A032C0FD22C689C42F5D18A4201D81B
:103A8000521CF3E72968091A022904D8032041408F
:103A9000E8484843DDE709F079FB03903024DF482C
:103AA000005DDF49087004A9B62008707E2001225D
:103AB00002920AF0EDF92968DF4AEFF30580002849
:103AC0000192104602D000F0F1FE22E02868401A70
:103AD00031281ED80022D6480B4608E03368002261
:103AE00030BFD14D2D686D1A322DCF4D11D22E46DB
:103AF0002D689D42F2D1824201D8521CF0E7CA4D96
:103B00002868401A312804D83221091AC948484384
:103B1000D9E709F03BFBC149095DC14CE173617014
:103B2000002825D02078401A421E9041039A024274
:103B300021D1272939D026294FD1012525730020ED
:103B4000039008F06FFBBD480AF05AF804A90D7005
:103B500059202A46B44D0AF09BF92868B44FB54E57
:103B6000EFF3058100294FD0B54800F09FFE95E0A6
:103B70000398002802D0102500F0BFFCA07C00288C
:103B800001D1029B00E01023E17C627C0A4304D057
:103B90001D46002806D000F0B0FC2025002801D0EA
:103BA00000F0ABFC1D4600F0A8FC0220207303903F
:103BB00008F038FBA3480AF023F804A901220A7090
:103BC00059200AF065F92868994EEFF3058100291C
:103BD0002FD0984800F06AFEDAE10020039008F048
:103BE00021FB99480AF00CF804A901260E7059200F
:103BF00032460AF04DF92F688E48EFF3058100290F
:103C00002DD000F053FE27E32968091A8B2945D8E7
:103C10000022014606E02968002230BF2B681B1AEB
:103C20008C2B3BD22B688B42F5D1BA422ED8521C3A
:103C3000F3E72968814200D0AAE10022014606E0AC
:103C40002968002230BF2B68834200D0A0E12B6896
:103C50008B42F5D1B24200D996E1521CF2E72968B5
:103C6000B94200D0F8E20022394606E02968002275
:103C700030BF2B68BB4200D0EEE22B688B42F5D1FF
:103C80006B4B9A4200D9E3E2521CF1E72968081A0B
:103C90008B2803D88C21081A704366E7592004A9A1
:103CA00001273A4609F03AFB04982071212004A923
:103CB0003A4609F033FB2546312604985749885582
:103CC0006071022404A920463A4609F027FB0498B3
:103CD000A871554D5148805D029004A926460C708C
:103CE0007C203A46524F0AF0D3F80F200299084040
:103CF000411E481E814102912868EFF30581002989
:103D000003D04C4800F0D2FD15E02968814212D161
:103D10000022014605E02968002230BF2B6883425B
:103D200009D12B688B42F6D1BA4201D8521CF4E774
:103D300029688142E5D004A9ED20087042200122C3
:103D40000AF0A6F82868EFF305810029344C03D067
:103D5000384800F0ABFD15E02968814212D10022FD
:103D6000014605E02968002230BF2B68834209D153
:103D70002B688B42F6D1BA4201D8521CF4E729686D
:103D80008142E5D0422004A901273A4609F0C6FA4B
:103D90000498A07204A90398087043203A46244F5F
:103DA0000AF076F82868EFF30581002903D021484E
:103DB00000F07CFD19E02968814216D100220146FD
:103DC00005E02968002230BF2B6883420DD12B68A3
:103DD0008B42F6D1BA4205D8521CF4E77401202078
:103DE000AC01202029688142E1D0432004A90127A9
:103DF0003A4609F093FA0498E07204A9A8200870E2
:103E000040203A460A4F0AF043F82868EFF305814C
:103E100000291BD0074800F049FD2DE07401202047
:103E2000AC01202090320A407407202080A90300B2
:103E30001F4E00008038010000093D00F4EF000033
:103E400000E6AA00F40F0100003001002968814259
:103E500012D10022014605E02968002230BF2B68FC
:103E6000834209D12B688B42F6D1BA4201D8521C49
:103E7000F4E729688142CDD0402004A901273A46C1
:103E800009F04CFA0498207204A90E7041203A46B9
:103E9000E94F09F0FDFF2868EFF30581002903D001
:103EA000E64800F003FD15E02968814212D10022A6
:103EB000014605E02968002230BF2B68834209D102
:103EC0002B688B42F6D1BA4201D8521CF4E729681C
:103ED0008142E5D0412004A90126324609F01EFAAC
:103EE0000498607204A90E270F707D20324609F0F5
:103EF000CFFF2E68EFF30581002903D0D04800F0F2
:103F0000D5FC1EE02968891B6329CC4819D83146A5
:103F1000039A06E02968002230BF2B689B1B642BA4
:103F20000FD22B688B42F5D1C34B9A4201D8521C59
:103F3000F2E729688A1B632A03D86421891A484357
:103F4000DDE7029845007D2004A90126324609F0EC
:103F5000E5F90498E0711B2004A9324609F0DEF966
:103F6000039860730498A073E07938400E2800D05D
:103F70002D1D607A03210140022900D0BAE2E07AC7
:103F8000400700D0B6E2B6E22968814200D120E6BF
:103F9000592004A90126324609F0C0F9049820717D
:103FA00009F08EFE212004A93246029609F0B6F9E6
:103FB000224631240498A3490855507104A9039D51
:103FC0002846324609F0AAF904989F4988719D480D
:103FD000045D994E04A90D707C20029A9B4D09F056
:103FE00057FF0F202040411E481E81410291286842
:103FF000EFF30581002903D0904800F057FC15E04D
:104000002968814212D10022014605E02968002278
:1040100030BF2B68834209D12B688B42F6D1B24264
:1040200001D8521CF4E729688142E5D004A9A920EF
:1040300008704020012209F02BFF2868EFF305816A
:104040000029814C03D07D4800F030FC15E0296840
:10405000814212D10022014605E02968002230BFCA
:104060002B68834209D12B688B42F6D1B24201D82A
:10407000521CF4E729688142E5D0402004A90125BB
:104080002A4609F04BF90498207204A90398087095
:1040900041202A466D4D09F0FBFE2868EFF30581AB
:1040A000002903D0654800F001FC15E02968814231
:1040B00012D10022014605E02968002230BF2B689A
:1040C000834209D12B688B42F6D1B24201D8521CEF
:1040D000F4E729688142E5D0412004A9012632464F
:1040E00009F01CF90498607204A9ED2008704220C0
:1040F0003246514E09F0CCFE2868EFF305810029C5
:1041000003D04E4800F0D2FB15E02968814212D15D
:104110000022014605E02968002230BF2B68834257
:1041200009D12B688B42F6D1B24201D8521CF4E778
:1041300029688142E5D0422004A90126324609F0CF
:10414000EDF80498A07204A90F7043203246F14E96
:1041500009F09EFE2868EFF30581002903D0EE48A0
:1041600000F0A4FB15E02968814212D1002201462B
:1041700005E02968002230BF2B68834209D12B68F3
:104180008B42F6D1B24201D8521CF4E72968814231
:10419000E5D0432004A90126324609F0BFF804986F
:1041A000E07204A90E20039008707D20324609F0C9
:1041B0006FFE2868EFF30581002903D0019800F015
:1041C00075FB1EE02968091A3129D24B19D801461E
:1041D00006E02968002730BF2A68121A322A10D256
:1041E0002A688A42F5D19F4201D87F1CF3E72968EB
:1041F000081A312805D83221081AC74941430191CC
:10420000DCE7029845007D2004A90124224609F03C
:1042100085F80498BD49C8711B2004A92246BB4CEF
:1042200009F07CF80498A073E079039908400E28FF
:1042300000D09DE69DE6C0461F4E0000803801007C
:1042400000127A0074012020AC0120207407202085
:104250002968B94200D1D4E4592004A9324609F0B2
:104260005DF80498207109F02BFD212004A9324645
:1042700009F054F8254631240498A34F3855687145
:10428000022004A90090324609F048F80498A87169
:104290009F4D3C5DA04F04A90E707C20324609F072
:1042A000F7FD0F202040411E481E814102912868E1
:1042B000EFF305810029974E03D0384600F0F6FA57
:1042C00015E02968814212D10022014605E02968E3
:1042D000002230BF2B68834209D12B688B42F6D174
:1042E000B24201D8521CF4E729688142E5D004A902
:1042F000A92008704020012209F0CAFD2868EFF3C8
:1043000005810029FC4C03D0384600F0CFFA15E0B7
:104310002968814212D10022014605E02968002265
:1043200030BF2B68834209D12B688B42F6D1B24251
:1043300001D8521CF4E729688142E5D0402004A945
:104340000126324608F0EAFF0498207204A900987A
:104350000870412032466F4E09F09AFD2868EFF34D
:104360000581002903D0384600F0A0FA15E029683D
:10437000814212D10022014605E02968002230BFA7
:104380002B68834209D12B688B42F6D1B24201D807
:10439000521CF4E729688142E5D0412004A9012696
:1043A000324608F0BBFF0498607204A9ED20087043
:1043B00042203246574E09F06BFD2868EFF3058125
:1043C000002903D0384600F071FA15E029688142CF
:1043D00012D10022014605E02968002230BF2B6877
:1043E000834209D12B688B42F6D1B24201D8521CCC
:1043F000F4E729688142E5D0422004A9012632462B
:1044000008F08CFF0498A07204A903980870432058
:104410003246404E09F03CFD2868EFF30581002943
:1044200003D0384600F042FA15E02968814212D1E3
:104430000022014605E02968002230BF2B68834234
:1044400009D12B688B42F6D1B24201D8521CF4E755
:1044500029688142E5D0432004A90126324608F0AC
:104460005DFF0498E07204A906270F707D20324694
:1044700009F00EFD2868EFF30581002903D00198AB
:1044800000F014FA1FE02968091A3129039B214C16
:1044900019D8014606E02968002330BF2A68121A9D
:1044A000322A10D22A688A42F5D1A34201D85B1C75
:1044B000F3E72968081A312805D83221081AA249D9
:1044C00041430191DBE7029845007D2004AC0122C5
:1044D000214608F023FF2078874AD0710740062F35
:1044E00000D02D1D507A03210140022902D1D07A3B
:1044F000400700D0083507F0B9FB32208E490D5433
:10450000284605B0F0BDC04674012020AC01202033
:10451000740720201F4E000080380100F0B589B0DC
:10452000044606AD0C202946024608F0F7FE28781E
:10453000697809020818059000B2FDF763F8494E42
:1045400031460AF083FB2060A878E9780902081850
:10455000049000B2FDF756F831460AF077FB606030
:104560002879697909020818039000B2FDF74AF822
:1045700031460AF06BFBA060A879E97909020818B6
:10458000029000B2FDF73EF8374E31460AF05EFB6E
:10459000A1690AF0BFFBE060287A697A09020F1866
:1045A00038B2FDF72FF831460AF050FBE1690AF006
:1045B000B1FB20612D4EB81981B22D4B0120002294
:1045C0009942014600D31146AF7AED7A2D02ED19DA
:1045D0000195AF19BFB29F42074600D317460F435C
:1045E0000299891989B29942014600D311460F43B5
:1045F000216A0291332167540499891989B2994239
:10460000014600D31146039E184D7619B6B29E425C
:10461000064600D316460E430599491989B29942B8
:1046200000D310460643204633304670019800B24E
:10463000FCF7E8FF0C490AF009FB02990AF06AFB53
:104640006061012F03D0002E06D109B0F0BDA06A31
:10465000401CA062002EF8D0E06A401CE06209B065
:10466000F0BDC0460AE81C3B58A08B3A0083FFFF10
:1046700001060000F0B581B000246E4601252046F9
:1046800031462A4608F04AFE30781B49C873034673
:10469000243BDEB2032E00D82546771E7A427A41AB
:1046A000042E03D2DB061B0E144CDC4015438A7D1E
:1046B000002A0FD04B7D834202D0CB7C5B1CCB7495
:1046C000002D0AD0431CDBB2012B0DD84B7C5B1CA8
:1046D0004B740CE00875002DF4D10B7C5B1C0B7443
:1046E000CB7D2343CB7502E08B7C5B1C8B744875C0
:1046F000521C8A7501B0F0BDAC01202001000204FB
:1047000010B582B0222001AC0222214608F006FE3C
:10471000207861780902081800B2FCF773FF3B218A
:1047200009060AF093FA03490AF0F6F902494862C9
:1047300002B010BD0000B8417401202080B50249CC
:10474000484300F0B3F880BD8038010010B50C4834
:1047500001690C4A11400161FF21090403688B4380
:104760000121CC051B190360036813400322920347
:104770009A1802600448022202604904016010BDD8
:1047800000E400E0FF00FFFF00E100E0EFF3108035
:1047900072B6704762B670477D2080017047000096
:1047A0000148006880B2704700988640344A126819
:1047B0009206920F04D0081A01D20449401870479B
:1047C000884201D2014A8018401A70471027000021
:1047D000014800687047C046740720200C480068F4
:1047E000022809D0012811D10B48016889030DD591
:1047F00010300121490406E00648052189030268BA
:104800000A4203D0103002680A4302607047C04673
:104810003011404038300A4038100A4006480268DB
:104820003F211140102902D3044A054B136000298F
:1048300000D081617047C04660000B4024030B40EC
:10484000010000CE014800787047C0463C0320209C
:1048500080B503F00FFC80BD114800BF401EFCD1A5
:10486000BFF34F8F0F4810490160BFF34F8F00BF58
:10487000FDE7C0460248016801220A430260704712
:1048800004988640064800BF401EFCD1BFF34F8FFE
:10489000044805490160BFF34F8F00BFFDE7C046E4
:1048A00000350C000CED00E00400FA05811E091F24
:1048B00000BFFCD270470000B0B5536894681C4339
:1048C00093892343146955691C43D3892B431B01E6
:1048D00023430C01041909256D02635113785278A2
:1048E0001A43BF231A4089004018804944589C430A
:1048F000A2184250B0BDC04680B502231343204ADF
:1049000083508218D16109F0F5FB80BDF0B585B008
:1049100014460D4604900120194601404A424A417E
:104920005E1E1946B141114000D00420012924D156
:1049300013480499081803901248081802900A981E
:1049400001909F1E049E30462946019A00F028F8E7
:10495000012003990860029A0B481060CD6120681D
:10496000D06060681061304609F0C4FB002F04D0AD
:10497000BF1E083508340128E5D105B0F0BDC0469A
:104980000411000024110000FF0100000021C943B0
:10499000024A81508018416081607047D011000048
:1049A000F0B583B002920D4601907F4C2068052639
:1049B000266007273840294B196820602268266046
:1049C0003A40186822600095AD0A89048A0F29468A
:1049D00009D023490840511C09F090FA01462846A5
:1049E000FBF776FE1D4B206826601A683840206071
:1049F000206826601A683840206001208202029BED
:104A0000934208D0420293420ED1164A009BDB0B20
:104A10000CD1121F03E01F210D40124A3C32019BB2
:104A2000A84099588143995003B0F0BDFF290BD895
:104A3000236826603B40094D2D682360AB049B0F23
:104A400000D12039CD08EAE70302FF339942EBD2C7
:104A5000FF23DB43C918CD08121DE0E71800C4414D
:104A6000FF0F0000D4110000B0B5112212028358CC
:104A70000C4C1C400B894D881D438B792B430A4DF0
:104A80001D4063198350CB798C881C4309782143DE
:104A90005D239B001940801842689A435118416079
:104AA000B0BDC04680CCFFFF7F3300000F494118E6
:104AB000034A80180A685207FCD40068C0B27047E5
:104AC0003011000010B50122120383180C785C60CD
:104AD0004978815010BD0000044A821845239B018B
:104AE000C01813689B07FCD50160704710110000C7
:104AF000F0B584B0012422022A4B19680392914335
:104B0000196049490D686D04FCD5457E25409E69B4
:104B1000A64374199C612024045D03252C40DE69A2
:104B2000AE433419DC61204C256805262660466AB0
:104B300037681F6276685E6207262E402660C46969
:104B40007F252D02DE69AE436406640C3419DC61F6
:104B50000768456882680092C668026901924269E6
:104B600002929A69114C14403A07120B2D03ADB210
:104B7000AA183243009D2D072D0D1543019A1543A8
:104B8000029A1543007E2843094A02401019986191
:104B90001868039A1043186008688005FCD504B0B3
:104BA000F0BDC04608010B40001340408D00F0FFEF
:104BB00072FF0F00F0B5124B1D46083D2E68012410
:104BC000A6432E600326360330401F68B7433818CB
:104BD00018601868FF26B043C9B2401818602868EA
:104BE0002043286018682107002A06D0084318606F
:104BF0000D480168C905FCD5F0BD88431860F0BDBB
:104C000010010B4007498860074802689202FCD5F2
:104C1000012212040B6813430B600168C906FCD51E
:104C20007047C04604010B4004020B40F0B583B04E
:104C30004A79002A29D01B4A1B4B1C4E0F7921248C
:104C40002401202F00D070348518C3188219002F3A
:104C500000D188241668474F3E40361916605668C2
:104C60003E40341954602C68804E34402C606C688F
:104C700034406C6000241C605C608F23DB4314694B
:104C80001C40146154691C4054610B7901AA1371D2
:104C90008B79937109680191114600F009F803B00E
:104CA000F0BDC04638180000581800007818000001
:104CB000F0B584B06B4A82180292734BC618784BD9
:104CC000C21800922A4BC4180A7901910D68294F25
:104CD000202A03920AD0254BC018002A17D16B1E38
:104CE000029A536023683B40882517E0681E029AA9
:104CF000506020683840204B18432060606838407E
:104D000018436060012045071C4F104608E06B08FF
:104D1000029A536023683B400525ED012B43236035
:104D2000009903683B402B43036030684F4B1840A9
:104D300030607068184070600020086048608F2004
:104D4000C0432369034023616369034063610198A1
:104D5000807903990843BD2101401068084B034046
:104D6000C818801C106004B0F0BDC0467418000064
:104D70007018000024493E0001040000FFFFFFCF2F
:104D80004000FFCF70B5374A82184B6853603E4BE6
:104D9000C3180878222857D8840001A52C59A746A3
:104DA0003F4E0000494E00003F4E0000494E0000BB
:104DB000494E0000494E0000494E0000494E000097
:104DC000494E0000494E0000494E0000494E000087
:104DD000494E0000494E0000494E0000494E000077
:104DE0002D4E0000494E00002D4E0000494E00009F
:104DF000494E0000494E0000494E0000494E000057
:104E0000494E0000494E0000494E0000494E000046
:104E1000494E0000494E0000494E0000494E000036
:104E20002D4E0000494E00002D4E000003242407A3
:104E30001568A543012464072C19146004E00324B9
:104E400024071568A54315600C8AD460CC68064D0C
:104E500025401C68054E264074191C60097A0143E0
:104E6000116070BD04180000777702008888FDFF8C
:104E700010B507239B04194092008018024A8458F9
:104E80009C436118815010BD3018000010B5029C81
:104E9000A400001911431943014A815010BDC046B6
:104EA0005018000092008018014A81507047C04697
:104EB0001018000010B50122120383180C789C60B2
:104EC0004B7883508978014A815010BD0C11000045
:104ED00010B511231B02C418D0001C4B81420CD208
:104EE0002068184001231B0403432360032353431A
:104EF0008801194609F002F812E0206818401301F1
:104F0000994206D20123DB0318432060C8005108F0
:104F100002E02060C800114608F0F0FF401C400885
:104F200021690B4A0A40810989B2511821613F2148
:104F3000084062698A431018606160680121084076
:104F400062688A431018606010BDC046FF7FFEFF94
:104F50000000FFFF10B5002A0CD0074BC31800203B
:104F60001C68640705D4DC690C54401C8242F7D1EC
:104F7000104610BD002010BD08110000B0B5112270
:104F8000120283580124A34383508B780C881C435E
:104F90008B882343094C1C408358094D1D402B1915
:104FA00083508B79CC791C43097A21437E231940A5
:104FB000801842689A4351184160B0BD18670000DC
:104FC000E798FDFF10B50122120383180C789C604E
:104FD0004978815010BD000000A07047312E340088
:104FE00080B5FFF7FBFB80BDB0B52421074A084B15
:104FF00044182546243D2D6855505D180C3D183C3D
:1050000024682C60091D3029F2D1B0BDF0002020A9
:1050100074012020F0B5BDB00E92054600203B90F3
:105020003A9039903890379036903590349033904C
:105030003290319030902F902E902D902C902B907C
:105040002A902990289027902690259024901D90B2
:105050001C901B901A90199018901790429EF2186D
:10506000089200D3D4E1EC4A934200D9D0E1002D5C
:1050700000D1CDE1002900D1CAE103220E9C1440E9
:105080000E9400D1C4E1E34AB418641E944200D2E5
:10509000BEE105930091459807904498039043988A
:1050A00004901EA829461CC91CC01CC91CC0242071
:1050B000DA4BDB4E195800241C5014AA1218243A5B
:1050C000116031180C390A680C6011A909182439CB
:1050D0000A60001D3028EDD1069401200E9902903F
:1050E00001400D911720C0430B90FFF771FB0A9010
:1050F000441E0195089D05E0099C08980C99814281
:1051000005467AD2FFF764FB01460A98081A0C900C
:10511000A8422846F2D2A142F0D009910D98002869
:10512000BE4C02D02046FEF799F90E98022802D311
:105130003046FFF7F3F9079A002A0C9D02D0284663
:10514000089990470598854251D331460C310C346B
:105150000B9E04E00836241D091D002E43D00D9837
:10516000002810911DD036A885192068FCF70EF98B
:1051700007460F91A869E9693A460F9BFBF762FD64
:10518000A861E9612AA8851938460F993A460B4665
:10519000FBF7D8FFAA69EB69FBF754FDA861E96149
:1051A00010990E980228D5D330A885190868FCF705
:1051B000EDF802460F900F46A869E9693B46FBF7F8
:1051C00041FDA861E96124A885190F983946024676
:1051D0003B46FBF7B7FFAA69EB69FBF733FDA86114
:1051E000E9611099B6E70698401C06908C4E049928
:1051F000002981D0039888477EE7079A002A02D0C9
:10520000284629469047069C022CF64B00D2F3E034
:105210002046FBF794FF0F901091601EFBF78FFF65
:105220000C900A9100260EE021460C9A0A9BFBF78F
:1052300039FDFBF74DFB17A98919C860361D0B987E
:1052400008300B9075D00D9800283AD036A80B99ED
:1052500040188469C569204629460F9F3A46109B2D
:10526000FBF720FDFBF734FB1EA988512046294699
:1052700022462B46FBF766FF3A46109BFBF712FDD2
:1052800002460B462AA80B9941188869C969FBF7A1
:10529000E6FC07460D4600242246234609F046F860
:1052A00001460028204600D13846002900D12C466E
:1052B00021460C9A0A9BFBF7F5FCFBF709FB17A9A3
:1052C00088510E980228B9D330A80B9940188469E8
:1052D000C569204629460F9F3A46109BFBF7E2FC22
:1052E000FBF7F6FA1EA98919C8602046294622460E
:1052F0002B46FBF727FF3A46109BFBF7D3FC0246F1
:105300000B4624A80B9941188869C969FBF7A7FCCB
:1053100007460D4600242246234609F007F80146B9
:105320000028204600D13846002900D07CE72C46D2
:105330007AE71EAE30460C3010900027394D3C46BF
:1053400004E00024361D7F1C032F1BD00D9800287D
:1053500008D00298C10730688843294608F0FCFF4E
:1053600000280FD10E98022808D30120C107F06849
:105370008843294608F0F0FF002803D1012FE0D927
:105380000124DFE7E007019E964B35D00D980028F9
:1053900007D01EA817AD534A534B294606F0ACFF61
:1053A00028760E98022808D317AC21460C314F4AB4
:1053B0004F4B109806F0A0FF60761EA831461CC81F
:1053C0001CC11CC81CC117A8009D0EC80EC51EC854
:1053D0001EC52420A84B834C31180A46243A126873
:1053E00022501A180C3A183909681160001D30282B
:1053F000F2D102983DB0F0BD16981599149A5A62F0
:105400009962D86211AA07CA9B4B183307C30020C0
:105410003DB0F0BD40D8F6FFC0270900F0002020C5
:10542000740120203333B33EF0B583B0044600202E
:10543000002C54D0217B002951D025466435A17B16
:105440000020C90723D0A17CFF2908D12988002981
:1054500005D16988002902D1A988002917D0002622
:105460002F46388802F0FCF869468851BF1C361D6B
:105470000C2EF6D120461C301A4A1B4B06F03CFF7E
:10548000A17C814201D1002001E0A0740120A17B18
:10549000890724D5E17CFF2908D1E988002905D1B5
:1054A0002989002902D16989002918D00646AD1D35
:1054B0000027288802F0D4F86946C851AD1C3F1D6A
:1054C0000C2FF6D120462830084A094B06F014FF6D
:1054D0000146E07C8842304601D0E174012003B0EF
:1054E000F0BDC046DCEF0000E8EF0000F42F010043
:1054F00000500100F0B583B000282DD000292BD03A
:1055000001261640032300921340029301900446A3
:10551000643400250F4603E0A41C2D1D0C2D10D073
:10552000002E04D0485902F0CDF839462080029868
:105530000228F1D34819C06802F0C4F83946E08067
:10554000EAE70098C007019A01D0087E907402989B
:10555000022801D3487ED07403B0F0BDB0B5044634
:10556000204D28680E49096809F0D4FB0D490968E7
:1055700009F06CFB206068680B49096809F0CAFBF8
:105580000A49096809F062FB6060A868084909686F
:1055900009F0C0FB0749096809F058FBA060B0BDDD
:1055A0009C022020A8022020A0022020AC02202063
:1055B000A4022020B002202010B504460948C1688A
:1055C000026906C4406903490968083C09F03EFBCA
:1055D000A06010BD1C00202002490CC909680CC045
:1055E00001607047F0002020B0B50446224DA86845
:1055F000EA49096809F08EFB0E49096809F026FBA3
:10560000A0602868E449096809F084FBE849096852
:1056100009F01CFB60600120C10768684840DD4953
:10562000096809F077FBE149096809F00FFB206080
:10563000B0BDC046C8022020B0B504460E4DE86893
:10564000606006480068696909F000FBA0600120FD
:10565000C007296941402160B0BDC046200020201C
:1056600010B505490CC909680124E4075C400460D1
:105670004260816010BDC0467401202080B50028C2
:1056800003D04F496822FAF79FFD80BDB0B50028CE
:1056900004D04D491CC91CC03CC93CC0B0BDC0466B
:1056A000B0B5002804D050491CC91CC03CC93CC03E
:1056B000B0BDC04610B500281CD001462831484A6C
:1056C000136B0360536B4360936B8360D26BC26058
:1056D0003F4A18CA12680361446182613D4A18CA90
:1056E0001268C361046242623B48007808703B481C
:1056F0000078487010BDC04670B5F74800780028A3
:105700001FD0F64800242D4D214622462B4601F09D
:10571000FBFDF3487F21CE05066044608460C460D1
:1057200028490164EF48214622462B4601F0ECFD52
:10573000ED48066044608460C46004614461846133
:1057400017E06422E64800218154E74A41648164FD
:10575000C1640165416581657F23DB05136051608C
:105760009160D1601161516191610360416081601C
:10577000C1600C20154900240C5410303C28FAD18B
:1057800013480460446084601248D849046044604F
:1057900081601148047011480470D5481149074BC5
:1057A000224601F0B1FDD3487F21C90512C0046033
:1057B00044608460C460046170BDC0466F12833A67
:1057C000880020204ED1113C5801202004042020C4
:1057D000D0012020C4012020A4042020A5042020E2
:1057E00034042020CDCC4C3EEC012020F0B589B013
:1057F00004920291039064480027076063480760A1
:105800006348076063480760634807606348076050
:105810007F20C005624908606249086062490860EB
:105820006249086062490860624908600193002B80
:1058300000D1A7E00498002800D1A3E00298002836
:1058400000D19FE00398002800D19BE00E9800282B
:1058500000D197E001200890C107039800688843B1
:10586000554908F079FD05460498066853493046C5
:1058700008F072FD04462C435149304608F084FD7F
:1058800020437FD10797069705E0491C06913F1DED
:105890000028079D4DD1079D0198C45920464749CE
:1058A00008F05AFD0646401E86412046444908F04D
:1058B0006BFD0446401E84410298C05901210791A6
:1058C000C907059188433C4908F046FD002808981F
:1058D00000D120460028089800D13046012828D061
:1058E000082F28D00498C01944682046334908F08E
:1058F00033FD0646401E86412046314908F044FDEE
:105900000446401E84410398C019406805998843A5
:10591000294908F021FD0028089800D120460028D8
:105920000898069900D130460129AED80022079286
:10593000ABE7E80726D0039A03CA134B1960134953
:10594000086010681249086002990868114A1060DE
:105950008868124A106048680F490860049908680E
:105960000F4A10608868104A106048680D49086046
:10597000019908680D4A106048680D4A10608868EF
:105980000C49086009B0F0BDA00220209C02202034
:10599000A4022020B4022020B8022020BC02202033
:1059A000A8022020AC022020B0022020C00220202B
:1059B000C4022020C8022020000040409A99993F4C
:1059C000CDCC4C3F411E8841434908707047C046CA
:1059D000F0B587B01D461446069102463E48007851
:1059E0000D9B0C9E0028059334D03C4F3846114641
:1059F0000392069A234601F04BFD3B4630330FCB12
:105A0000374F0FC706F0C2F8364F384629463246A0
:105A1000059B01F03DFD384601F099FC386B029082
:105A2000786B0190B86B0090FB6B04942E4C284669
:105A30007D6E3146BE6EFF6E029A2260019A6260F0
:105A4000009AA260039AE3602561054666610E46EE
:105A5000A761049CF84800780321014003291AD16A
:105A60001046294609F058F83F210F06394609F03B
:105A7000EDF805460698314609F04EF8394609F02A
:105A8000E5F806462046059909F046F8394609F03A
:105A9000DDF804460CE0C10703D1800704D5059C5E
:105AA00003E0069E154603E0104CC0170540064073
:105AB0000F4F384629463246234601F0E9FC384666
:105AC00001F045FC3B4630330FCB0A4C6437E0CF46
:105AD000EFC407B0F0BDC04641062020C00420201E
