:020000040000FA
:10000000882A2020F90100000D600000FF01000097
:1000100000000000000000000000000000000000E0
:1000200000000000000000000000000001020000CD
:10003000000000000000000003020000896A0000C8
:100040000702000055450000B16A000007020000E9
:10005000070200000702000007020000070200007C
:10006000000000000702000007020000000000007E
:1000700000000000070200003595000007020000A4
:1000800007020000916A000007020000070200005A
:10009000070200000702000000000000000000004E
:1000A000070200000702000000000000000000003E
:1000B0000702000000000000070200000702000025
:1000C00000F002F800F06CF812A030C808382418CC
:1000D0002D18AC4201D100F063F80FCCA246AB461C
:1000E0000CA730CF2D1B083F3F197C427F1E544484
:1000F0002D090426F441641EAC4201D300F050F8EF
:100100000126334200D0FB1A3343984754465D46DC
:10011000DFE70000A4120100D4120100000000007B
:10012000103A02D378C878C1FAD8520701D330C840
:1001300030C101D504680C60704700000000000069
:100140007047000000000000002300240025002666
:10015000103A01D378C1FBD8520700D330C100D583
:100160000B60704710B5662902D10CF0E1FA10BDA2
:10017000752902D100F0A2F810BD732902D101F057
:100180005EFB10BD002010BD1FB501F01BFC04007C
:10019000002000210CF050F9E0601FBD10B510BD2B
:1001A00001F0FCFF1146FFF7EFFF0AF09FFB02F0A2
:1001B00014F803B4FFF7F2FF03BC02F0BFF800002D
:1001C00070B505460C46164602E00FCC0FC5103E32
:1001D000102EFAD2082E02D303CC03C5083E042EFB
:1001E00007D301CC01C5361F03E021782970641CB8
:1001F0006D1C761EF9D270BD06480047FEE7FEE78B
:10020000FEE7FEE7FEE7FEE703480449044A054B24
:1002100070470000C1000000880A2020882A2020A2
:10022000881A2020881A20200FB41CB50C0007AAB9
:10023000009007D04142A14202D30019401E01E0C4
:100240000020C043074B7B4469460190069801F0AB
:10025000C8FA0020002C01D0009908701CBC08BC12
:1002600004B01847BF15000070B50C460546012ABA
:1002700005D02878800600D5EA69002302E0012332
:1002800005E05B1C934202D2E05C0028F9D1A8692A
:10029000E618C01AA861286AC01828622846C04615
:1002A000C04604E06A682078A968641C9047B4429C
:1002B000F8D32846C046C04670BD0000F7B50025FB
:1002C00075291068009914A611D0C046C0460028B0
:1002D00002DA404211A608E0009909688A0701D5B0
:1002E0000FA602E0490704D50EA6012501E0C0468D
:1002F000C046009F0024243704E001F0A4FA303106
:100300003955641C0028F8D12B4632462146009806
:1003100001F000F8FEBD0000000000002D0000000C
:100320002B00000020000000F3B50446002081B03F
:1003300020622046E1688847002872D0252802D034
:100340006268A1689AE0E168204600268847054671
:100350000020E0610746A0612A2D0AD028460BF054
:10036000F5FC002827D0B8000019303D00908561C9
:1003700019E00298BA00121902C891610290204651
:10038000E1688847012F054617D1E06900281FDA88
:10039000202086431CE000980A2180694843009988
:1003A0004019303888612046E168884705460BF0DF
:1003B000CDFC0028EFD1012F0AD02E2D08D12046E8
:1003C000E16888470546202006437F1C022FC3DBD7
:1003D000A069002803DA4042A06101200643F0072B
:1003E00001D0102086436C2D0AD0682D08D04C2DEA
:1003F0003CD06A2D38D0742D38D07A2D36D016E006
:10040000E1682F4620468847B84205460AD16C2F3E
:100410002AD001208002E16806432046884705462D
:1004200005E02FE06C2F1DD0FF2001300643002D8A
:1004300028D028464138192803D80120C002064395
:100440002035204626602946029A1646FFF78AFE86
:10045000002810D001280BD0F61DF008C00008308D
:10046000029066E74020E1E78020D4E70020D2E751
:10047000361D02965DE762682846A1689047206AAB
:10048000401C55E7206AFEBD0346F0B50B439B07B1
:100490002DD1244DEF01042A29D308C810C95E1BB1
:1004A0009E43121F3E4017D0D8B2E1B2401A310627
:1004B000014310D198B2A1B2401A310401430AD1CC
:1004C00018022102000A090A401A3102014302D12E
:1004D000180E210E401AF0BDA342DCD018BA21BA82
:1004E000884201D90120F0BD0020C043F0BD002AA0
:1004F00001D10020F0BD03780C78401C491C002B72
:100500000DD0A3420BD1521E09D003780C78401CA9
:10051000491C002B03D0A34201D1521EEBD1181B62
:10052000F0BD000001010101F8B5042A2CD38307B6
:1005300012D00B78491C0370401C521E83070BD04D
:100540000B78491C0370401C521E830704D00B78A3
:10055000491C0370401C521E8B079B0F05D0C91A03
:10056000DF002023DE1B08C90AE0FFF729FEF8BDE3
:100570001D4608C9FD401C46B4402C4310C0121F44
:10058000042AF5D2F308C91A521EF0D40B78491C7C
:100590000370401C521EEAD40B78491C0370401CA7
:1005A000012AE4D409780170F8BDD2B210B5130263
:1005B0009A1813049A1800F001F810BD01E004C065
:1005C000091F0429FBD28B0701D50280801CC907B3
:1005D00000D00270704700290BD0C30702D0027010
:1005E000401C491E022904D3830702D50280801CC7
:1005F000891EE3E70022EEE70022DFE7002203097D
:100600008B4273D3030A8B4258D3030B8B423CD3E8
:10061000030C8B4221D312E003460B437FD400220C
:1006200043088B4274D303098B425FD3030A8B4286
:1006300044D3030B8B4228D3030C8B420DD3090206
:10064000FF2212BA030C8B4202D31212090265D0A8
:10065000030B8B4219D300E0090AC30B8B4201D371
:10066000CB03C01A5241830B8B4201D38B03C01AB8
:100670005241430B8B4201D34B03C01A5241030B2F
:100680008B4201D30B03C01A5241C30A8B4201D3E0
:10069000CB02C01A5241830A8B4201D38B02C01A8B
:1006A0005241430A8B4201D34B02C01A5241030A02
:1006B0008B4201D30B02C01A5241CDD2C3098B42E7
:1006C00001D3CB01C01A524183098B4201D38B0164
:1006D000C01A524143098B4201D34B01C01A524107
:1006E00003098B4201D30B01C01A5241C3088B424C
:1006F00001D3CB00C01A524183088B4201D38B0037
:10070000C01A524143088B4201D34B00C01A5241D8
:10071000411A00D201465241104670475DE0CA0FAF
:1007200000D04942031000D3404253409C4600226F
:1007300003098B422DD3030A8B4212D38901FC2279
:1007400012BA030A8B420CD3890192118B4208D34F
:10075000890192118B4204D389013AD0921100E0B1
:100760008909C3098B4201D3CB01C01A52418309C5
:100770008B4201D38B01C01A524143098B4201D3F2
:100780004B01C01A524103098B4201D30B01C01A1D
:100790005241C3088B4201D3CB00C01A5241830897
:1007A0008B4201D38B00C01A5241D9D243088B42ED
:1007B00001D34B00C01A5241411A00D201465241A6
:1007C000104663465B1001D34042002B00D54942DE
:1007D000704763465B1000D3404201B504490028CE
:1007E00002DC491C084000E00846C046C04602BD85
:1007F000FFFFFF7F70477047704700000246C80F39
:10080000C00781434B0030B54B405B009B0D20D0AF
:100810001923DB06C91801231B05994220DB032499
:10082000A40704251346AB400BD3002B04D1EB06E1
:1008300013409B00E34204D40124640700231219EF
:100840005941FF231B0599420BD2C9000143500FA8
:1008500009E0CB0204D501430803024305D0054853
:1008600030BDFF21C905084330BD084607210905F1
:10087000884330BD0000C07FF0B50C46871A9C410C
:100880000D46861A9D4103D2C01BA141D219634176
:100890000D0D1F0DC94EEC1BAE435CD07F057F0DC7
:1008A0000026002F51D02D05AC46A943DD020123BF
:1008B000ED0A1B051D4320231B1B24D41746E740CC
:1008C000381871412F46E740CC199D402818314611
:1008D00061410C0D27D161449A4013D50023401C7F
:1008E000594152000ED14008400001224B005205F0
:1008F000D34207D305204007C14201D5B04900E0EB
:10090000B0493046F0BD6B00002A00D001229A1891
:100910001F23203C1B1B01D5002302E0E5402818C3
:1009200071410C0DD7D0012424050919C407CD0746
:1009300040084908E40F28436144002CD5D0002426
:10094000401C61419A40D0D1CDE76A05520DD9D102
:10095000C90FC907D5E79C4D4E00002801D00124DE
:1009600000E0002434195F00002A01D0012600E0D5
:100970000026BE19954FAC420CD8AE420AD8B442FC
:1009800006D001256D05EC42BCD010461946F0BDDD
:100990009942FCD000203946F0BDF0B51FB40C469A
:1009A0000F46811A9F412546861A9D4106D2012590
:1009B000ED076F40401ABC4152187B41210D1E0DBE
:1009C0008D1BAC467D4D8D437ED075056D0D7CD065
:1009D0000D05AE46AC431B031B0B794D52429D41A6
:1009E000202366469B1B14D31746F7403818002671
:1009F0000090744160462F460741E41900989D40DD
:100A00002818664116D4714671189A4025D50123DD
:100A100020E093182A466A415200002B00D0521C55
:100A20001E23203E9B1B002B61DD3541EE1728184D
:100A30006641E8D5001876415B1C9A4000D3401C03
:100A40004B05F3181524E34010D3002B52D0714608
:100A50007118D30FC01802D3491C05B0F0BD012393
:100A6000DB079A42F9D140084000F6E7012252051F
:100A7000B21801D1002853D00123CC0ADB029943DC
:100A8000891E002A08D1020C03D0020C0004103980
:100A900002E00246002020390023550B05D1120246
:100AA0000823550B01D152010D23550C01D1120120
:100AB0001B1DD50C01D192009B1C150D01D15200BC
:100AC0005B1C2025EE1A01E02CE022E00546F540F3
:100AD00015439840CA1AE10769181305C918002A76
:100AE000BBDA032040070818C10FC9070FE07146A1
:100AF0006118B2E7F10740080843711071444A00D9
:100B00000CD001235B059A42A7D2C90FC907002068
:100B1000A3E74905490D26D1002001E00028F4D1C2
:100B200000219AE7284D6600002801D0012100E04D
:100B3000002171185F00002A01D0012600E0002684
:100B4000BE19224FA94210D8AE420ED8B14208D0E9
:100B500001256D05E94206D01946A802414010461C
:100B60007BE79C4201D0214677E70020394674E7B5
:100B700010B50C465C4005D50124E4076340FFF73F
:100B80000CFF10BDFFF778FE10BD30B40C465C4082
:100B900004D50124E407634030BC6DE630BCFCE6BC
:100BA00070B50124E40761400D465D4002D4FFF7B3
:100BB00063FE70BD6340FFF7F0FE70BDFF070000ED
:100BC0000000F0FF0000F07F0000E0FF0000F87F71
:100BD000F0B5F94D0C091E092C402E402F468BB064
:100BE000A7437DD0B543FCD0002E7AD0002CFCD09A
:100BF0000D465D40ED0F2543AC1BFF25AD04641988
:100C00000894C502440DC9022143500DDC0204437F
:100C10000120C00701430443D2020191200C110CB2
:100C200000958C46010423468B430A9161460904D2
:100C3000E24D8A430991010A7D44491980390978B6
:100C400005464D4301266D18F605751B6943C90C11
:100C5000640B891C4C436418B5012C1B250C2E0415
:100C6000B4434C434D43210C691889090591009DFB
:100C7000E90701D00121C90704912C4601996708B1
:100C8000CD072F434C08059DE10B4D432D0C294604
:100C90006646754302950D4645432E46029D7D1BD3
:100CA000B44100950D465D4301942C0C2F040D4674
:100CB0005543AE462D0C3D43029503947546049C66
:100CC0002D04641B049406D2029C039D641C002620
:100CD00075410395029401AC70CC009F7D1B01E02F
:100CE0003EE162E1B4410904009507910194059940
:100CF000A4086143090C0C464443650BE7040C4609
:100D000066467443A646640B3C43039502947446BE
:100D1000049DE4042C1B049406D2029C039D641CD5
:100D2000002675410395029401AC70CC009F7D1B99
:100D3000B44101940C465C430095650FE7000C46F6
:100D40005443A646640F3C43039502947446049DA5
:100D5000E4002C1B049406D2029C039D641C002614
:100D600075410395029401AC70CC009F7D1BB4418A
:100D7000AE09AF06049DC900AD092F43049DA4062A
:100D8000AD060495079D344369180791059DE10B55
:100D90004D432D0C29466646754302950D46454345
:100DA0002E46029D7D1BB44100950D465D43019486
:100DB0002C0C2F040D465543AE462D0C3D43029599
:100DC00003947546049C2D04641B049406D2029C73
:100DD000039D641C002675410395029401AC70CC00
:100DE000009F7D1BB44101948C050694079C890AE1
:100DF000611800950791019C0599A4086143090CAD
:100E00000D464543680BEF040D46644665436C0B85
:100E10003C43049FED047D1BAC4602D20025641CBC
:100E20006841009E019D371B854108465843019546
:100E30000C46460FC5005443600F28436546E40046
:100E40002C1B02D20025401C6E41019D3F1AB5416A
:100E50002846BD09800628438446A009BF064E02E5
:100E60000699A40676180743079D002068410A9951
:100E7000079019430020099B00906046FF19134317
:100E80004041E20F64003A43A4460446D71A8C411D
:100E9000A04203D90120009020463A46C70F94187B
:100EA00040416246D20F2243644664000494009C91
:100EB000BE466400D71AA446044602978C41774682
:100EC000002F01D1A04204D96046401C8446029AFA
:100ED0002046C40FA64694184041049A0546D20FF6
:100EE000224364466400D31A8D417146002901D122
:100EF000A84202D928461A46641C10430122002841
:100F000000D0164361020020079B891904465C410A
:100F10000223002C02DB491813466441089DCE0AC7
:100F20002D145D194B056705E10A2C050D1908996B
:100F30003E43C9076940002B08D0934006D30022E6
:100F4000761C5141002B01D1760876001C4A002DF9
:100F500043DB154241D0AA433FD030460BB0F0BD31
:100F600006180D464D41174C7642AC411AD39518E0
:100F70001C465C41134A6D42A24113D30122520523
:100F80004C00D4420AD15C00D4420BD04B4002D575
:100F900092021143E2E749004908DFE75940C90FCF
:100FA000C90718E000200849D8E7054801420DD1DB
:100FB0000342F7D0F2E700000000FF0704BB000087
:100FC0000000F07F0000E0FF0000F87F114859406A
:100FD0000143C01241400020C0E70123089A9B064C
:100FE0009A4205DC032252078918C90FC907B5E7E1
:100FF000052252078918074A1143D2125140ADE722
:1010000070B515461C4602460B4628462146FFF79A
:10101000DFFD70BDFFFFFF7F1F22030C02D10F22F7
:10102000000402D0030E03D004E000200146704704
:101030000002083A030F01D10001121F830F01D1F2
:101040008000921E002801DB4000521E120551183C
:101050004205C012411810467047C10FC90700D0A1
:101060004042012292071143D6E701218907D3E7C5
:101070000121C9050123411842001B06D3185B0E4C
:101080000AD0C1100722D206891840075242D14225
:1010900001D5520089187047090208D50146002A77
:1010A00003D0C10FC90700207047104670474202A5
:1010B00002D0002002497047072109050143F4E7E7
:1010C0000000F87FF0B5FF252D04C609C209FF27EF
:1010D00004462E400137CB093E4348402A402B406E
:1010E0000746002A6BD0002B69D0AA4267D0AB42DA
:1010F00065D0002800DA32460125ED0529432C434E
:1011000009022002090AD21A4B0C7F24E31A434C2D
:10111000000A7C44E35C7D242404121914145B004F
:10112000A218884201D3521C00E0400049420C46FC
:101130005C4324115C43DB016415E318040A5C433F
:10114000C502200D0C4644436419250A5D43230360
:10115000EC0C0D46654300030019EB184C42A3420A
:1011600001D35B18401CD4052018002B07D05B006E
:10117000C91804D3401C002901D1400840003F2178
:1011800089048A4209D3002A08DC1106090F04D019
:10119000032149074018C00FC007F0BD01224100DC
:1011A000120689187F2252069142F6D2052149077C
:1011B000C84201D59010F0BDFF20C005F0BD002F42
:1011C00000DA32461648AA4207D2AB4205D21902CB
:1011D000090E17D0F80FC007F0BDFF2563002D06DC
:1011E000AB42F9D84900A942F6D8AB4201D1A94295
:1011F000F2D0A94201D1002101E061004908D005E7
:101200000843F0BD1102090EFBD0FF200243D005B8
:10121000F0BD0A460146104654E70000AAB6000099
:101220000000C07F10B501469E240002CA15A30726
:10123000002A02D01843002A04DBA21A002A0CDD7F
:10124000D04010BD1206120E01D140004008A21A73
:1012500003D4D04040420028F3DDFF2248001206AC
:10126000904201D9002010BDC817C043584010BD9E
:101270000102C21504D00123DB071943002A0ADB4F
:101280009E239A1A02D40846D0407047FF2241009C
:101290001206914201D900207047C017C043704721
:1012A0001F22030C02D10F2200041CD0030E01D117
:1012B0000002083A030F01D10001121F830F01D170
:1012C0008000921E002801DB4000521ED2055118FA
:1012D000021251181922904004D3491C002801D150
:1012E0004908490008467047C10FC90700D040426D
:1012F000012292071143D3E701218907D0E710B5F6
:1013000000F064FB006810BD10B5044600F05EFB01
:10131000046010BDFFB504460D4681B02430009036
:101320002168880604D51022E0699143216000E01D
:101330000120A84201DD471B00E000270498A169B5
:101340007A191018081AA0612078C00602D4204625
:10135000C046C046002608E003986268A168805D28
:101360009047206A401C761C206204988642F3DB7A
:101370002078C0060AD52046C046C04606E062680E
:10138000A16830209047206A401C206238467F1EAA
:101390000028F4DC07E000986268A168405D90478F
:1013A000206A401C206228466D1E0028F3DC20467F
:1013B000C046C0462078000602D5022005B0F0BD28
:1013C0000120FBE7FFB50C461E468FB003CA08900C
:1013D00009914F007D0D00D16D1E002108460020AF
:1013E000C0460321099A89050840002A03DA8200D1
:1013F000801840080840800D01280A9002DD002076
:10140000C0430A90089807430DD0F048F0492818C7
:1014100048430714189800281DD07542291E1DDD69
:101420000A9842421BE01898012802D0002030217F
:1014300004E00020F24305E02154401CB042FBDBF5
:1014400030460022189B002121540F998B600A60BE
:10145000486013B0F0BDBD1B6D1CDFE70A9A002980
:1014600000DA69420BA800F037FB0BAB07CB03ABEC
:1014700007C30899099800F09BFB6B4607C3014618
:10148000D4480918002D00910BDDD24903980A9A1F
:1014900049424018002303A90390684600F0F8FD74
:1014A00008E003990A9A0023081803A903906846E4
:1014B00000F098FD6B4607C30004000C03D0002029
:1014C000C043410800E01046189A002A03D00022C9
:1014D000009215461EE0751E05D400F07BFA3032EE
:1014E00062556D1EF9D501220843079602D00022ED
:1014F0007F1C04E02078302801D100227F1E002AC2
:10150000069787D01EE0112D07DA00F063FA30321B
:1015100062556D1C02460A43F5D1084303D000987A
:10152000002819D00EE00021681E05E0235C625CF3
:1015300063542254401E491C8142F7DBA81B401E05
:1015400007950690079A18990020A0540F98079BBA
:10155000069A81600CC07CE711260020189059E79C
:10156000D21DF0B50D460446D10893B0C90003C999
:101570000C900D910AF0BEFA02460D98C00F01D0F2
:101580002D2007E02068810701D52B2002E04007CD
:10159000C00F4001032A0F9001D0072A05DB034644
:1015A0002946204600F054FA0EE12078800601D545
:1015B000E76900E006272846652D04D0662814D088
:1015C000672D69D12DE00020112F009001DB112340
:1015D00000E07B1C0CAA03A910A8FFF7F3FE1199E9
:1015E000002610987D1C0E9142E001203B460CAA7B
:1015F000C0070B900120009003A910A8FFF7E2FE9E
:10160000119D12981099002600280E9501D1781C82
:101610000D18781B02D446427D1C761EE81B0090F4
:101620003AE0012F00DA01270020112F009001DDA0
:10163000112300E03B460CAA03A910A8FFF7C2FE45
:1016400011993D46109800260E91217809070BD478
:101650000E99A94200DA0D4603A9012D04DD4A19AD
:10166000203AD27F302A06D0B84201DA011D04DACE
:10167000012100910FE06D1EEFE7002802DC8619C2
:101680002D1A03E0411CA94200DD0D46801B401CC1
:1016900000900120C0070B902078000705D4009827
:1016A000A84202DB0020C043009069460020C872B7
:1016B0000B98012102AF0337C907884225D00220C9
:1016C00010902B2011900B9800280BDA40420B90C1
:1016D0002D20119006E00B9800F0B5F830317F1EF8
:1016E0000B9039701099481E00291090F3DC0B986C
:1016F0000028F0D111987F1E38702088000501D590
:10170000452000E065207F1E387001A8C01BC01D69
:101710000B900F98002800D0012041190098C017A5
:1017200009180B980818A169081A401EA0612078B2
:10173000C00602D42046C046C0460F98002805D0F7
:101740006268A1689047206A401C20622078C00629
:1017500025D52046C046C04621E0002E07DB0E9866
:10176000B04204DD03A86268805DA16802E062689F
:10177000A16830209047206A761C401C20620098A7
:10178000401E002800900AD100F01CF9C068626871
:101790000168405CA1689047206A401C206228468E
:1017A0006D1E0028D9DC07E062683878A1687F1CCC
:1017B0009047206A401C20620B99481E00290B901C
:1017C000F2DC2046C046C046032042E601FCFFFF93
:1017D000104D0000E1DFFFFF01694A1C026108783B
:1017E000704700B58FB00291002105910549019322
:1017F00079440391114604906846FEF795FD0FB0B9
:1018000000BD0000E5FFFFFF0CC908399A4202D273
:10181000531C0B601070704710B54369002B02D049
:10182000C046C04601E0FEF71FFD012010BD127842
:10183000014624310A7000224A700122ECE7116847
:101840000022D243E8E701468008081A020910186E
:10185000020A1018020C1018C00882001218520058
:10186000891A01E0401C0A390A29FBD2704700009E
:10187000C10D10B50906090E2ED0FF2931D07E29E1
:101880002DD319D0962916D2024675398A4005D033
:10189000002402468A4003D3012302E00124F8E732
:1018A00000230222CA41511E8843002B03D0801816
:1018B000002C00D0904310BD0121420201D1012231
:1018C00000E00022C00FC0070029F4D0002AF2D1A6
:1018D0007F21C905084310BDC00FC00710BD0021FE
:1018E000EFE74102FAD0014810BD00000000C07FC0
:1018F00010B5FF22C30D134009D05A4007D09142C2
:1019000005DA5C42A14202DDC905081810BDC40F0A
:10191000E407002B06D0002A06D0002902DBFF20B6
:10192000C0050443204610BD4102FCD0004810BD54
:101930000000C07F30B5C30D1906214A090E31D011
:10194000FF292FD000283ADB010250020143012079
:101950007D33C34000D24908012080071724091AAB
:101960002406490882102343FF252D064C00211A26
:1019700004D4891A02D45400201800E021465208E9
:101980005B19F3D51A220446944007D382068A4293
:1019900003D180218030884300E08030C009D90520
:1019A000081830BDFF2904D04100FAD0C00FC0078D
:1019B00030BD410201D0104630BD0028FCDAFAE704
:1019C0000000C07F00487047480020200048704752
:1019D000280020200B4670B502468907800808437E
:1019E00019469D08141AA941250908070543080945
:1019F0002C194841250A01060D43010A2C194141C1
:101A0000200C0D0428430D0C00194D4100214019F4
:101A10004D41C00869070843E908840F8D0025433C
:101A2000840024184D4124196D41121BAB4107E07D
:101A30000925ED432C11521963410024401C6141DA
:101A40001C460A250026551BB441F1D270BD00008A
:101A5000F8B51F46044601230068DB020326014651
:101A60001840072A05DB002801D017A506E017A5B6
:101A700004E0002801D016A500E016A5102081433F
:101A80002160A069C01E002FA06101D0401EA0618E
:101A90002046C046C046002F09D038466268A1687B
:101AA0009047206A401C2062C01C206206E0206A29
:101AB000FAE762682878A1686D1C9047761EF8D214
:101AC0002046C046C046F8BD4E414E006E616E00D5
:101AD000494E4600696E6600F7B516468AB033482F
:101AE00078446C4603467C33C06F5A689B680DC4CB
:101AF0002E487844763003AC0DC80DC43720C001A1
:101B0000081837211B30FEF787FD05460C46803D3F
:101B10001B3C02D56442012000E000200027099010
:101B200010E0E0070CD00C2020497843794432467D
:101B30004C3941186846012300F054FA6B4607C33C
:101B400064107F1C002CECD1184F7F442E3F16E010
:101B5000E80712D02001C0190EC806910893079219
:101B60000068F04201D1981908903246012306A975
:101B700003A800F037FA03AB07C36D10641C002DF7
:101B8000E6D10998002806D032466946012303A809
:101B900000F07EFA05E001233246694603A800F012
:101BA00021FA0A9B07C30DB0F0BD00003CAD000058
:101BB000034640000A4610B5400D0BD00121C9076D
:101BC0000F24A40200191C0364082143540D21436F
:101BD000D20207E000210120F2E7D40F490021439F
:101BE0005200401E0029F8DADB0FDB07184310BD56
:101BF000FFB50D46144685B04868516809F062FF8C
:101C000000910190A868A16809F05CFF029103901F
:101C1000A868616809F056FF029A1218824202927F
:101C200001D2012000E00020019A0B18D2180028F0
:101C3000019202D08A4202D903E08A4201D20120F5
:101C400000E000200099081800906868A16809F079
:101C500039FF029A12188242029201D2012000E05A
:101C60000020019A0B18D2180028019202D08A4253
:101C700002D903E08A4201D2012000E0002000994D
:101C80000818009028682168400049004008490869
:101C90004018FA49471814E001994000C90F084359
:101CA0000090019802994000C90F084301900298E2
:101CB00003994000C90F08430290039840007F1E1B
:101CC000039000980028E7DA0898002801D0EC4E2D
:101CD00000E00026B74201DA012000E000200028E1
:101CE00004902AD0F71BF806C00E15D0029B2021C5
:101CF000091A039A8B401A430392029A019BC2402D
:101D00008B401A430292019A009BC2408B4000997B
:101D10001A430192C14000917B110DD06F46032000
:101D2000C11A03D500218200B95003E08A00810066
:101D3000BA587A50401EF3D53746039802990028C6
:101D400000D00120014308980291002808460CD0D9
:101D5000002800D001200199019A4905084301217A
:101D6000D20AC902D202019200E001210E9B012297
:101D7000D207012B02D0002B03D013E0002807D19B
:101D800020E0904204D890420CD1019B0B4209D034
:101D9000019B5918019105D10099491C009101D16D
:101DA0007F1C009200280DD0102108460020C0465C
:101DB0000498002806D00F98002803D00821084670
:101DC0000020C04628682168019B009A4840C10F46
:101DD0000598C90739430EC009B0F0BDFFB587B0FB
:101DE000099A0898089953689268406889689646E5
:101DF0000022039317469446089A12685300099AE2
:101E00005B081268520052089A1A9E4BD4180A9A1C
:101E1000002A01D0352200E0402206920022012350
:101E200015460492DB07059324E0002D05D1754685
:101E30000346039E4D1BB34109D375466646039B7B
:101E4000491B049D9841059B7519AC465F4163464B
:101E50003B4308D0059B049EDD0776082E435B08B4
:101E60000496059301E0521E641EC50FED07491844
:101E70004041521C069B9A42D7DB002D04D1754687
:101E8000039A6B1A824101D203200CE0039A0B469D
:101E90006B404240134303D0014303D0012002E0D2
:101EA000022000E00020614601910021009702918C
:101EB0000A99002905D0614640020143704B019107
:101EC00002E08007002302909C4201DA012000E03A
:101ED000002007003AD01A1BD006C00E15D0029D74
:101EE0002021019C091AC5408C402543029C8C404E
:101EF00000D001242543019C0295009DC4408D40E3
:101F000000992C430194C140009154111DD06D469D
:101F10000221002202290CD10320001B07E0002827
:101F200004DB8600AE59002E00D00122401C03289D
:101F3000F5DB081B02D588002A5004E080002858F1
:101F400010438A00A850491EE3D51C460A98002871
:101F500002980CD0002800D001200199019A49056F
:101F600008430121D20AC902D202019200E00121F4
:101F7000109B0122D207012B02D0002B03D013E0CB
:101F8000002807D11FE0904204D890420CD1019B59
:101F90000B4209D0019B5918019105D10099491CA8
:101FA000009101D1641C009200280CD01021084639
:101FB0000020C046002F06D01198002803D0082129
:101FC00008460020C04608980999019A009B0068BD
:101FD00009684840C10F0798C907214382600AC0B9
:101FE0000BB0F0BD00B585B0019300920A460146E2
:101FF000002302A8FFF7FCFD02A807C805B000BD3A
:10200000FFB50A461F4685B0079901930123009149
:10201000014602A8FFF7ECFD02990398049ECA0F3F
:102020004900D20700920F22490892028C1A00211F
:10203000002800DB0C46450013486D08844214D389
:10204000079A002A04DA441E0026104DF64302E0E7
:1020500004460D460E46102108460020C046002FBB
:1020600003D0042108460020C0462005E90A0843A1
:10207000009908436905F20A1143ADE602C0FFFF6B
:10208000013C0000FF3F0000FF070000FFFFFF7F53
:1020900000B585B0019300920A460146002302A8CC
:1020A000FFF79CFE02A807C8A8E7FFB50A461F462F
:1020B00085B00799019301230091014602A8FFF71B
:1020C0008DFE02990398049ECA0F4900D207009220
:1020D0000F22490892028C1A0021002800DB0C46CE
:1020E000450011486D08844214D3079A002A04DA87
:1020F000441E00260D4DF64302E004460D460E46F2
:10210000102108460020C046002F03D004210846B5
:102110000020C0462005E90A0843009908436905E4
:10212000F20A114358E60000FF070000FFFFFF7F9F
:1021300010B5FF231B0644009C421DD84C009C4256
:102140001AD80346124A0B4307D4401A02D3EFF3BE
:10215000008010BDEFF3008010BD081A03D3EFF329
:102160000080904305E0EFF3008001219043C90710
:10217000084380F3008810BD0D231B041A4204D0CD
:102180001146002000F08AF810BD00F09FF810BD45
:102190000000009000487047280020207546FFF797
:1021A000F9FFAE46050069465346C008C0008546A3
:1021B00018B020B5FEF728F860BCB6460026002708
:1021C000C0C5C0C5C0C5C0C5C0C5C0C5C0C5C0C5E7
:1021D000403D490849008D46704710B50446C04649
:1021E000C0462046FDF7E5FF10BD000082078B07C3
:1021F0009A423FD170B5920F0AD0032402780B782F
:10220000401C491C002A33D09A4231D12042F5D1DA
:10221000214EF40104C808C9951B9543254018D1E7
:102220009A420FD104C808C9951B9543254010D187
:102230009A4207D104C808C9951B9543254008D187
:102240009A42E7D012BA1BBA01209A4200D2404209
:1022500070BD12BA1BBA2DBA18241000E040190044
:10226000E140401A05D12E00E64002D1083CF4D1ED
:10227000D01A70BD02780B78401C491C002A09D086
:102280009A4207D102780B78401C491C002A01D0E1
:102290009A42EFD0D01A704701010101C80212D54D
:1022A0004803400F002804D0C803C04301218840E0
:1022B0007047EFF30080000100090321090708437C
:1022C00080F30088704700207047000010B5024876
:1022D00000F004F810BD00000000C07F10B50C46EF
:1022E0001107090F092904D00A290AD008290CD19D
:1022F00004E011460820FFF7D1FF06E0510606D59D
:1023000001E0510601D50120C007214610BDD106CC
:1023100007D501010909CC084907000E000604434E
:1023200009E0410F20024907000A0143200E000680
:102330001D22D14101430846E7E70000014918206A
:10234000ABBEFEE72600020070470000F0B5B7B054
:102350000C93034600273697359734973397329777
:10236000319730972F972E972D972C972B972A9749
:1023700029970220002900D191E0002B00D18EE0A6
:10238000089309919221FB4B0791595C002900D1D8
:1023900085E00F923C980E90912006901C46185CA8
:1023A0000A904B2006010D9606E00125284601F013
:1023B00093FC7F1CBE425DD0902025461090205C8F
:1023C000C00702D0EC4800F029FD1098285C800777
:1023D0000F9E02D5E94801F0A9FBC82F3DD3109804
:1023E000285CC0071CD01AA802F098FA17A802F0BF
:1023F00085FA4920E04A105C4821565C06431C9847
:102400000B901B9A1A991798189D199C009001958A
:10241000F64D029403960F9E30A80B9B07F062F9CD
:102420001098285C800718D514A802F0BBFA11A8F0
:1024300002F0A4FA3420D14A105C3321545C0443E6
:1024400014AB0ECB11AE61CE00900195E74D029614
:102450000F9E039429A807F045F9002E01D00C988F
:10246000B0472C460E9A002A0D9E9ED03846314623
:1024700090479AE70F950E9A002A02D030463146CF
:10248000904725461098205CC0070AD00C200A9976
:1024900048432A1830A807F0E3F9002801D037B0E4
:1024A000F0BD1098285C800709D50C200A99484394
:1024B0002A18483229A807F0D3F90028EFD1069945
:1024C000685C401C6854C0B2062802D2002037B0B5
:1024D000F0BD23A808991CC91CC01CC91CC01DA89C
:1024E00009991CC91CC01CC91CC01098295CC807CC
:1024F00010D1880700D599E023A8089C0EC80EC407
:102500000EC80EC41DA8099C0EC80EC40EC80EC469
:102510000120C6E005912F68ED68384629460AF08B
:102520009FF806460024214609F0F8FB01460620E4
:10253000002900D0B4E006903846294609F092FF01
:102540003F2109060A910AF027F802460F98C107B1
:102550000C928A438A49104609F0D5FB0546894802
:102560003146FEF7AFFD0646874909F0CCFB07462A
:102570002F438649304609F0DEFB384300D08EE019
:102580000D969A4E28361DA8109023A80E900C9DEB
:102590000BE00C994C1C0E99091D0E911099091D08
:1025A00010911C36002800D080E010980D99016031
:1025B0000E9805600C94022C78D0304634680C38A4
:1025C0000568284621460AF04BF80746002109F025
:1025D000A5FB00286AD16B483946FEF773FD074614
:1025E000694909F090FB411E88410B900D973846D0
:1025F000664909F0A0FB0746401E87412846214650
:1026000009F030FF0A9909F0C7FF05460120C1070C
:10261000284688435A4909F076FB00280F9800D1D4
:10262000384600280F98B4D10B98B2E7AE6C6F6DA6
:10263000304639460AF014F804460025294609F0C8
:102640006DFB01461DA80E9023A8109006200029BE
:1026500026D106903046394609F004FF3F2109068D
:102660000A9109F099FF074601200C90C1073846EE
:102670008843434909F047FB0F9042482146FEF743
:1026800021FD0646404909F03EFB04460F980443ED
:102690003E490D96304609F04EFB20430DD006987A
:1026A000524D0021079AA95437B0F0BD0C9802286A
:1026B00006984E4D0599F4D31BE70E9E0C361098E4
:1026C0000C301090494870300F900BE00B994D1C66
:1026D0001099091D10910E9E361D0F991C310F91F6
:1026E000002840D10D983060109807600B95022D9E
:1026F00039D00F9805680C3807683846294609F024
:10270000AFFF0446002109F009FB00282BD10E96EB
:102710001C482146FEF7D6FC06461B4909F0F3FA91
:102720000446401E84410D963046184909F003FBCB
:102730000646401E86413846294609F093FE0A990E
:1027400009F02AFF07460120C107384688430C4993
:1027500009F0D9FA00280C9800D1304600280C98CE
:10276000B4D12046B2E70B98022806981F4D98D3A3
:10277000C2E6C046E0012020F000202058012020C1
:10278000000040400AE89C419A99993FCDCC4C3FCB
:1027900091201649085C704792201449085C7047E4
:1027A0009220124900220A5490200A527047C046D3
:1027B000B0B50321014016D000200C4A0B23DC43A6
:1027C000151900236B65EB60241DF9D10C32401CF8
:1027D0000628F3D19222054C0120A0549122A35443
:1027E0009022A154B0BD0020B0BDC046E001202021
:1027F000F0B589B00190F748002101644164403090
:102800000291018103200690C003F3490860F34C54
:102810002068EFF30581002903D0F14801F000FBA7
:1028200028E02168091A012924D80022014606E07F
:102830002168002230BF23681B1A022B1AD223689A
:102840008B42F5D1E74B9A4202D8521CE34CF1E798
:10285000E2490968081A01280CD80221081AE2493D
:102860004843DBE701F0DCFA0298401C02900328A1
:1028700000D10FE20025284606F0C0FED74B1868AD
:10288000EFF30581002903D0D74801F0C9FA15E01C
:102890001968814212D1014605E01968002530BF50
:1028A0001A6882420AD11A688A42F6D1CD4A954204
:1028B00001D86D1CF3E719688142E5D00025284650
:1028C00006F09CFE1E2825D0C44B1868EFF3058146
:1028D000002903D0C44801F0A3FA15E01968814229
:1028E00012D1014605E01968002530BF1A688242FE
:1028F0000AD11A688A42F6D1BA4A954201D86D1CAB
:10290000F3E719688142E5D0002006F077FE1E2823
:1029100000D095E07E20B62106F0B6FEAF4C2168CF
:10292000EFF305800028B14802D001F079FA20E0E9
:102930002068401A4F281CD80022084606E020686C
:10294000002230BF23685B1A502B12D223688342C7
:10295000F5D1A44B9A4202D8521CA04CF1E79F4CEF
:102960002068401A4F2804D85021081A9E4948432D
:10297000DBE70025284606F041FE2068EFF30581DD
:10298000002903D0984801F04BFA15E021688142F4
:1029900012D1014605E02168002530BF226882423D
:1029A0000AD122688A42F6D18E4A954201D86D1C1E
:1029B000F3E721688142E5D00026304606F01EFE8E
:1029C0001E283DD1039602E0761C062E3AD00698CA
:1029D000704387490D5C08180590477828463946AA
:1029E00006F052FE7D4C2068EFF30581002903D0EC
:1029F0007D4801F015FA18E02168814215D10022C6
:102A0000014605E02168002230BF236883420CD1D3
:102A100023688B42F6D1F34B9A4202D8521CF04CF9
:102A2000F2E7EF4909688142E2D0284606F0E6FD68
:102A3000B842C9D005988078039901430391C3E750
:102A4000FF2003900025284607F038FBE44B186868
:102A5000EFF30581002903D0E34801F0E1F915E027
:102A60001968814212D1014605E01968002530BF7E
:102A70001A6882420AD11A688A42F6D1D94A954226
:102A800001D86D1CF3E719688142E5D0002528467E
:102A900007F014FB0F2825D0D14B1868EFF3058100
:102AA000002903D0D04801F0BBF915E01968814234
:102AB00012D1014605E01968002530BF1A6882422C
:102AC0000AD11A688A42F6D1C64A954201D86D1CCD
:102AD000F3E719688142E5D0002007F0EFFA0F28EC
:102AE00000D0A5E01420B62107F012FBBC4C2168F1
:102AF000EFF305800028BD4802D001F091F920E0F5
:102B00002068401A4F281CD80022084606E020689A
:102B1000002230BF23685B1A502B12D223688342F5
:102B2000F5D1B04B9A4202D8521CAD4CF1E7AC4CF7
:102B30002068401A4F2804D85021081AAA4948434F
:102B4000DBE70025284607F0B9FA2068EFF3058196
:102B5000002903D0A44801F063F915E021688142FF
:102B600012D1014605E02168002530BF226882426B
:102B70000AD122688A42F6D19A4A954201D86D1C40
:102B8000F3E721688142E5D00026304607F096FA47
:102B90000F284DD1049602E0761C062E4AD00698E6
:102BA000704393490D5C08180590477828463946CC
:102BB00007F0AEFA8A4C2068EFF30581002903D0B4
:102BC000894801F02DF928E02168814225D10022B1
:102BD000014615E0F000202090120A40380720201E
:102BE000007102001F4E00008038010000A8610043
:102BF000D8C800002168002230BF236883420CD16E
:102C000023688B42F6D1774B9A4202D8521C744CFF
:102C1000F2E7734909688142D2D0284607F04EFA9C
:102C2000B842B9D005988078049901430491B3E77C
:102C3000FF2004900398049E06432BD0684C216823
:102C4000EFF3058000286B4800D00BE62068401A9F
:102C5000092800D908E60022084607E0206800227B
:102C600030BF23685B1A0A2B00D3FDE5236883423B
:102C7000F4D15C4B9A4202D8521C594CF0E75848A8
:102C80000068401A092800D9EEE50A21081A5649B9
:102C90004843E7E50198002872D0002E70D100F07B
:102CA000ABF9002800D096E004960020544B554C18
:102CB000554D564E564F494A176256629562D46238
:102CC00013634E49516390634B49D16351499161FC
:102CD000064606900390059006E0434801F0A0F8F0
:102CE000781C4D498F425FD2074607AD284607F052
:102CF000B5F928780F2823D1022007AC205EFEF713
:102D0000F3FAA74D294609F047FC069909F0AAFBFA
:102D100006900420205EFEF7E7FA294609F03CFC05
:102D2000059909F09FFB05900620205EFEF7DCFA6E
:102D3000294609F031FC039909F094FB0390761CB5
:102D4000274C2068EFF305810029C6D12168814214
:102D5000C6D10022014605E02168002230BF236869
:102D60008342BDD123688B42F6D11E4B9A4202D8D2
:102D7000521C1B4CF2E71A4909688142ADD0AFE7FB
:102D80000022204C204D214B214F14490F624B62F1
:102D90008D62CC621A480863184848638A631648F3
:102DA000C8631C48886116E0300413D0B0B2FEF747
:102DB000A3FA044603982146FEF784F9074DE8621A
:102DC00005982146FEF77EF9A86206982146FEF78F
:102DD00079F96862049EF0B209B0F0BDF0002020DD
:102DE000380720201F4E00008038010000A8610035
:102DF000F009010000350C007A841D412A98933DAA
:102E00000B6F993EB1EFBBBAB9F3AFBAF0A032BACB
:102E10000F187F3F00002042E7030000F0B587B0A5
:102E20000446122005AE06223146029206F0A4FBAB
:102E30003078717809020818039000B2FEF754FA4E
:102E4000544F394609F0A8FB256A294609F0A4FB2E
:102E5000216B09F005FC2060B078F17809020818B0
:102E6000049000B2FEF740FA394609F095FB294676
:102E700009F092FB616B09F0F3FB606030797179C6
:102E800009020F1838B2FEF72FFA424909F084FB05
:102E9000294609F081FBA16B09F0E2FBA0603046F6
:102EA00007F0DCF83C490498401882B23B4D0123FE
:102EB0000020AA4204931A4600D302467B189BB214
:102EC000AB42049B1D4600D305461543039A511897
:102ED00089B2324A9142194600D301460D43274632
:102EE000483731780F2946D1832000020190022013
:102EF00005AE305E0390FEF7F7F9294909F04CFB67
:102F0000616A09F0ADFBE0600420305E0090FEF7DE
:102F1000EBF9234909F040FBA16A09F0A1FB20610C
:102F20000298365E3046FEF7DFF91D4909F034FBA2
:102F3000E16A09F095FB606101980146009A10185A
:102F400082B2012000230293144B9A42034600D31D
:102F5000029B721892B2114EB242049A00D31A46E2
:102F6000039B5B189BB2B34200D30298002A0499DA
:102F700000D1014608467D703870002802D0206CD0
:102F8000401C2064002D02D0606C401C606407B0BF
:102F9000F0BDC0463333EB3A0083FFFF010600006B
:102FA00058A08B3A80B5002006F028FB80BD80B584
:102FB000002007F083F880BDF0B581B014460D46BF
:102FC000064622206F460222394606F0D5FA797865
:102FD00048093A78D30018189B0A02D01F23DB0255
:102FE000C018002E00D03270002D00D02970002CA7
:102FF00000D0208001B0F0BDF0B59DB000200121CF
:10300000039100900190029001991A9119911891E1
:10301000179116911591149113911291119110918C
:103020000F91084606910E46049110E0C04D2868A5
:10303000EFF30581002900D19DE0079EBE4800F016
:10304000EFFE089A501CBD498A4200D3F5E007966E
:10305000089012201BAF06223946059206F08CFA22
:10306000387879780902081800B2FEF73DF9AF4DBB
:10307000294609F091FA04460C90B878F9780902CB
:10308000081800B2FEF730F9294609F085FA06461D
:103090000D90387979790902081800B2FEF724F901
:1030A000294609F079FA05460E90384606F0D6FF13
:1030B00038780F28BAD102201BAF385EFEF714F91A
:1030C0009C4909F069FA09900420385EFEF70CF972
:1030D000984909F061FA0A900598385EFEF704F9FC
:1030E000944909F059FA0B903046314609F054FAE8
:1030F00006462046214609F04FFA314609F0B2F95A
:1031000004462846294609F047FA214609F0AAF95B
:1031100009F07CF907460698000443D00025079E75
:1031200002E02D1D0C2D14D009A8445912A84159B4
:10313000204608F0DDFD002801D112A844510FA857
:103140004159204608F0EAFD0028EAD10FA8445171
:10315000E7E73846314608F0D6FD0446384604997C
:1031600008F0E9FD002C3C4600D13446002800D18F
:10317000049F002521E0296881426B4C079E00D006
:103180005FE70022014606E02968002230BF2B6875
:10319000834200D055E72B688B42F5D1A24240D83C
:1031A000521CF3E70B9814900A991391099A129202
:1031B0000F921091119000253C460CA8405918AE72
:1031C000715909F04FF9705109A8405915AE71595C
:1031D00009F048F970512D1D0C2DEED1544E306878
:1031E0000699491C0691EFF30581002902D0049746
:1031F000264623E7316881424B4D0FD1002201461C
:1032000005E03168002230BF3368834206D133685D
:103210008B42F6D1AA4209D8521CF4E704972646FD
:103220000FE72968814200D108E70AE73168814247
:103230000497264600D101E703E73046049909F0D8
:103240000FFA3F4908F05FFD411E884106998FB291
:10325000F9084B29039900D30146002912D10F9890
:10326000129909F0FDF9374C214608F04CFD002871
:1032700008D11098139909F0F3F9214608F043FD9D
:10328000002808D0039D002D49D00299481C02292E
:10329000029044D2B8E61198149909F0E1F9214658
:1032A00008F031FD0028039DEDD10498314609F066
:1032B000D9F83F21090609F06FF90446224909F0BF
:1032C000D1F801210091C9078843FF21890508F041
:1032D0001AFD00281D4900D121461D4CE1631B4801
:1032E000FDF7F0FE20623846FEF706F804460B2094
:1032F000C643174887190025FD6315A88019C068C3
:103300002146FDF7DFFE3863361DF2D11248104921
:103310000863104848638D6310488861B3E70098DC
:10332000C0B21DB0F0BDC0461F4E00003333EB3AB3
:103330003807202058A08B3A80380100AF040000E5
:10334000CDCC4C3FEC51383E0AE81CC10AE81C4188
:10335000F00020202A98933D0B6F993E00002042F8
:10336000F0B585B03420F74A0024145433201454A7
:10337000F5489461D4611462046044608460C46060
:10338000F248402101609462D462F14D2868F14E08
:10339000EFF30581002903D0EF4800F041FD1DE067
:1033A0002968091A022919D80022014606E029686D
:1033B000002230BF2B681B1A032B0FD22B688B42C5
:1033C000F5D1B24201D8521CF3E72968081A022845
:1033D00004D803214840E1494843DEE707F0B0FB49
:1033E00003903026D748805DD749087004A9B620DD
:1033F00008707E2001273A4608F02CFA2968D84A3E
:10340000EFF3058000280292104602D000F008FD7C
:103410001EE02868401A31281AD80022084606E023
:103420002868002230BF2B685B1A322B10D22B6821
:103430008342F5D1C74B9A4201D8521CF2E7286863
:10344000401A312804D83221081AC4494843DDE71C
:1034500007F076FBBB49895DBB4E7170039A02434E
:103460007A400392262914D1377306F08BFDBD48AC
:1034700008F08CF904A90F7059203A4608F0EAF9CF
:103480002868EFF30581002918D0B74800F0C8FC80
:1034900046E006F077FDB54808F078F904A90F700A
:1034A00059203A4608F0D6F92868EFF3058100293B
:1034B000A84F1AD0A94800F0B3FC83E02968091A84
:1034C0008B29A64CA34F2BD80022014606E0296881
:1034D000002230BF2B681B1A8C2B21D22B688B4209
:1034E000F5D1BA4214D8521CF3E72968814269D158
:1034F0000022014605E02968002230BF2B68834284
:1035000060D12B688B42F6D1BA4257D8521CF4E7EF
:103510002968081A8B2803D88C21081A6043B5E75C
:10352000592004A901273A4607F06AFB0498307134
:10353000212004A93A4607F063FB3246312604985D
:10354000804988555071022404A920463A4607F064
:1035500057FB04987C4988717A48865D04A90294D7
:103560000C707C203A4608F075F90F203040012895
:1035700002D00398801C03902868EFF3058100298E
:10358000714E764C734F03D0204600F049FC9CE00E
:103590002968814200D098E00022014606E02968AF
:1035A000002230BF2B68834200D08EE02B688B4214
:1035B000F5D1BA4200D984E0521CF2E72968814271
:1035C00000D177E7592004A9012207F019FB0498DC
:1035D00030712968EFF30580002865485D4E02D000
:1035E00000F01EFC1DE02868401A092819D80022A6
:1035F000084606E02868002230BF2B685B1A0A2BB9
:103600000FD22B688342F5D1B24201D8521CF3E7A6
:103610002868401A092804D80A21081A4F49484343
:10362000DEE7212004AF01263946324607F0E8FAEA
:1036300038780F273840012803D0601C132C04462B
:10364000C7D3212004A9324607F0DAFA31240498BE
:103650003C4908553C494871022004A90190324672
:1036600007F0CEFA0498384988713648045D04A9F9
:103670000E707C20324608F0EDF83C40012C02D060
:103680000398801C0390354C324F2868EFF3058176
:10369000002903D0204600F0C3FB3CE029688142AA
:1036A00039D10022014605E02968002230BF2B688D
:1036B000834230D12B688B42F6D1BA4228D8521CB3
:1036C000F4E72968814200D15EE704A9ED20087083
:1036D0004220012208F0BEF82868EFF30581002996
:1036E00003D0204600F09CFB54E02968814251D170
:1036F0000022014605E02968002230BF2B68834282
:1037000048D12B688B42F6D1BA4240D8521CF4E71C
:1037100029688142BED004A9A92008704020012256
:1037200008F098F82868EFF30581002903D02046B7
:1037300000F076FB5DE0296881425AD10022014603
:103740001EE0C046580120209001202090320A40FF
:10375000380720201F4E000080A903008038010098
:1037600000093D0004C9000000E6AA0004E90000C9
:1037700000350C002968002230BF2B68834238D105
:103780002B688B42F6D1BA4230D8521CF4E7296834
:103790008142A6D0422004A901273A4607F030FA18
:1037A0000498B07204A900240C7043203A46DC4F00
:1037B00008F050F82868EFF30581002903D0D948B4
:1037C00000F02EFB44E02968814241D100220146ED
:1037D00005E02968002230BF2B68834238D12B686E
:1037E0008B42F6D1BA4230D8521CF4E729688142A4
:1037F0009DD0402004A90126324607F001FA049822
:10380000C649087204A9019808704120324608F0A0
:1038100021F82868EFF30581002903D0204600F045
:10382000FFFA44E02968814241D10022014605E0C7
:103830002968002230BF2B68834238D12B688B4225
:10384000F6D1BA4230D8521CF4E729688142B6D08A
:10385000432004A901273A4607F0D2F90498F072F0
:1038600004A9A820087040203A46AD4F07F0F2FFA7
:103870002868EFF30581002903D0AA4800F0D0FAA8
:1038800044E02968814241D10022014605E02968CF
:10389000002230BF2B68834238D12B688B42F6D18F
:1038A000BA4230D8521CF4E729688142B6D0412090
:1038B00004A90126324607F0A3F9049897494872F3
:1038C00004A9ED2008704220324607F0C3FF2868A3
:1038D000EFF30581002903D0204600F0A1FA44E06F
:1038E0002968814241D10022014605E02968002271
:1038F00030BF2B68834238D12B688B42F6D1BA4255
:1039000030D8521CF4E729688142B6D0402004A97F
:1039100001273A4607F074F90498307204A9029816
:10392000087041203A467E4E07F094FF2868EFF376
:103930000581002903D0EB4800F072FA44E02968C1
:10394000814241D10022014605E02968002230BFB2
:103950002B68834238D12B688B42F6D1B24230D8E3
:10396000521CF4E729688142B6D0422004A90126FE
:10397000324607F045F904986849887204A9002482
:103980000C704320324607F065FF2868EFF305818D
:10399000002903D0D34800F043FA49E02968814266
:1039A00046D10022014605E02968002230BF2B687D
:1039B00083423DD12B688B42F6D1BA4235D8521C96
:1039C000F4E729688142B6D0412004A90126324695
:1039D00007F016F904985149487204A90E270F7090
:1039E0007D20324607F036FF2868EFF30581002975
:1039F00004D04D48494E00F013FA51E02968091AE5
:103A00006329464E4CD80146224606E0296800222A
:103A100030BF2B681B1A642B42D22B688B42F5D126
:103A20003F4B9A4233D8521CF2E729688142B1D009
:103A3000432004A90126324607F0E2F80498374BE8
:103A4000D87204A906270F707D2032461E4607F063
:103A500001FF2868EFF30581002903D0029800F0E8
:103A6000DFF93DE02968091A312939D8014606E015
:103A70002968002430BF2A68121A322A30D22A68F4
:103A80008A42F5D1264A944220D8641CF2E729687C
:103A9000081A632804D86421091A92484843AAE7FF
:103AA0007D2004A901252A4607F0AAF80498F071A0
:103AB0001B2004A92A4607F0A3F874730498B07376
:103AC000F07938400E2816D1039C16E02968081AB0
:103AD000312805D83221081A824941430291BDE7B5
:103AE0007D2004AD0122294607F08AF82878F0717C
:103AF0000740062FE8D0039C241D707A0321014063
:103B0000022902D1F07A400700D0083405F07EFF88
:103B1000322070490C54204605B0F0BD90012020A1
:103B20001F4E00008038010000127A00F0B589B005
:103B3000044606AD0C202946024607F061F82878B5
:103B4000697809020818059000B2FDF7CDFB494ECF
:103B5000314608F021FD2060A878E97809020818AC
:103B6000049000B2FDF7C0FB314608F015FD60601F
:103B70002879697909020818039000B2FDF7B4FBAF
:103B8000314608F009FDA060A879E9790902081812
:103B9000029000B2FDF7A8FB374E314608F0FCFC5E
:103BA000A16908F05DFDE060287A697A09020F18C2
:103BB00038B2FDF799FB314608F0EEFCE16908F0F8
:103BC0004FFD20612D4EB81981B22D4B01200022EE
:103BD0009942014600D31146AF7AED7A2D02ED19D4
:103BE0000195AF19BFB29F42074600D317460F4356
:103BF0000299891989B29942014600D311460F43AF
:103C0000216A0291332167540499891989B2994232
:103C1000014600D31146039E184D7619B6B29E4256
:103C2000064600D316460E430599491989B29942B2
:103C300000D310460643204633304670019800B248
:103C4000FDF752FB0C4908F0A7FC029908F008FDAB
:103C50006061012F03D0002E06D109B0F0BDA06A2B
:103C6000401CA062002EF8D0E06A401CE06209B05F
:103C7000F0BDC0460AE81C3B58A08B3A0083FFFF0A
:103C80000106000010B582B0002001AC01222146DF
:103C900006F0B6FF207802B010BD000010B582B06B
:103CA000222001AC0222214606F0AAFF207861788A
:103CB0000902081800B2FDF717FB3B21090608F0BE
:103CC0006BFC034908F0CEFB0249486202B010BD0C
:103CD0000000B8415801202080B50249484300F057
:103CE0009FF880BD8038010010B50C4801690C4A6E
:103CF00011400161FF21090403688B430121CC05B8
:103D00001B19036003681340032292039A18026090
:103D10000448022202604904016010BD00E400E092
:103D2000FF00FFFF00E100E0EFF3108072B6704784
:103D300062B670477D20800170470000014800682E
:103D400080B2704700988640344A12689206920FFB
:103D500004D0081A01D2044940187047884201D2A1
:103D6000014A8018401A7047102700000C4800686C
:103D7000022809D0012811D10B48016889030DD50B
:103D800010300121490406E0064805218903026834
:103D90000A4203D0103002680A4302607047C046EE
:103DA0003011404038300A4038100A400648026856
:103DB0003F211140102902D3044A054B136000290A
:103DC00000D081617047C04660000B4024030B4067
:103DD000010000CE014800787047C046140320203F
:103DE00080B502F0CDFD80BD064800BF401EFCD16D
:103DF000BFF34F8F044805490160BFF34F8F00BFE9
:103E0000FDE7C04600350C000CED00E00400FA05AB
:103E10000248016801220A43026070470498864004
:103E2000811E091F00BFFCD270470000B0B5536867
:103E300094681C4393892343146955691C43D389AF
:103E40002B431B0123430C01041909256D02635107
:103E5000137852781A43BF231A40890040188049CA
:103E600044589C43A2184250B0BDC04680B50223BE
:103E70001343204A83508218D16107F01DFE80BD94
:103E8000F0B585B014460D46049001201946014056
:103E90004A424A415E1E1946B141114000D00420F9
:103EA000012924D1134804990818039012480818CE
:103EB00002900A9801909F1E049E30462946019A5E
:103EC00000F028F8012003990860029A0B4810605E
:103ED000CD612068D06060681061304607F0ECFD6D
:103EE000002F04D0BF1E083508340128E5D105B0E5
:103EF000F0BDC0460411000024110000FF010000C5
:103F00000021C943024A8150801841608160704796
:103F1000D0110000F0B583B002920D4601907F4CA5
:103F200020680526266007273840294B196820603D
:103F3000226826603A40186822600095AD0A89041C
:103F40008A0F294609D023490840511C07F0B8FCC4
:103F500001462846FCF752FB1D4B206826601A6874
:103F600038402060206826601A68384020600120B0
:103F70008202029B934208D0420293420ED1164A1B
:103F8000009BDB0B0CD1121F03E01F210D40124AD6
:103F90003C32019BA84099588143995003B0F0BD31
:103FA000FF290BD8236826603B40094D2D6823600C
:103FB000AB049B0F00D12039CD08EAE70302FF33A1
:103FC0009942EBD2FF23DB43C918CD08121DE0E76D
:103FD0001800C441FF0F0000D4110000B0B5112239
:103FE000120283580C4C1C400B894D881D438B7961
:103FF0002B430A4D1D4063198350CB798C881C4399
:10400000097821435D239B001940801842689A4338
:1040100051184160B0BDC04680CCFFFF7F33000027
:104020000F494118034A80180A685207FCD40068F7
:10403000C0B270473011000010B50122120383187E
:104040000C785C604978815010BD0000044A8218E9
:1040500045239B01C01813689B07FCD5016070477E
:1040600010110000F0B584B0012422022A4B196817
:1040700003929143196049490D686D04FCD5457E52
:1040800025409E69A64374199C612024045D032584
:104090002C40DE69AE433419DC61204C25680526CE
:1040A0002660466A37681F6276685E6207262E4081
:1040B0002660C4697F252D02DE69AE436406640C68
:1040C0003419DC610768456882680092C668026935
:1040D0000192426902929A69114C14403A07120BFC
:1040E0002D03ADB2AA183243009D2D072D0D1543A7
:1040F000019A1543029A1543007E2843094A02405B
:10410000101998611868039A1043186008688005B0
:10411000FCD504B0F0BDC04608010B400013404080
:104120008D00F0FF72FF0F00F0B5124B1D46083DE9
:104130002E680124A6432E600326360330401F68F4
:10414000B743381818601868FF26B043C9B2401842
:10415000186028682043286018682107002A06D0C4
:10416000084318600D480168C905FCD5F0BD8843B7
:104170001860F0BD10010B400749886007480268CD
:104180009202FCD5012212040B6813430B600168F4
:10419000C906FCD57047C04604010B4004020B4021
:1041A000F0B583B04A79002A29D01B4A1B4B1C4E1C
:1041B0000F7921242401202F00D070348518C318D2
:1041C0008219002F00D188241668474F3E403619C7
:1041D000166056683E40341954602C68804E344056
:1041E0002C606C6834406C6000241C605C608F2321
:1041F000DB4314691C40146154691C4054610B7901
:1042000001AA13718B79937109680191114600F02D
:1042100009F803B0F0BDC046381800005818000077
:1042200078180000F0B584B06B4A82180292734B84
:10423000C618784BC21800922A4BC4180A7901910B
:104240000D68294F202A03920AD0254BC018002A56
:1042500017D16B1E029A536023683B40882517E0F4
:10426000681E029A506020683840204B1843206036
:104270006068384018436060012045071C4F1046B5
:1042800008E06B08029A536023683B400525ED0166
:104290002B432360009903683B402B430360306845
:1042A0004F4B184030607068184070600020086004
:1042B00048608F20C0432369034023616369034042
:1042C00063610198807903990843BD21014010681A
:1042D000084B0340C818801C106004B0F0BDC046F5
:1042E000741800007018000024493E00010400000A
:1042F000FFFFFFCF4000FFCF70B5374A82184B68F1
:1043000053603E4BC3180878222857D8840001A573
:104310002C59A746B3430000BD430000B34300003F
:10432000BD430000BD430000BD430000BD4300008D
:10433000BD430000BD430000BD430000BD4300007D
:10434000BD430000BD430000BD430000BD4300006D
:10435000BD430000A1430000BD430000A143000095
:10436000BD430000BD430000BD430000BD4300004D
:10437000BD430000BD430000BD430000BD4300003D
:10438000BD430000BD430000BD430000BD4300002D
:10439000BD430000A1430000BD430000A143000055
:1043A000032424071568A543012464072C1914600D
:1043B00004E0032424071568A54315600C8AD46023
:1043C000CC68064D25401C68054E264074191C60BB
:1043D000097A0143116070BD04180000777702006C
:1043E0008888FDFF10B507239B04194092008018B0
:1043F000024A84589C436118815010BD3018000057
:1044000010B5029CA400001911431943014A8150C0
:1044100010BDC0465018000092008018014A81501B
:104420007047C0461018000010B50122120383180F
:104430000C789C604B7883508978014A815010BD7C
:104440000C11000010B511231B02C418D0001C4B26
:1044500081420CD22068184001231B0403432360CF
:10446000032353438801194607F02AFA12E0206813
:1044700018401301994206D20123DB031843206040
:10448000C800510802E02060C800114607F018FA81
:10449000401C400821690B4A0A40810989B2511821
:1044A00021613F21084062698A4310186061606899
:1044B0000121084062688A431018606010BDC04640
:1044C000FF7FFEFF0000FFFF10B5002A0CD0074B56
:1044D000C31800201C68640705D4DC690C54401C18
:1044E0008242F7D1104610BD002010BD0811000017
:1044F000B0B51122120283580124A34383508B7854
:104500000C881C438B882343094C1C408358094D5D
:104510001D402B1983508B79CC791C43097A214398
:104520007E231940801842689A4351184160B0BDFB
:1045300018670000E798FDFF10B5012212038318E9
:104540000C789C604978815010BD000000A0704735
:10455000312E340080B5FFF709FC80BDB0B52421B1
:10456000F14AB44B44182546243D2D6855505D183A
:104570000C3D183C24682C60091D3029F2D1B0BDD7
:10458000F0B5A3B009910021219120911F911E91B6
:104590001D911C911B911A911991189117911691C7
:1045A0009C18069400D33EE1A14CA24200D93AE106
:1045B000002800D137E102920322099C144009949B
:1045C00000D130E1994A9B185B1E934200D22AE148
:1045D0002A990491299903912899089110A90246D2
:1045E00038CA38C138CA38C12421CF4FF34E7A585F
:1045F00000247C500DAB5B18243B1A6072180C3AF7
:10460000136814600AAA5218243A1360091D30294D
:10461000EDD10594019006980028029C5FD00125F9
:10462000099805400021059107E00120FFF754FBA0
:104630000799491C0698814251D0002D079103D05B
:104640003846FEF7EBFB07990998022803D330465A
:10465000FFF76CFA0799049A002A03D008460699D6
:1046600090470799A14203D20899002934D1DCE789
:1046700000241CAE16AF089904E008370836241D44
:104680000C2C21D0002D0DD0A7480019C068FCF7D4
:10469000EFFC02460B4603CE083EFCF769FA03C660
:1046A0000899083E09980228E7D3C4480019C06851
:1046B000FCF7DEFC02460B4603CF083FFCF758FA36
:1046C00003C70899083FD8E70598401C0590BB4EE2
:1046D000954F029C0029A8D003988847A5E7049A23
:1046E000002A02D00698014690470598002800D17C
:1046F0008DE00121099A06910A400892FCF7B5FC69
:1047000007900F461CAE002416AD04E00835241DAA
:1047100008360C2C1BD00898002809D003CE079A25
:104720003B46083EFCF754FAFCF768F810A908511C
:1047300009980228EAD303CD079A3B46083DFCF7C7
:1047400047FAFCF75BF810A90919C860DEE706987C
:10475000C10710988843384C214607F0D4FA064622
:10476000139F3846214607F0CEFA044634433349B6
:10477000384607F0E0FA2043904E6B4F47D10020B7
:10478000042503E0501C2D1D012925D002460228D6
:1047900022D0099210AC6019C6683046264907F04D
:1047A000B2FA0746401E87413046244907F0C3FA53
:1047B0000646401E864160590121C90788431E49AB
:1047C00007F0A1FA0028069800D130460028069983
:1047D000099AD7D13946D5E7012A784E524F16D9D2
:1047E00010A90198024638C938C238C938C22421F4
:1047F00042181346243B1B687B5073180C3B183A35
:1048000012681A60091D3029F2D101210BE00F98BE
:104810000E990D9A7A62B962F8620AAA07CA3346FB
:10482000183307C30021084623B0F0BD40D8F6FF77
:10483000C0270900580120203333B33E3333B3BEC1
:1048400070B590B00C4605460E4E46430320C64157
:1048500002F0BEFF0C48864201D910B070BD601B4B
:104860000A4940187D21C90007F02AF803466C4622
:10487000402107A22046FBF7D7FC204604F0C0FAEF
:1048800010B070BDD578E92637894100E7030000F4
:1048900043414C5F52454D41494E3A25750A00004F
:1048A000B0B50446204D28680E49096807F0D8FEC7
:1048B0000D49096807F070FE206068680B490968B7
:1048C00007F0CEFE0A49096807F066FE6060A86836
:1048D0000849096807F0C4FE0749096807F05CFE4B
:1048E000A060B0BD74022020800220207802202029
:1048F000840220207C0220208802202010B504465B
:104900000948C168026906C4406903490968083C4E
:1049100007F042FEA06010BD1C00202002490CC917
:1049200009680CC001607047F0002020B0B5044653
:10493000224DA868EA49096807F092FE0E49096805
:1049400007F02AFEA0602868E449096807F088FE9D
:10495000E849096807F020FE60600120C107686827
:104960004840DD49096807F07BFEE149096807F026
:1049700013FE2060B0BDC046A0022020B0B50446A2
:104980000E4DE868606006480068696907F004FE3B
:10499000A0600120C007296941402160B0BDC04628
:1049A0002000202010B505490CC909680124E4073E
:1049B0005C4004604260816010BDC0465801202008
:1049C00080B5002803D04F496822FBF7F9FB80BD72
:1049D000B0B5002804D04D491CC91CC03CC93CC01E
:1049E000B0BDC046B0B5002804D050491CC91CC099
:1049F0003CC93CC0B0BDC04610B500281CD0014623
:104A00002831484A136B0360536B4360936B836098
:104A1000D26BC2603F4A18CA126803614461826166
:104A20003D4A18CA1268C361046242623B4800787A
:104A300008703B480078487010BDC04670B5F74814
:104A4000007800281FD0F64800242D4D214622462C
:104A50002B4601F033F9F3487F21CE050660446010
:104A60008460C46028490164EF48214622462B46F1
:104A700001F024F9ED48066044608460C46004617C
:104A80004461846117E06422E64800218154E74ACA
:104A900041648164C1640165416581657F23DB05F3
:104AA000136051609160D160116151619161036047
:104AB00041608160C1600C20154900240C54103005
:104AC0003C28FAD113480460446084601248D849F5
:104AD0000460446081601148047011480470D54836
:104AE0001149074B224601F0E9F8D3487F21C90557
:104AF00012C0046044608460C460046170BDC0463C
:104B00006F12833A880020204ED1113C3C012020B6
:104B1000DC032020AC012020A00120207C042020E8
:104B20007D0420200C042020CDCC4C3EC40120204C
:104B3000F0B589B0049202910390644800270760A1
:104B4000634807606348076063480760634807601D
:104B5000634807607F20C0056249086062490860B9
:104B600062490860624908606249086062490860F9
:104B70000193002B00D1A7E00498002800D1A3E006
:104B80000298002800D19FE00398002800D19BE004
:104B90000E98002800D197E001200890C1070398E3
:104BA00000688843554907F0AEF805460498066842
:104BB0005349304607F0A7F804462C435149304684
:104BC00007F0B9F820437FD10797069705E0491C05
:104BD00006913F1D0028079D4DD1079D0198C4599E
:104BE0002046474907F08FF80646401E864120467A
:104BF000444907F0A0F80446401E84410298C05979
:104C000001210791C907059188433C4907F07BF8CA
:104C10000028089800D120460028089800D1304686
:104C2000012828D0082F28D00498C01944682046AD
:104C3000334907F068F80646401E86412046314950
:104C400007F079F80446401E84410398C019406873
:104C500005998843294907F056F80028089800D19B
:104C6000204600280898069900D130460129AED880
:104C700000220792ABE7E80726D0039A03CA134B3A
:104C800019601349086010681249086002990868A1
:104C9000114A10608868124A106048680F4908601D
:104CA000049908680F4A10608868104A10604868C4
:104CB0000D490860019908680D4A106048680D4A5E
:104CC000106088680C49086009B0F0BD78022020A7
:104CD000740220207C0220208C02202090022020C0
:104CE000940220208002202084022020880220209C
:104CF000980220209C022020A0022020000040409A
:104D00009A99993FCDCC4C3F411E88414349087048
:104D10007047C046F0B587B01D461446069102465E
:104D20003E4800780D9B0C9E0028059334D03C4FE4
:104D3000384611460392069A234601F083F83B4613
:104D400030330FCB374F0FC704F0F0FD364F3846E6
:104D500029463246059B01F075F8384600F0D1FF30
:104D6000386B0290786B0190B86B0090FB6B0494E9
:104D70002E4C28467D6E3146BE6EFF6E029A226032
:104D8000019A6260009AA260039AE3602561054679
:104D900066610E46A761049CF84800780321014033
:104DA00003291AD11046294607F05CFB3F210F0664
:104DB000394607F0F1FB05460698314607F052FBED
:104DC000394607F0E9FB06462046059907F04AFBFD
:104DD000394607F0E1FB04460CE0C10703D1800728
:104DE00004D5059C03E0069E154603E0104CC01751
:104DF000054006400F4F384629463246234601F00B
:104E000021F8384600F07DFF3B4630330FCB0A4C8B
:104E10006437E0CFEFC407B0F0BDC04611062020D4
:104E20009004202088002020A40220203C01202083
:104E30000AE81C410C042020C40120200321084062
:104E400000D00146CD4801707047C046F0B581B032
:104E500005461D4C0846214607F004FB06461B4943
:104E600006F051FF074620463146FCF72BF97F211B
:104E7000CC05002F274600D107461549304606F0DD
:104E80005AFF0028204600D13846C4490860284609
:104E90000D4F394607F0E6FA05460C4906F033FF98
:104EA000064638462946FCF70DF9002E264600D165
:104EB00006462846064906F03EFF002800D1344643
:104EC000B448046001B0F0BD0000B4430000C34327
:104ED0000000A543F0B599B01890A84F3878C007E6
:104EE00002D0A748FDF79AFF3878800702D5A54879
:104EF000FEF71CFEA448007800283FD03878C00791
:104F000022D09F4F3FCFA14E33617461B5613346CC
:104F10001C3307C34820183F385C002814D19C4C30
:104F20001898A06078699B49096807F035FB03462B
:104F3000F9683A69204601F061F864200121315492
:104F4000234630330FCB0FC68C4F3878800715D5EA
:104F500033208C4E305C002810D18F4C1898A06004
:104F60008E480068716907F017FB03460120C007EF
:104F7000F26831694140204601F040F83420814D0B
:104F8000285C424242413320285C414241413F7803
:104F900002203840400801401491069210400D90C4
:104FA0004920774A115C48421391484138400C909F
:104FB0004820105C464246413E40506975490968A8
:104FC00007F0EAFA0B9001200E90C40728690590BB
:104FD0006040079068697149096807F0DDFA099037
:104FE000674D28686E49096807F03AFB6D49096802
:104FF00007F0D2FA179068686B49096807F030FB30
:105000006A49096807F0C8FA1690A86868490968EB
:1050100007F026FB6749096807F0BEFA1590594D5D
:1050200068686549096807F01DFA444063480068EC
:10503000214607F0B1FA119028686149096807F024
:105040000FFB6049096807F0A7FA1090A8685E494D
:10505000096807F005FB5D49096807F09DFA0F90A4
:10506000E86808904648C16800690A901297F807F6
:1050700052D1002735461298800700D4CAE0149810
:10508000069A02400027002A00D1C3E00C4613977D
:105090001098014607F080FA06461198014607F07D
:1050A0007BFA314607F0DEF906460F98014607F015
:1050B00073FA314607F0D6F90746454906F023FE54
:1050C0000646401E86414349384606F034FE002815
:1050D0000E9800D130460028139F214600D099E059
:1050E0000898014607F058FA06460598014607F069
:1050F00053FA314607F0B6F906460998014607F01B
:105100004BFA314607F0AEF9334906F007FE214667
:105110000746401E87417DE0139A5042504130407F
:1051200000270128354675D10C461397169801467D
:1051300007F032FA06461798014607F02DFA314675
:1051400007F090F906461598014607F025FA314612
:1051500007F088F90746F44906F0D5FD0646401EDB
:105160008641F249384606F0E6FD00280E9800D147
:105170003046002832D0139F21464BE024002020E7
:10518000F000202058012020110620208800202037
:10519000900420201C002020A40220202000202099
:1051A0007402202080022020780220208402202007
:1051B0007C022020880220208C02202098022020BF
:1051C000900220209C02202094022020A002202077
:1051D00041AEFF4239008A4217B7D13A0A980146D8
:1051E00007F0DAF906462046214607F0D5F93146A0
:1051F00007F038F906460B98014607F0CDF931461D
:1052000007F030F9CA4906F07EFD21460028139FB9
:1052100000D186E100970195149C0294C54E30465A
:10522000079A189B06F010FAC34907900860009788
:1052300001950294304610300A99089A189B06F09E
:1052400003FA0890BC494860139700970A950195A6
:105250000294203630460B99099A189B06F0F4F90F
:105260000990B54988601698014607F095F90446FB
:105270001798014607F090F9214607F0F3F8044625
:105280001598014607F088F9214607F0EBF8AB497D
:105290000B9007F0E7F80590109C2046214607F098
:1052A0007BF90546119E3046314607F075F92946CF
:1052B00007F0D8F805460F9F3846394607F06CF9D5
:1052C000294607F0CFF806909C4907F0CBF80490E8
:1052D00001250C9B194669400D9A0A42384637460B
:1052E00046D155402B421598169C179F40D1184621
:1052F0001043012839D18D490B9C204606F01BFD37
:105300000028069D00D0F5E08749204606F0FBFC0A
:10531000002800D0EEE08549284606F00CFD002864
:1053200000D0E7E08049284606F0EDFC002800D0D8
:10533000E0E01798119907F095F83F210D062946EE
:1053400007F02AF907461698109907F08BF82946B6
:1053500007F022F9044615980F9907F083F82946BB
:1053600007F01AF90D9A0C9B02E0002475482746B5
:1053700075493E460F604C600B9088607348139DE2
:1053800005708B4818998160002B0E9F384600D11C
:1053900010460A990029394600D1149901406C48F9
:1053A0000170032012990140032952D11D4015407C
:1053B000012D00D097E01798119907F051F9189036
:1053C0001698109907F04CF9054615980F9907F0B3
:1053D00047F907462846294607F0DEF8054618989B
:1053E000014607F0D9F8294607F03CF8054638464B
:1053F000394607F0D1F8294607F034F88121C9056C
:1054000006F081FC00286ED12046214607F0C4F842
:1054100004463046314607F0BFF8214607F022F82F
:1054200004460B98014607F0B7F8214607F01AF832
:105430000446484906F072FC0546401E854146492F
:10544000204606F055FC411E8841284000283FD1E7
:1054500049E02046214607F09FF804463046314691
:1054600007F09AF8214606F0FDFF04460B98014626
:1054700007F092F8214606F0F5FF0546354906F09B
:1054800042FC0446401E84413349284606F053FC42
:10549000002800D12746002F25D10898014607F0A3
:1054A0007BF804460798014607F076F8214606F097
:1054B000D9FF04460998014607F06EF8214606F028
:1054C000D1FF1B4906F02AFC411E884100280AD062
:1054D00019480EC81C4D31CD00AE31C6344800F01D
:1054E0007FFD19B0F0BD14480EC8314800F086FDAC
:1054F00019B0F0BD124A049911400598104006F009
:1055000002FC0028119F00D1179F0028109C0D9AC3
:105510000C9B00D1169C00280F9800D028E7159806
:1055200026E70127A7E5C04641AEFF4239008A427F
:1055300017B7D13ADC032020AC0120203D57C0C270
:10554000FFFFFF7F0AE81C41A00120207D042020EE
:105550007C0420204091E9423B1D9B42F0B581B084
:105560001048007800280ED004F0E0F90E4C2046D8
:1055700000F0C7FB234630330FCB0C4D666EA76E91
:10558000E46ECFC52C600A4C204600F0BAFB2346DF
:1055900030330FCB074D666EA76EE46ECFC52C601F
:1055A00001B0F0BD11062020A40220203C012020E3
:1055B0000C042020C401202010B5002824D001466E
:1055C0002A31344A18CA18C013685468446003600A
:1055D0009368D468C4608360136B8361536BC36149
:1055E0004023083AD35A03844623D35C0B704723E5
:1055F000D35C4B70136A546A446103614820105CA9
:1056000088704920105CC87010BDC04646202149F2
:10561000085CC11E484248417047C0464B201D49A6
:10562000085C704710B51B4C30212046FAF7E4FFA8
:105630004621002060544A2160544821605247218D
:1056400060544B2160547F21C90521636063A063CE
:10565000E0632064214634310882E0644C34A08049
:10566000A07110BD4A200B4901220A547047C04660
:1056700010B50146002000290AD04B22054B9C5C46
:10568000002C05D0D86C1C6D11C10020985401204D
:1056900010BDC04600052020F0B591B00F920E4617
:1056A000074600240846214606F038FB0546C74950
:1056B0001096304606F027FB284300D02AE13846F2
:1056C0002830002F0B9065D00078002862D000248D
:1056D0002646B8590121CD07A843890706F013FBD8
:1056E000002857D1361D102EF3D1F869A843B849C8
:1056F00006F009FB00284DD1386AA843B44906F0EA
:1057000002FB002846D1786AA843B14906F0FBFAAB
:1057100000283FD13869A843AE4906F0F4FA0028C2
:1057200038D17869A843AB4906F0EDFA002831D1A9
:10573000B869A843A74906F0E6FA00282AD1786894
:10574000014606F029FF04463868014606F024FFAA
:10575000214606F087FE0446B868014606F01CFFA5
:10576000214606F07FFE0446F868014606F014FF65
:10577000214606F077FE0446974906F0CFFA054623
:10578000401E85419549204606F0B2FA0446401E67
:1057900084412C40002C00D1BCE04420904A0021E0
:1057A00000900A911152FD68284629460E9506F090
:1057B000F3FE04460890BE68304631460C9606F06B
:1057C000EBFE214606F04EFE014606F04BFE01467A
:1057D0007F20C005099006F043FF044638680D900D
:1057E000294606F0D9FE05460490786802903146B5
:1057F00006F0D2FE01460390284606F031FF01462E
:1058000006F030FE0146386A079006F0C5FE0646EF
:10581000F96906910194204606F0BEFE314606F075
:105820001FFF06460D980C9906F0B6FE0446029D31
:1058300028460E9906F0B0FE214606F013FE0146FA
:1058400006F010FE796A059106F0A6FE314606F0D4
:1058500009FE06460398049906F004FE014606F088
:1058600001FE07462846294606F096FE089906F0EE
:10587000F9FD014606F0F6FD0146099806F0F0FE36
:105880000146079806F088FE04463846069906F059
:1058900083FE214606F0E6FD044628460D9906F0F3
:1058A0007BFE05460C980E9906F076FE294606F01A
:1058B000D7FE014606F0D6FD0599F64D06F06CFEC2
:1058C0000146204606F0CEFD2A4604464A20295CC1
:1058D00025460E96002941D0089610950A99115434
:1058E00038460D97394606F057FE0546019E30466C
:1058F000314606F051FE294606F0B4FD0546E6495C
:1059000006F0F6F900286DD10998E24D28630020D1
:105910000D90A4E04422DF48815A132901D8491C84
:1059200081524621435C022B04D1825A142A07D2A9
:1059300011B0F0BD825A435C012BF9D1132AF7D97B
:105940004922012383540322425447210022425416
:10595000026142618261C26111B0F0BD4621505CBA
:105960000228E5D10E91116A30460C91164606F0D8
:1059700077FE0446776A2846394606F071FE0546EA
:10598000014606F009FE06462046214606F004FEC2
:10599000314606F067FD0B994978002600290AD0A8
:1059A000C14906F0B0F9002805D14220B94E305A5D
:1059B000C72804D8461C4220B6490E520E46422043
:1059C000305AC72800D99AE0002199E0CDCCCC3DCF
:1059D000000048430000C8429A99993FCDCC4C3F03
:1059E0000005202028460A9906F098F9002828D1B9
:1059F000BF200106284606F0CFFD06466808A749E5
:105A00000F1A3046394606F0C7FD394606F0C4FD88
:105A1000FF218D05294606F025FD394606F0BCFD1F
:105A200007463046394606F0B7FD394606F0B4FD64
:105A3000294606F017FD01463846019E06F0ACFDEA
:105A40000A9030460A9D294606F0A6FD914E306325
:105A50000D98294606F0A0FD01210D91354601263D
:105A6000002700996F522F64686330212846FAF7A7
:105A7000C3FD4B200C902F5449202F5447200A90EF
:105A80002F540F98A863EF6385480440854D204646
:105A9000294606F038F90446401E84410E98804994
:105AA0000840294606F02FF9411E88410B99497894
:105AB0000029324600D00246002A109D00D1264619
:105AC000002E744B08D101270A981F544220C82287
:105AD0001A52089818625D62462002221A54482021
