:020000040000FA
:10000000202B2020F9010000AD4D0000FF01000071
:1000100000000000000000000000000000000000E0
:1000200000000000000000000000000001020000CD
:1000300000000000000000000302000085560000E0
:10004000070200005B400000AD5600000702000000
:10005000070200000702000007020000070200007C
:10006000000000000702000007020000000000007E
:100070000000000007020000DD720000070200001F
:10008000070200008D560000070200000702000072
:10009000070200000702000000000000000000004E
:1000A000070200000702000000000000000000003E
:1000B0000702000000000000070200000702000025
:1000C00000F002F800F06CF812A030C808382418CC
:1000D0002D18AC4201D100F063F80FCCA246AB461C
:1000E0000CA730CF2D1B083F3F197C427F1E544484
:1000F0002D090426F441641EAC4201D300F050F8EF
:100100000126334200D0FB1A3343984754465D46DC
:10011000DFE7000044DC000064DC000000000000B9
:10012000103A02D378C878C1FAD8520701D330C840
:1001300030C101D504680C60704700000000000069
:100140007047000000000000002300240025002666
:10015000103A01D378C1FBD8520700D330C100D583
:100160000B60704710B5662902D109F065FB10BD20
:10017000752902D100F0A2F810BD732902D101F057
:10018000F8FA10BD002010BD1FB501F0DBFB040024
:100190000020002109F0AAF9E0601FBD10B510BDD4
:1001A00001F0BCFF1146FFF7EFFF08F011F901F075
:1001B000D4FF03B4FFF7F2FF03BC02F07FF80000A6
:1001C00070B505460C46164602E00FCC0FC5103E32
:1001D000102EFAD2082E02D303CC03C5083E042EFB
:1001E00007D301CC01C5361F03E021782970641CB8
:1001F0006D1C761EF9D270BD06480047FEE7FEE78B
:10020000FEE7FEE7FEE7FEE703480449044A054B24
:1002100070470000C1000000200B2020202B202070
:10022000201B2020201B20200FB41CB50C0007AA87
:10023000009007D04142A14202D30019401E01E0C4
:100240000020C043074B7B4469460190069801F0AB
:1002500062FA0020002C01D0009908701CBC08BC78
:1002600004B01847F314000070B50C460546012A87
:1002700005D02878800600D5EA69002302E0012332
:1002800005E05B1C934202D2E05C0028F9D1A8692A
:10029000E618C01AA861286AC01828622846C04615
:1002A000C04604E06A682078A968641C9047B4429C
:1002B000F8D32846C046C04670BD0000F7B50025FB
:1002C00075291068009914A611D0C046C0460028B0
:1002D00002DA404211A608E0009909688A0701D5B0
:1002E0000FA602E0490704D50EA6012501E0C0468D
:1002F000C046009F0024243704E001F03EFA30316C
:100300003955641C0028F8D12B4632462146009806
:1003100000F09AFFFEBD0000000000002D0000006C
:100320002B00000020000000F3B50446002081B03F
:1003300020622046E1688847002872D0252802D034
:100340006268A1689AE0E168204600268847054671
:100350000020E0610746A0612A2D0AD0284608F057
:1003600050FD002827D0B8000019303D009085616D
:1003700019E00298BA00121902C891610290204651
:10038000E1688847012F054617D1E06900281FDA88
:10039000202086431CE000980A2180694843009988
:1003A0004019303888612046E1688847054608F0E2
:1003B00028FD0028EFD1012F0AD02E2D08D120468C
:1003C000E16888470546202006437F1C022FC3DBD7
:1003D000A069002803DA4042A06101200643F0072B
:1003E00001D0102086436C2D0AD0682D08D04C2DEA
:1003F0003CD06A2D38D0742D38D07A2D36D016E006
:10040000E1682F4620468847B84205460AD16C2F3E
:100410002AD001208002E16806432046884705462D
:1004200005E02FE06C2F1DD0FF2001300643002D8A
:1004300028D028464138192803D80120C002064395
:100440002035204626602946029A1646FFF78AFE86
:10045000002810D001280BD0F61DF008C00008308D
:10046000029066E74020E1E78020D4E70020D2E751
:10047000361D02965DE762682846A1689047206AAB
:10048000401C55E7206AFEBD0346F0B50B439B07B1
:100490002DD1244DEF01042A29D308C810C95E1BB1
:1004A0009E43121F3E4017D0D8B2E1B2401A310627
:1004B000014310D198B2A1B2401A310401430AD1CC
:1004C00018022102000A090A401A3102014302D12E
:1004D000180E210E401AF0BDA342DCD018BA21BA82
:1004E000884201D90120F0BD0020C043F0BD002AA0
:1004F00001D10020F0BD03780C78401C491C002B72
:100500000DD0A3420BD1521E09D003780C78401CA9
:10051000491C002B03D0A34201D1521EEBD1181B62
:10052000F0BD000001010101D2B210B513029A180A
:1005300013049A1800F001F810BD01E004C0091F6F
:100540000429FBD28B0701D50280801CC90700D08B
:100550000270704700290BD0C30702D00270401C04
:10056000491E022904D3830702D50280801C891EFC
:10057000E3E70022EEE70022DFE7000000220309A4
:100580008B4273D3030A8B4258D3030B8B423CD369
:10059000030C8B4221D312E003460B437FD400228D
:1005A00043088B4274D303098B425FD3030A8B4207
:1005B00044D3030B8B4228D3030C8B420DD3090287
:1005C000FF2212BA030C8B4202D31212090265D029
:1005D000030B8B4219D300E0090AC30B8B4201D3F2
:1005E000CB03C01A5241830B8B4201D38B03C01A39
:1005F0005241430B8B4201D34B03C01A5241030BB0
:100600008B4201D30B03C01A5241C30A8B4201D360
:10061000CB02C01A5241830A8B4201D38B02C01A0B
:100620005241430A8B4201D34B02C01A5241030A82
:100630008B4201D30B02C01A5241CDD2C3098B4267
:1006400001D3CB01C01A524183098B4201D38B01E4
:10065000C01A524143098B4201D34B01C01A524187
:1006600003098B4201D30B01C01A5241C3088B42CC
:1006700001D3CB00C01A524183088B4201D38B00B7
:10068000C01A524143088B4201D34B00C01A524159
:10069000411A00D201465241104670475DE0CA0F30
:1006A00000D04942031000D3404253409C460022F0
:1006B00003098B422DD3030A8B4212D38901FC22FA
:1006C00012BA030A8B420CD3890192118B4208D3D0
:1006D000890192118B4204D389013AD0921100E032
:1006E0008909C3098B4201D3CB01C01A5241830946
:1006F0008B4201D38B01C01A524143098B4201D373
:100700004B01C01A524103098B4201D30B01C01A9D
:100710005241C3088B4201D3CB00C01A5241830817
:100720008B4201D38B00C01A5241D9D243088B426D
:1007300001D34B00C01A5241411A00D20146524126
:10074000104663465B1001D34042002B00D549425E
:10075000704763465B1000D3404201B5044900284E
:1007600002DC491C084000E00846C046C04602BD05
:10077000FFFFFF7F70477047704700000246C80FB9
:10078000C00781434B0030B54B405B009B0D20D030
:100790001923DB06C91801231B05994220DB03241A
:1007A000A40704251346AB400BD3002B04D1EB0662
:1007B00013409B00E34204D4012464070023121970
:1007C0005941FF231B0599420BD2C9000143500F29
:1007D00009E0CB0204D501430803024305D00548D4
:1007E00030BDFF21C905084330BD08460721090572
:1007F000884330BD0000C07FF0B50C46871A9C418D
:100800000D46861A9D4103D2C01BA141D2196341F6
:100810000D0D1F0DC94EEC1BAE435CD07F057F0D47
:100820000026002F51D02D05AC46A943DD0201233F
:10083000ED0A1B051D4320231B1B24D41746E7404C
:10084000381871412F46E740CC199D402818314691
:1008500061410C0D27D161449A4013D50023401CFF
:10086000594152000ED14008400001224B00520570
:10087000D34207D305204007C14201D5B04900E06B
:10088000B0493046F0BD6B00002A00D001229A1812
:100890001F23203C1B1B01D5002302E0E540281844
:1008A00071410C0DD7D0012424050919C407CD07C7
:1008B00040084908E40F28436144002CD5D00024A7
:1008C000401C61419A40D0D1CDE76A05520DD9D183
:1008D000C90FC907D5E79C4D4E00002801D001245F
:1008E00000E0002434195F00002A01D0012600E056
:1008F0000026BE19954FAC420CD8AE420AD8B4427D
:1009000006D001256D05EC42BCD010461946F0BD5D
:100910009942FCD000203946F0BDF0B51FB40C461A
:100920000F46811A9F412546861A9D4106D2012510
:10093000ED076F40401ABC4152187B41210D1E0D3E
:100940008D1BAC467D4D8D437ED075056D0D7CD0E5
:100950000D05AE46AC431B031B0B794D52429D4126
:10096000202366469B1B14D31746F74038180026F1
:100970000090744160462F460741E41900989D405D
:100980002818664116D4714671189A4025D501235E
:1009900020E093182A466A415200002B00D0521CD6
:1009A0001E23203E9B1B002B61DD3541EE172818CE
:1009B0006641E8D5001876415B1C9A4000D3401C84
:1009C0004B05F3181524E34010D3002B52D0714689
:1009D0007118D30FC01802D3491C05B0F0BD012314
:1009E000DB079A42F9D140084000F6E701225205A0
:1009F000B21801D1002853D00123CC0ADB0299435D
:100A0000891E002A08D1020C03D0020C0004103900
:100A100002E00246002020390023550B05D11202C6
:100A20000823550B01D152010D23550C01D11201A0
:100A30001B1DD50C01D192009B1C150D01D152003C
:100A40005B1C2025EE1A01E02CE022E00546F54073
:100A500015439840CA1AE10769181305C918002AF6
:100A6000BBDA032040070818C10FC9070FE0714621
:100A70006118B2E7F10740080843711071444A0059
:100A80000CD001235B059A42A7D2C90FC9070020E9
:100A9000A3E74905490D26D1002001E00028F4D143
:100AA00000219AE7284D6600002801D0012100E0CE
:100AB000002171185F00002A01D0012600E0002605
:100AC000BE19224FA94210D8AE420ED8B14208D06A
:100AD00001256D05E94206D01946A802414010469D
:100AE0007BE79C4201D0214677E70020394674E736
:100AF00010B50C465C4005D50124E4076340FFF7C0
:100B00000CFF10BDFFF778FE10BD30B40C465C4002
:100B100004D50124E407634030BC6DE630BCFCE63C
:100B200070B50124E40761400D465D4002D4FFF733
:100B300063FE70BD6340FFF7F0FE70BDFF0700006D
:100B40000000F0FF0000F07F0000E0FF0000F87FF1
:100B5000F0B5F94D0C091E092C402E402F468BB0E4
:100B6000A7437DD0B543FCD0002E7AD0002CFCD01A
:100B70000D465D40ED0F2543AC1BFF25AD04641908
:100B80000894C502440DC9022143500DDC02044300
:100B90000120C00701430443D2020191200C110C33
:100BA00000958C46010423468B430A916146090453
:100BB000E24D8A430991010A7D4449198039097837
:100BC00005464D4301266D18F605751B6943C90C92
:100BD000640B891C4C436418B5012C1B250C2E0496
:100BE000B4434C434D43210C691889090591009D7C
:100BF000E90701D00121C90704912C460199670832
:100C0000CD072F434C08059DE10B4D432D0C294684
:100C10006646754302950D4645432E46029D7D1B53
:100C2000B44100950D465D4301942C0C2F040D46F4
:100C30005543AE462D0C3D43029503947546049CE6
:100C40002D04641B049406D2029C039D641C0026A0
:100C500075410395029401AC70CC009F7D1B01E0AF
:100C60003EE162E1B44109040095079101940599C0
:100C7000A4086143090C0C464443650BE7040C4689
:100C800066467443A646640B3C430395029474463F
:100C9000049DE4042C1B049406D2029C039D641C56
:100CA000002675410395029401AC70CC009F7D1B1A
:100CB000B44101940C465C430095650FE7000C4677
:100CC0005443A646640F3C43039502947446049D26
:100CD000E4002C1B049406D2029C039D641C002695
:100CE00075410395029401AC70CC009F7D1BB4410B
:100CF000AE09AF06049DC900AD092F43049DA406AB
:100D0000AD060495079D344369180791059DE10BD5
:100D10004D432D0C29466646754302950D464543C5
:100D20002E46029D7D1BB44100950D465D43019406
:100D30002C0C2F040D465543AE462D0C3D43029519
:100D400003947546049C2D04641B049406D2029CF3
:100D5000039D641C002675410395029401AC70CC80
:100D6000009F7D1BB44101948C050694079C890A61
:100D7000611800950791019C0599A4086143090C2D
:100D80000D464543680BEF040D46644665436C0B06
:100D90003C43049FED047D1BAC4602D20025641C3D
:100DA0006841009E019D371B8541084658430195C7
:100DB0000C46460FC5005443600F28436546E400C7
:100DC0002C1B02D20025401C6E41019D3F1AB541EB
:100DD0002846BD09800628438446A009BF064E0266
:100DE0000699A40676180743079D002068410A99D2
:100DF000079019430020099B00906046FF19134398
:100E00004041E20F64003A43A4460446D71A8C419D
:100E1000A04203D90120009020463A46C70F9418FB
:100E200040416246D20F2243644664000494009C11
:100E3000BE466400D71AA446044602978C41774602
:100E4000002F01D1A04204D96046401C8446029A7A
:100E50002046C40FA64694184041049A0546D20F76
:100E6000224364466400D31A8D417146002901D1A2
:100E7000A84202D928461A46641C104301220028C1
:100E800000D0164361020020079B891904465C418B
:100E90000223002C02DB491813466441089DCE0A48
:100EA0002D145D194B056705E10A2C050D190899EC
:100EB0003E43C9076940002B08D0934006D3002267
:100EC000761C5141002B01D1760876001C4A002D7A
:100ED00043DB154241D0AA433FD030460BB0F0BDB2
:100EE00006180D464D41174C7642AC411AD3951861
:100EF0001C465C41134A6D42A24113D301225205A4
:100F00004C00D4420AD15C00D4420BD04B4002D5F5
:100F100092021143E2E749004908DFE75940C90F4F
:100F2000C90718E000200849D8E7054801420DD15B
:100F30000342F7D0F2E700000000FF078C8C0000AE
:100F40000000F07F0000E0FF0000F87F11485940EA
:100F50000143C01241400020C0E70123089A9B06CC
:100F60009A4205DC032252078918C90FC907B5E761
:100F7000052252078918074A1143D2125140ADE7A2
:100F800070B515461C4602460B4628462146FFF71B
:100F9000DFFD70BDFFFFFF7F1F22030C02D10F2278
:100FA000000402D0030E03D004E000200146704785
:100FB0000002083A030F01D10001121F830F01D173
:100FC0008000921E002801DB4000521E12055118BD
:100FD0004205C012411810467047C10FC90700D022
:100FE0004042012292071143D6E701218907D3E746
:100FF0000121C9050123411842001B06D3185B0ECD
:101000000AD0C1100722D206891840075242D142A5
:1010100001D5520089187047090208D50146002AF7
:1010200003D0C10FC9070020704710467047420225
:1010300002D0002002497047072109050143F4E767
:101040000000F87FF0B5FF252D04C609C209FF276F
:1010500004462E400137CB093E4348402A402B40EE
:101060000746002A6BD0002B69D0AA4267D0AB425A
:1010700065D0002800DA32460125ED0529432C43CE
:1010800009022002090AD21A4B0C7F24E31A434CAE
:10109000000A7C44E35C7D242404121914145B00D0
:1010A000A218884201D3521C00E0400049420C467D
:1010B0005C4324115C43DB016415E318040A5C43C0
:1010C000C502200D0C4644436419250A5D432303E1
:1010D000EC0C0D46654300030019EB184C42A3428B
:1010E00001D35B18401CD4052018002B07D05B00EF
:1010F000C91804D3401C002901D1400840003F21F9
:1011000089048A4209D3002A08DC1106090F04D099
:10111000032149074018C00FC007F0BD012241005C
:10112000120689187F2252069142F6D205214907FC
:10113000C84201D59010F0BDFF20C005F0BD002FC2
:1011400000DA32461648AA4207D2AB4205D219024B
:10115000090E17D0F80FC007F0BDFF2563002D065C
:10116000AB42F9D84900A942F6D8AB4201D1A94215
:10117000F2D0A94201D1002101E061004908D00567
:101180000843F0BD1102090EFBD0FF200243D00539
:10119000F0BD0A460146104654E7000032880000C0
:1011A0000000C07F0102C21504D00123DB071943F0
:1011B000002A0ADB9E239A1A02D40846D0407047C0
:1011C000FF2241001206914201D900207047C0174A
:1011D000C04370471F22030C02D10F2200041CD011
:1011E000030E01D10002083A030F01D10001121FC2
:1011F000830F01D18000921E002801DB4000521EA7
:10120000D2055118021251181922904004D3491CDA
:10121000002801D14908490008467047C10FC90795
:1012200000D04042012292071143D3E701218907F0
:10123000D0E710B500F08AFB006810BD10B5044679
:1012400000F084FB046010BDFFB504460D4681B07C
:10125000243000902168880604D51022E06991436B
:10126000216000E00120A84201DD471B00E00027CB
:101270000498A1697A191018081AA0612078C0068C
:1012800002D42046C046C046002608E003986268A3
:10129000A168805D9047206A401C761C20620498FB
:1012A0008642F3DB2078C0060AD52046C046C046F9
:1012B00006E06268A16830209047206A401C2062E6
:1012C00038467F1E0028F4DC07E000986268A168B9
:1012D000405D9047206A401C206228466D1E002811
:1012E000F3DC2046C046C0462078000602D5022026
:1012F00005B0F0BD0120FBE7FFB50C461E468FB0E0
:1013000003CA089009914F007D0D00D16D1E002188
:1013100008460020C0460321099A89050840002A92
:1013200003DA8200801840080840800D01280A90E6
:1013300002DD0020C0430A90089807430DD0F04812
:10134000F049281848430714189800281DD0754202
:10135000291E1DDD0A9842421BE01898012802D080
:101360000020302104E00020F24305E02154401C1D
:10137000B042FBDB30460022189B002121540F991C
:101380008B600A60486013B0F0BDBD1B6D1CDFE7C9
:101390000A9A002900DA69420BA800F05DFB0BAB4A
:1013A00007CB03AB07C30899099800F0C1FB6B4654
:1013B00007C30146D4480918002D00910BDDD2491E
:1013C00003980A9A49424018002303A903906846EB
:1013D00000F01EFE08E003990A9A0023081803A9EA
:1013E0000390684600F0BEFD6B4607C30004000C86
:1013F00003D00020C043410800E01046189A002A9C
:1014000003D00022009215461EE0751E05D400F0A0
:10141000A1FA303262556D1EF9D5012208430796B4
:1014200002D000227F1C04E02078302801D1002265
:101430007F1E002A069787D01EE0112D07DA00F0E4
:1014400089FA303262556D1C02460A43F5D10843D1
:1014500003D00098002819D00EE00021681E05E096
:10146000235C625C63542254401E491C8142F7DBBA
:10147000A81B401E07950690079A18990020A054B3
:101480000F98079B069A81600CC07CE7112600200C
:10149000189059E7D21DF0B50D460446D10893B017
:1014A000C90003C90C900D9107F074FB02460D981A
:1014B000C00F01D02D2007E02068810701D52B2027
:1014C00002E04007C00F4001032A0F9001D0072A15
:1014D00005DB03462946204600F07AFA0EE1207823
:1014E000800601D5E76900E006272846652D04D06F
:1014F000662814D0672D69D12DE00020112F0090AF
:1015000001DB112300E07B1C0CAA03A910A8FFF744
:10151000F3FE1199002610987D1C0E9142E00120E7
:101520003B460CAAC0070B900120009003A910A80D
:10153000FFF7E2FE119D12981099002600280E95E3
:1015400001D1781C0D18781B02D446427D1C761EF2
:10155000E81B00903AE0012F00DA01270020112F4C
:10156000009001DD112300E03B460CAA03A910A85E
:10157000FFF7C2FE11993D46109800260E91217882
:1015800009070BD40E99A94200DA0D4603A9012DD3
:1015900004DD4A19203AD27F302A06D0B84201DA57
:1015A000011D04DA012100910FE06D1EEFE7002814
:1015B00002DC86192D1A03E0411CA94200DD0D460C
:1015C000801B401C00900120C0070B902078000772
:1015D00005D40098A84202DB0020C0430090694671
:1015E0000020C8720B98012102AF0337C907884257
:1015F00025D0022010902B2011900B9800280BDA98
:1016000040420B902D20119006E00B9800F0B5F8A9
:1016100030317F1E0B9039701099481E00291090B0
:10162000F3DC0B980028F0D111987F1E38702088C9
:10163000000501D5452000E065207F1E387001A817
:10164000C01BC01D0B900F98002800D0012041192D
:101650000098C01709180B980818A169081A401EAD
:10166000A0612078C00602D42046C046C0460F982C
:10167000002805D06268A1689047206A401C20625B
:101680002078C00625D52046C046C04621E0002E61
:1016900007DB0E98B04204DD03A86268805DA16894
:1016A00002E06268A16830209047206A761C401CE6
:1016B00020620098401E002800900AD100F042F9F4
:1016C000C06862680168405CA1689047206A401C5D
:1016D000206228466D1E0028D9DC07E06268387851
:1016E000A1687F1C9047206A401C20620B99481E0D
:1016F00000290B90F2DC2046C046C046032042E69B
:1017000001FCFFFF104D0000E1DFFFFF01694A1CF3
:1017100002610878704700B58FB0029100210591F1
:101720000549019379440391114604906846FEF7F8
:10173000FBFD0FB000BD0000E5FFFFFF0CC908393D
:101740009A4202D2531C0B601070704710B5436967
:10175000002B02D0C046C04601E0FEF785FD012007
:1017600010BD1278014624310A7000224A7001220D
:10177000ECE711680022D243E8E701468008081A26
:1017800002091018020A1018020C1018C008820072
:1017900012185200891A01E0401C0A390A29FBD2AA
:1017A000704710B501469E240002CA15A307002AFF
:1017B00002D01843002A04DBA21A002A0CDDD04014
:1017C00010BD1206120E01D140004008A21A03D427
:1017D000D04040420028F3DDFF224800120690422C
:1017E00001D9002010BDC817C043584010BD0000EB
:1017F000C10D10B50906090E2ED0FF2931D07E2962
:101800002DD319D0962916D2024675398A4005D0B3
:10181000002402468A4003D3012302E00124F8E7B2
:1018200000230222CA41511E8843002B03D0801896
:10183000002C00D0904310BD0121420201D10122B1
:1018400000E00022C00FC0070029F4D0002AF2D126
:101850007F21C905084310BDC00FC00710BD00217E
:10186000EFE74102FAD0014810BD00000000C07F40
:1018700010B5FF22C30D134009D05A4007D0914242
:1018800005DA5C42A14202DDC905081810BDC40F8B
:10189000E407002B06D0002A06D0002902DBFF2037
:1018A000C0050443204610BD4102FCD0004810BDD5
:1018B0000000C07F30B5C30D1906214A090E31D092
:1018C000FF292FD000283ADB0102500201430120FA
:1018D0007D33C34000D24908012080071724091A2C
:1018E0002406490882102343FF252D064C00211AA7
:1018F00004D4891A02D45400201800E0214652086A
:101900005B19F3D51A220446944007D382068A4213
:1019100003D180218030884300E08030C009D905A0
:10192000081830BDFF2904D04100FAD0C00FC0070D
:1019300030BD410201D0104630BD0028FCDAFAE784
:101940000000C07F004870474000202000487047DA
:10195000200020200B4670B5024689078008084306
:1019600019469D08141AA9412509080705430809C5
:101970002C194841250A01060D43010A2C19414141
:10198000200C0D0428430D0C00194D410021401975
:101990004D41C00869070843E908840F8D002543BD
:1019A000840024184D4124196D41121BAB4107E0FE
:1019B0000925ED432C11521963410024401C61415B
:1019C0001C460A250026551BB441F1D270BD00000B
:1019D000F8B51F46044601230068DB0203260146D2
:1019E0001840072A05DB002801D017A506E017A537
:1019F00004E0002801D016A500E016A510208143C0
:101A00002160A069C01E002FA06101D0401EA0610E
:101A10002046C046C046002F09D038466268A168FB
:101A20009047206A401C2062C01C206206E0206AA9
:101A3000FAE762682878A1686D1C9047761EF8D294
:101A40002046C046C046F8BD4E414E006E616E0055
:101A5000494E4600696E6600F7B516468AB03348AF
:101A600078446C4603467C33C06F5A689B680DC44B
:101A70002E487844763003AC0DC80DC43720C00121
:101A8000081837211B30FEF787FD05460C46803DC0
:101A90001B3C02D56442012000E000200027099091
:101AA00010E0E0070CD00C202049784379443246FE
:101AB0004C3941186846012300F054FA6B4607C3BD
:101AC00064107F1C002CECD1184F7F442E3F16E091
:101AD000E80712D02001C0190EC80691089307929A
:101AE0000068F04201D1981908903246012306A9F6
:101AF00003A800F037FA03AB07C36D10641C002D78
:101B0000E6D10998002806D032466946012303A889
:101B100000F07EFA05E001233246694603A800F092
:101B200021FA0A9B07C30DB0F0BD0000C47E00007F
:101B3000034640000A4610B5400D0BD00121C907ED
:101B40000F24A40200191C0364082143540D2143EF
:101B5000D20207E000210120F2E7D40F490021431F
:101B60005200401E0029F8DADB0FDB07184310BDD6
:101B7000FFB50D46144685B04868516806F0F2FF7F
:101B800000910190A868A16806F0ECFF0291039013
:101B9000A868616806F0E6FF029A12188242029273
:101BA00001D2012000E00020019A0B18D218002871
:101BB000019202D08A4202D903E08A4201D2012076
:101BC00000E000200099081800906868A16806F0FD
:101BD000C9FF029A12188242029201D2012000E04B
:101BE0000020019A0B18D2180028019202D08A42D4
:101BF00002D903E08A4201D2012000E000200099CE
:101C000008180090286821684000490040084908E9
:101C10004018FA49471814E001994000C90F0843D9
:101C20000090019802994000C90F08430190029862
:101C300003994000C90F08430290039840007F1E9B
:101C4000039000980028E7DA0898002801D0EC4EAD
:101C500000E00026B74201DA012000E00020002861
:101C600004902AD0F71BF806C00E15D0029B202145
:101C7000091A039A8B401A430392029A019BC240AD
:101C80008B401A430292019A009BC2408B400099FC
:101C90001A430192C14000917B110DD06F46032081
:101CA000C11A03D500218200B95003E08A008100E7
:101CB000BA587A50401EF3D5374603980299002847
:101CC00000D00120014308980291002808460CD05A
:101CD000002800D001200199019A490508430121FB
:101CE000D20AC902D202019200E001210E9B012218
:101CF000D207012B02D0002B03D013E0002807D11C
:101D000020E0904204D890420CD1019B0B4209D0B4
:101D1000019B5918019105D10099491C009101D1ED
:101D20007F1C009200280DD0102108460020C046DC
:101D30000498002806D00F98002803D008210846F0
:101D40000020C04628682168019B009A4840C10FC6
:101D50000598C90739430EC009B0F0BDFFB587B07B
:101D6000099A089808995368926840688968964665
:101D70000022039317469446089A12685300099A62
:101D80005B081268520052089A1A9E4BD4180A9A9D
:101D9000002A01D0352200E04022069200220123D1
:101DA00015460492DB07059324E0002D05D1754606
:101DB0000346039E4D1BB34109D375466646039BFC
:101DC000491B049D9841059B7519AC465F416346CC
:101DD0003B4308D0059B049EDD0776082E435B0835
:101DE0000496059301E0521E641EC50FED074918C5
:101DF0004041521C069B9A42D7DB002D04D1754608
:101E0000039A6B1A824101D203200CE0039A0B461D
:101E10006B404240134303D0014303D0012002E052
:101E2000022000E00020614601910021009702910C
:101E30000A99002905D0614640020143704B019187
:101E400002E08007002302909C4201DA012000E0BA
:101E5000002007003AD01A1BD006C00E15D0029DF4
:101E60002021019C091AC5408C402543029C8C40CE
:101E700000D001242543019C0295009DC4408D4063
:101E800000992C430194C140009154111DD06D461E
:101E90000221002202290CD10320001B07E00028A8
:101EA00004DB8600AE59002E00D00122401C03281E
:101EB000F5DB081B02D588002A5004E08000285872
:101EC00010438A00A850491EE3D51C460A980028F2
:101ED00002980CD0002800D001200199019A4905F0
:101EE00008430121D20AC902D202019200E0012175
:101EF000109B0122D207012B02D0002B03D013E04C
:101F0000002807D11FE0904204D890420CD1019BD9
:101F10000B4209D0019B5918019105D10099491C28
:101F2000009101D1641C009200280CD010210846B9
:101F30000020C046002F06D01198002803D00821A9
:101F400008460020C04608980999019A009B00683D
:101F500009684840C10F0798C907214382600AC039
:101F60000BB0F0BD00B585B0019300920A46014662
:101F7000002302A8FFF7FCFD02A807C805B000BDBA
:101F8000FFB50A461F4685B00799019301230091CA
:101F9000014602A8FFF7ECFD02990398049ECA0FC0
:101FA0004900D20700920F22490892028C1A0021A0
:101FB000002800DB0C46450013486D08844214D30A
:101FC000079A002A04DA441E0026104DF64302E068
:101FD00004460D460E46102108460020C046002F3C
:101FE00003D0042108460020C0462005E90A084322
:101FF000009908436905F20A1143ADE602C0FFFFEC
:10200000013C0000FF3F0000FF070000FFFFFF7FD3
:1020100000B585B0019300920A460146002302A84C
:10202000FFF79CFE02A807C8A8E7FFB50A461F46AF
:1020300085B00799019301230091014602A8FFF79B
:102040008DFE02990398049ECA0F4900D2070092A0
:102050000F22490892028C1A0021002800DB0C464E
:10206000450011486D08844214D3079A002A04DA07
:10207000441E00260D4DF64302E004460D460E4672
:10208000102108460020C046002F03D00421084636
:102090000020C0462005E90A084300990843690565
:1020A000F20A114358E60000FF070000FFFFFF7F20
:1020B00010B5FF231B0644009C421DD84C009C42D7
:1020C0001AD80346124A0B4307D4401A02D3EFF33F
:1020D000008010BDEFF3008010BD081A03D3EFF3AA
:1020E0000080904305E0EFF3008001219043C90791
:1020F000084380F3008810BD0D231B041A4204D04E
:102100001146002000F08AF810BD00F09FF810BDC5
:102110000000009000487047200020207546FFF71F
:10212000F9FFAE46050069465346C008C000854623
:1021300018B020B5FEF768F860BCB6460026002748
:10214000C0C5C0C5C0C5C0C5C0C5C0C5C0C5C0C567
:10215000403D490849008D46704710B50446C046C9
:10216000C0462046FEF725F810BD000082078B0709
:102170009A423FD170B5920F0AD0032402780B78AF
:10218000401C491C002A33D09A4231D12042F5D15B
:10219000214EF40104C808C9951B9543254018D168
:1021A0009A420FD104C808C9951B9543254010D108
:1021B0009A4207D104C808C9951B9543254008D108
:1021C0009A42E7D012BA1BBA01209A4200D240428A
:1021D00070BD12BA1BBA2DBA18241000E0401900C5
:1021E000E140401A05D12E00E64002D1083CF4D16E
:1021F000D01A70BD02780B78401C491C002A09D007
:102200009A4207D102780B78401C491C002A01D061
:102210009A42EFD0D01A704701010101C80212D5CD
:102220004803400F002804D0C803C0430121884060
:102230007047EFF3008000010009032109070843FC
:1022400080F30088704700207047000010B50248F6
:1022500000F004F810BD00000000C07F10B50C466F
:102260001107090F092904D00A290AD008290CD11D
:1022700004E011460820FFF7D1FF06E0510606D51D
:1022800001E0510601D50120C007214610BDD1064D
:1022900007D501010909CC084907000E00060443CF
:1022A00009E0410F20024907000A0143200E000601
:1022B0001D22D14101430846E7E7000001491820EB
:1022C000ABBEFEE72600020070470000F0B589B003
:1022D0000190F7480021016441644030029101817E
:1022E00003200690C003F3490860F34C2068EFF325
:1022F0000581002903D0F14801F02EFB28E0216878
:10230000091A012924D80022014606E0216800228A
:1023100030BF23681B1A022B1AD223688B42F5D1D7
:10232000E74B9A4202D8521CE34CF1E7E2490968B4
:10233000081A01280CD80221081AE2494843DBE7B1
:1023400001F00AFB0298401C0290032800D110E221
:102350000025284605F00CF8D74B1868EFF30581E7
:10236000002903D0D74801F0F7FA15E01968814237
:1023700012D1014605E01968002530BF1A68824273
:102380000AD11A688A42F6D1CD4A954201D86D1C0D
:10239000F3E719688142E5D00025284604F0E8FFFC
:1023A0001E2825D0C44B1868EFF30581002903D0FF
:1023B000C44801F0D1FA15E01968814212D10146F2
:1023C00005E01968002530BF1A6882420AD11A68F0
:1023D0008A42F6D1BA4A954201D86D1CF3E71968D2
:1023E0008142E5D0002004F0C3FF1E2800D095E014
:1023F0007E20B62104F0F2FFAF4C2168EFF3058098
:102400000028B14802D001F0A7FA20E02068401A65
:102410004F281CD80022084606E02068002230BF62
:1024200023685B1A502B12D223688342F5D1A44B48
:102430009A4202D8521CA04CF1E79F4C2068401AE7
:102440004F2804D85021081A9E494843DBE700254D
:10245000284604F08DFF2068EFF30581002903D0A2
:10246000984801F079FA15E02168814212D10146BD
:1024700005E02168002530BF226882420AD1226827
:102480008A42F6D18E4A954201D86D1CF3E7216845
:102490008142E5D00026304604F06AFF1E283DD177
:1024A000039602E0761C062E3AD0069870438749C0
:1024B0000D5C0818059047782846394604F08EFFD1
:1024C0007D4C2068EFF30581002903D0F94801F025
:1024D00043FA18E02168814215D10022014605E047
:1024E0002168002230BF236883420CD123688B42CD
:1024F000F6D1EF4B9A4202D8521CEC4CF2E7EB4972
:1025000009688142E2D0284604F032FFB842C9D0BF
:1025100005988078039901430391C3E7FF20039056
:102520000025284605F03CFBE04B1868EFF30581D9
:10253000002903D0DF4801F00FFA15E01968814245
:1025400012D1014605E01968002530BF1A688242A1
:102550000AD11A688A42F6D1D54A954201D86D1C33
:10256000F3E719688142E5D00025284605F018FBFD
:102570000F2825D0CD4B1868EFF30581002903D033
:10258000CC4801F0E9F915E01968814212D1014601
:1025900005E01968002530BF1A6882420AD11A681E
:1025A0008A42F6D1C24A954201D86D1CF3E71968F8
:1025B0008142E5D0002005F0F3FA0F2800D0A5E015
:1025C0001420B62105F016FBB84C2168EFF3058006
:1025D0000028B94802D001F0BFF920E02068401A75
:1025E0004F281CD80022084606E02068002230BF91
:1025F00023685B1A502B12D223688342F5D1AC4B6F
:102600009A4202D8521CA94CF1E7A84C2068401A03
:102610004F2804D85021081AA6494843DBE7002573
:10262000284605F0BDFA2068EFF30581002903D0A4
:10263000A04801F091F915E02168814212D10146CC
:1026400005E02168002530BF226882420AD1226855
:102650008A42F6D1964A954201D86D1CF3E721686B
:102660008142E5D00026304605F09AFA0F284DD178
:10267000049602E0761C062E4AD0069870438F49D5
:102680000D5C0818059047782846394605F0B2FADF
:10269000864C2068EFF30581002903D0854801F0BE
:1026A0005BF928E02168814225D10022014615E02E
:1026B0000001202090120A40E8072020007102004B
:1026C0001F4E00008038010000A86100BC99000086
:1026D0002168002230BF236883420CD123688B42DB
:1026E000F6D1734B9A4202D8521C704CF2E76F49F4
:1026F00009688142D2D0284605F052FAB842B9D0D2
:1027000005988078049901430491B3E7FF20049071
:102710000398049E0643FF2E2BD1644C2168EFF3EF
:1027200005800028664800D00AE62068401A09287B
:1027300000D907E60022084607E02068002230BFE3
:1027400023685B1A0A2B00D3FCE523688342F4D18B
:10275000574B9A4202D8521C544CF0E75348006839
:10276000401A092800D9EDE50A21081A51494843C1
:10277000E6E5019800286ED000F0A2F9002800D00C
:102780008FE004960020514B514C524D524E534F06
:10279000454A176256629562D46213634A4951638F
:1027A00090634849D1634E49916106900746059070
:1027B00006E0404801F0D0F8701C4A498E425ED2D3
:1027C000064607AD284605F0BBF928780F2822D128
:1027D000022007AC205EFEF721FDA34D294606F03E
:1027E0005FFF069906F098FE06900420205EFEF733
:1027F00015FD294606F054FF059906F08DFE05905B
:102800000620205EFEF70AFD294606F049FF3946FC
:1028100006F082FE0746254C2068EFF3058100296B
:10282000C7D121688142C7D10022014605E0216855
:10283000002230BF23688342BED123688B42F6D189
:102840001B4B9A4202D8521C184CF2E717490968F0
:102850008142AED0B0E700221D4C1E4D1E4B1F4FD3
:1028600011490F624B628D62CC62184808631648AA
:1028700048638A631348C8631948886111E01A4C99
:1028800038462146FEF7DEFB074DE86205982146F3
:10289000FEF7D8FBA86206982146FEF7D3FB6862D4
:1028A000049EF0B209B0F0BD00012020E80720200E
:1028B0001F4E00008038010000A8610094DA00007B
:1028C00000350C007A841D412A98933D0B6F993E88
:1028D000B1EFBBBAB9F3AFBAF0A032BA0F187F3F6D
:1028E00000002042E703000000007A44F0B587B002
:1028F0000446122005AE06223146029204F0F6FC90
:102900003079717909020818049000B2FEF786FC4C
:10291000524F394606F0C4FE0146256A284606F0A5
:10292000BFFEA0603078717809020818039000B2E9
:10293000FEF774FC394606F0B3FE294606F0B0FEF9
:10294000216B06F011FF2060B078F17809020F18B2
:1029500038B2FEF763FC414906F0A2FE294606F0B4
:102960009FFE616B06F000FF6060304605F0E8F8FE
:102970003B49781882B23B4B012700209A423A46E5
:1029800000D30246049B5B189BB2364DAB423D46DA
:1029900000D305461543039A511889B2314A914232
:1029A0000497394600D301460D432746483731780E
:1029B0000F2945D1832000020190022005AE305E30
:1029C0000390FEF72BFC284906F06AFE616A06F0C8
:1029D000CBFEE0600420305E0090FEF71FFC224931
:1029E00006F05EFEA16A06F0BFFE20610298365E28
:1029F0003046FEF713FC1C4906F052FEE16A06F071
:102A0000B3FE606101980146009A101882B201205D
:102A100000230293134B9A42034600D3029B721881
:102A200092B2104EB242049A00D31A46039B5B182E
:102A30009BB2B34200D30298002A00D104900498BC
:102A40007D703870002802D0206C401C2064002D5E
:102A500002D0606C401C606407B0F0BD3333EB3AC9
:102A60000083FFFF0106000058A08B3A80B50020CC
:102A700004F07EFC80BD80B5002005F091F880BD9B
:102A8000F0B581B014460D46064622206F4602225C
:102A9000394604F02BFC797848093A78D3001818A5
:102AA0009B0A02D01F23DB02C018002E00D0327018
:102AB000002D00D02970002C00D0208001B0F0BD86
:102AC000F0B59DB00020012103910090019002908B
:102AD00001991A91199118911791169115911491C4
:102AE00013911291119110910F91084606910E4683
:102AF000049110E0C04D2868EFF30581002900D152
:102B00009DE0079EBE4800F027FF089A501CBD4973
:102B10008A4200D3F5E00796089012201BAF0622E8
:102B20003946059204F0E2FB3878797809020818F2
:102B300000B2FEF773FBAF4D294606F0B1FD044627
:102B40000C90B878F9780902081800B2FEF766FB15
:102B5000294606F0A5FD06460D90387979790902D7
:102B6000081800B2FEF75AFB294606F099FD054603
:102B70000E90384604F0E4FF38780F28BAD10220CE
:102B80001BAF385EFEF74AFB9C4906F089FD0990B1
:102B90000420385EFEF742FB984906F081FD0A905A
:102BA0000598385EFEF73AFB944906F079FD0B90E4
:102BB0003046314606F074FD06462046214606F0B2
:102BC0006FFD314606F0A8FC04462846294606F06B
:102BD00067FD214606F0A0FC06F072FC0746069849
:102BE000000443D00025079E02E02D1D0C2D14D0BB
:102BF00009A8445912A84159204606F0D4F80028E3
:102C000001D112A844510FA84159204606F0E1F81D
:102C10000028EAD10FA84451E7E73846314606F0CC
:102C2000CDF804463846049906F0E0F8002C3C46FE
:102C300000D13446002800D1049F002521E02968F6
:102C400081426B4C079E00D05FE70022014606E000
:102C50002968002230BF2B68834200D055E72B68DB
:102C60008B42F5D1A24240D8521CF3E70B98149046
:102C70000A991391099A12920F92109111900025BE
:102C80003C460CA8405918AE715906F045FC7051ED
:102C900009A8405915AE715906F03EFC70512D1D22
:102CA0000C2DEED1544E30680699491C0691EFF375
:102CB0000581002902D00497264623E73168814226
:102CC0004B4D0FD10022014605E03168002230BF94
:102CD0003368834206D133688B42F6D1AA4209D8C1
:102CE000521CF4E7049726460FE72968814200D179
:102CF00008E70AE7316881420497264600D101E7D8
:102D000003E73046049906F02FFD3F4906F056F8D8
:102D1000411E884106998FB2F9084B29039900D3C7
:102D20000146002912D10F98129906F01DFD374C6B
:102D3000214606F043F8002808D11098139906F0B0
:102D400013FD214606F03AF8002808D0039D002D17
:102D500049D00299481C0229029044D2B8E6119841
:102D6000149906F001FD214606F028F80028039D7D
:102D7000EDD10498314606F0CFFB3F21090606F05D
:102D80008FFC0446224906F0C7FB01210091C907C8
:102D90008843FF21890506F011F800281D4900D15C
:102DA00021461D4CE1631B48FEF74CF92062384672
:102DB000FEF73CFA04460B20C64317488719002546
:102DC000FD6315A88019C0682146FEF73BF93863FA
:102DD000361DF2D1124810490863104848638D63CC
:102DE00010488861B3E70098C0B21DB0F0BDC0467E
:102DF0001F4E00003333EB3AE807202058A08B3AEF
:102E000080380100AF040000CDCC4C3FEC51383E7F
:102E10000AE81CC10AE81C41000120202A98933DC1
:102E20000B6F993E00002042F0B585B03420F64C7F
:102E30000026265433202654F448A661E661266213
:102E4000066046608660C660F14840210160A66267
:102E5000E662F04D2868EFF30581002903D0EE48C3
:102E600000F07AFD1EE02968091A02291AD800220A
:102E7000014606E02968002230BF2B681B1A032B8D
:102E800010D22B688B42F5D1E44B9A4201D8521CE8
:102E9000F2E72968081A022804D803214840E049CB
:102EA0004843DDE705F0DEFA03903027E05DD749BF
:102EB000087004A9B62008707E20012205F01AFDD2
:102EC0002968D84AEFF3058000280092104602D006
:102ED00000F042FD1EE02868401A31281AD800226E
:102EE000084606E02868002230BF2B685B1A322BA8
:102EF00010D22B688342F5D1C84B9A4201D8521C9C
:102F0000F2E72868401A312804D83221081AC44947
:102F10004843DDE705F0A6FA01900297E05DBB4962
:102F20004870C14C05E0BE4800F016FD761C802EAE
:102F300024D0F0B204A901273A4605F0F3FA049828
:102F4000A0552868EFF305810029ECD1296881425A
:102F5000ECD10022014605E02968002230BF2B6831
:102F60008342E3D12B688B42F6D1AC4B9A4201D815
:102F7000521CF3E729688142D5D0D7E7039801991D
:102F8000084378400390A0480299405C262815D158
:102F90009E4C277304F068FDA44805F047FC04A983
:102FA0000F7059203A4605F0A5FC2868EFF305811B
:102FB000002918D09E4800F0CFFC47E004F054FDF3
:102FC0009C4805F033FC04A90F7059203A4605F0DF
:102FD00091FC2868EFF3058100298C4C19D09048AA
:102FE00000F0BAFC67E02968091A8B292ED8002264
:102FF000014606E02968002230BF2B681B1A8C2B83
:1030000024D22B688B42F5D1844B9A4215D8521C9E
:10301000F2E7296881424ED10022014605E0296885
:10302000002230BF2B68834245D12B688B42F6D1FA
:103030007A4B9A423CD8521CF3E72968081A8B282D
:1030400004D88C21081A76494843B4E7592004A9CA
:103050000126324605F066FA04982071039804F0C0
:1030600079FB039004A90220029008707C2032466C
:1030700005F040FC2868EFF30581002903D068487B
:1030800000F06AFC83E02968814200D07FE00022E2
:10309000014605E02968002230BF2B68834276D1C3
:1030A0002B688B42F6D15D4B9A426CD8521CF3E7E9
:1030B0002968814293D0592004A9012205F032FAEF
:1030C0000498207100242968EFF3058000285A48ED
:1030D00002D000F041FC1EE02868401A09281AD8E6
:1030E0000022084606E02868002230BF2B685B1AE1
:1030F0000A2B10D22B688342F5D1484B9A4201D853
:10310000521CF2E72868401A092804D80A21081A34
:1031100043494843DDE7212004AF012639463246C2
:1031200005F000FA38780F210140012903D0601C16
:10313000132C0446C7D3039804F00CFB039004A996
:103140000E707C20324605F0D5FB2868EFF3058130
:1031500000292E4C03D0324800F0FEFB3EE02968E7
:1031600081423BD10022014605E02968002230BFA0
:103170002B68834232D12B688B42F6D1274B9A427F
:1031800029D8521CF3E72968814200D177E704A9C6
:10319000ED2008704220012205F0ACFB2868EFF317
:1031A0000581002903D01E4800F0D6FB57E02968AE
:1031B000814254D10022014605E02968002230BF37
:1031C0002B6883424BD12B688B42F6D1134B9A422A
:1031D00042D8521CF3E729688142BCD004A9A92037
:1031E00008704020012205F085FB2868EFF3058177
:1031F000002903D00A4800F0AFFB5FE02968814254
:103200005CD1002201461FE080012020B80120206F
:1032100090320A40E807202080A903001F4E0000DA
:103220008038010000093D00C8022020CE9900002E
:1032300000E6AA00CEB9000000350C002968002283
:1032400030BF2B68834239D12B688B42F6D1FA4BC1
:103250009A4230D8521CF3E729688142A3D0422019
:1032600004A90126324605F05DF90498A07204A96C
:1032700000270F704320324605F03CFB2868EFF32F
:103280000581002903D0ED4800F066FB45E0296880
:10329000814242D10022014605E02968002230BF68
:1032A0002B68834239D12B688B42F6D1E24B9A428C
:1032B00030D8521CF3E7296881429BD0402004A9F2
:1032C0000126324605F02EF90498207204A9022046
:1032D00008704120324605F00DFB2868EFF30581A8
:1032E000002903D0F84800F037FB45E02968814207
:1032F00042D10022014605E02968002230BF2B6838
:10330000834239D12B688B42F6D1EE4B9A4230D8AA
:10331000521CF3E729688142B5D0432004A9012655
:10332000324605F0FFF80498E07204A9A82008705E
:103330004020324605F0DEFA2868EFF305810029C7
:1033400003D0E14800F008FB45E02968814242D102
:103350000022014605E02968002230BF2B68834225
:1033600039D12B688B42F6D1D64B9A4230D8521CB9
:10337000F3E729688142B5D0412004A901263246ED
:1033800005F0D0F80498607204A9ED20087042207E
:10339000324605F0AFFA2868EFF30581002903D023
:1033A000C94800F0D9FA45E02968814242D100229B
:1033B000014605E02968002230BF2B68834239D1DD
:1033C0002B688B42F6D1BF4B9A4230D8521CF3E7A0
:1033D00029688142B5D0402004A90126324605F073
:1033E000A1F80498207204A902980870412032467E
:1033F00005F080FA2868EFF30581002903D0B24870
:1034000000F0AAFA45E02968814242D10022014633
:1034100005E02968002230BF2B68834239D12B6830
:103420008B42F6D1A74B9A4230D8521CF3E7296859
:103430008142B5D0422004A90126324605F072F837
:103440000498A07204A900270F704320324605F0AB
:1034500051FA2868EFF30581002903D09A4800F05B
:103460007BFA48E02968814245D10022014605E007
:103470002968002230BF2B6883423CD12B688B42E5
:10348000F6D1904B9A4233D8521CF3E72968814217
:10349000B5D0412004A90126324605F043F804982E
:1034A000607204A90E20029008707D20324605F05B
:1034B00021FA2868EFF30581002903D0844800F041
:1034C0004BFA50E02968091A63294CD800220146BA
:1034D00006E02968002230BF2B681B1A642B42D2F9
:1034E0002B688B42F5D1774B9A4233D8521CF2E7C6
:1034F00029688142B2D0432004A90126324605F052
:1035000011F80498E07204A90620029008707D204A
:10351000324605F0EFF92868EFF30581002903D062
:10352000009800F019FA7AE02968091A312976D84A
:103530000022014606E02968002230BF2B681B1AD2
:10354000322B6CD22B688B42F5D15E4B9A425CD801
:10355000521CF2E72968081A632804D86421081A63
:1035600059494843ABE77D2004A90126324604F0BF
:10357000D9FF0498524CE0711B2004A9324604F094
:10358000D1FF67730498A073E079029908400E2870
:10359000039E01D004200643494A507A032101408A
:1035A000022902D1D07A400701D008200643474CB7
:1035B00005E0454800F0D0F97F1C802F23D0F8B2F9
:1035C00004A9012204F0AEFF0498E0552868EFF347
:1035D00005810029EDD129688142EDD10022014603
:1035E00005E02968002230BF2B688342E4D12B68B4
:1035F0008B42F6D1334B9A4201D8521CF3E729682B
:103600008142D6D0D8E79D4C53E02968081A31286A
:1036100005D83221091A2C484143009180E77D20CA
:1036200004AE0122314604F07DFF3678E671607AFF
:103630000190264C0AE0C0461F4E00008038010071
:10364000214800F089F97F1C802F23D0F8B204A90B
:10365000012204F067FF0498E0552868EFF3058124
:103660000029EDD129688142EDD10022014605E013
:103670002968002230BF2B688342E4D12B688B423B
:10368000F6D1104B9A4201D8521CF3E729688142C7
:10369000D6D0D8E702980640062E039E01D004201B
:1036A00006430320019901400229744C01D00820EF
:1036B000064303F0D1FF32202654304605B0F0BD5A
:1036C000B80120201F4E0000803801004802202051
:1036D00000127A00F0B589B0044606AD0C202946E8
:1036E000024604F01FFF287869780902081805903F
:1036F00000B2FDF793FD494E314605F0D1FF206041
:10370000A878E97809020818049000B2FDF786FD50
:10371000314605F0C5FF606028796979090208180B
:10372000039000B2FDF77AFD314605F0B9FFA060C5
:10373000A879E97909020818029000B2FDF76EFD38
:10374000374E314605F0ACFFA16906F00DF8E06098
:10375000287A697A09020F1838B2FDF75FFD314601
:1037600005F09EFFE16905F0FFFF20612D4EB819BD
:1037700081B22D4B012000229942014600D311460F
:10378000AF7AED7A2D02ED190195AF19BFB29F42C4
:10379000074600D317460F430299891989B2994207
:1037A000014600D311460F43216A02913321675429
:1037B0000499891989B29942014600D31146039EA2
:1037C000184D7619B6B29E42064600D316460E43F1
:1037D0000599491989B2994200D3104606432046FB
:1037E00033304670019800B2FDF718FD0C4905F022
:1037F00057FF029905F0B8FF6061012F03D0002E3A
:1038000006D109B0F0BDA06A401CA062002EF8D01D
:10381000E06A401CE06209B0F0BDC0460AE81C3B0B
:1038200058A08B3A0083FFFF0106000010B582B05C
:10383000002001AC0122214604F074FE207802B081
:1038400010BD000010B582B0222001AC022221463A
:1038500004F068FE207861780902081800B2FDF7CC
:10386000DDFC3B21090605F01BFF034905F054FE72
:103870000249486202B010BD0000B841800120201A
:1038800010B50C4801690C4A11400161FF2109047F
:1038900003688B430121CC051B19036003681340A7
:1038A000032292039A18026004480222026049042B
:1038B000016010BD00E400E0FF00FFFF00E100E058
:1038C0000C480068022809D0012811D10B48016872
:1038D00089030DD510300121490406E00648052171
:1038E000890302680A4203D0103002680A4302606A
:1038F0007047C0463011404038300A4038100A4006
:10390000064802683F211140102902D3044A054BA2
:103910001360002900D081617047C04660000B40F1
:1039200024030B40010000CE80B501F027FE80BDCE
:10393000064800BF401EFCD1BFF34F8F0448054925
:103940000160BFF34F8F00BFFDE7C04600350C009C
:103950000CED00E00400FA05811E091F00BFFCD237
:1039600070470000B0B5536894681C4393892343A3
:10397000146955691C43D3892B431B0123430C0154
:10398000041909256D026351137852781A43BF2335
:103990001A4089004018804944589C43A21842505C
:1039A000B0BDC04680B502231343204A835082181D
:1039B000D16105F0D1F880BDF0B585B014460D4653
:1039C00004900120194601404A424A415E1E1946B0
:1039D000B141114000D00420012924D11348049999
:1039E000081803901248081802900A9801909F1E28
:1039F000049E30462946019A00F028F801200399D8
:103A00000860029A0B481060CD612068D060606841
:103A10001061304605F0A0F8002F04D0BF1E083515
:103A200008340128E5D105B0F0BDC04604110000FE
:103A300024110000FF0100000021C943024A815007
:103A40008018416081607047D0110000F0B583B0EC
:103A500002920D4601907F4C2068052626600727BC
:103A60003840294B19682060226826603A4018685F
:103A700022600095AD0A89048A0F294609D023499E
:103A80000840511C04F06CFF01462846FCF776FD07
:103A90001D4B206826601A68384020602068266028
:103AA0001A683840206001208202029B934208D0AD
:103AB000420293420ED1164A009BDB0B0CD1121F1F
:103AC00003E01F210D40124A3C32019BA840995847
:103AD0008143995003B0F0BDFF290BD823682660BD
:103AE0003B40094D2D682360AB049B0F00D120396A
:103AF000CD08EAE70302FF339942EBD2FF23DB4311
:103B0000C918CD08121DE0E71800C441FF0F0000DE
:103B1000D4110000B0B51122120283580C4C1C4085
:103B20000B894D881D438B792B430A4D1D4063192A
:103B30008350CB798C881C43097821435D239B00FB
:103B40001940801842689A4351184160B0BDC04680
:103B500080CCFFFF7F3300000F494118034A8018D3
:103B60000A685207FCD40068C0B2704730110000E8
:103B700010B50122120383180C785C6049788150DB
:103B800010BD0000044A821845239B01C018136829
:103B90009B07FCD50160704710110000F0B584B0A0
:103BA000012422022A4B1968039291431960494962
:103BB0000D686D04FCD5457E25409E69A6437419A9
:103BC0009C612024045D03252C40DE69AE4334193A
:103BD000DC61204C256805262660466A37681F622E
:103BE00076685E6207262E402660C4697F252D0216
:103BF000DE69AE436406640C3419DC61076845680D
:103C000082680092C66802690192426902929A69CA
:103C1000114C14403A07120B2D03ADB2AA183243CF
:103C2000009D2D072D0D1543019A1543029A15434A
:103C3000007E2843094A0240101998611868039AC7
:103C40001043186008688005FCD504B0F0BDC0467C
:103C500008010B40001340408D00F0FF72FF0F0081
:103C6000F0B5124B1D46083D2E680124A6432E6078
:103C70000326360330401F68B743381818601868A9
:103C8000FF26B043C9B24018186028682043286056
:103C900018682107002A06D0084318600D480168FB
:103CA000C905FCD5F0BD88431860F0BD10010B407C
:103CB00007498860074802689202FCD50122120475
:103CC0000B6813430B600168C906FCD57047C046FA
:103CD00004010B4004020B40F0B583B04A79002A7E
:103CE00029D01B4A1B4B1C4E0F7921242401202F65
:103CF00000D070348518C3188219002F00D1882491
:103D00001668474F3E403619166056683E403419D3
:103D100054602C68804E34402C606C6834406C6079
:103D200000241C605C608F23DB4314691C40146119
:103D300054691C4054610B7901AA13718B799371FA
:103D400009680191114600F009F803B0F0BDC046C2
:103D5000381800005818000078180000F0B584B03A
:103D60006B4A82180292734BC618784BC2180092A5
:103D70002A4BC4180A7901910D68294F202A039211
:103D80000AD0254BC018002A17D16B1E029A536027
:103D900023683B40882517E0681E029A506020681F
:103DA0003840204B184320606068384018436060FA
:103DB000012045071C4F104608E06B08029A53602B
:103DC00023683B400525ED012B43236000990368E0
:103DD0003B402B43036030684F4B184030607068A5
:103DE000184070600020086048608F20C04323693D
:103DF00003402361636903406361019880790399FB
:103E00000843BD2101401068084B0340C818801CBE
:103E1000106004B0F0BDC0467418000070180000B7
:103E200024493E0001040000FFFFFFCF4000FFCF08
:103E300070B5374A82184B6853603E4BC3180878F8
:103E4000222857D8840001A52C59A746EB3E000034
:103E5000F53E0000EB3E0000F53E0000F53E0000A0
:103E6000F53E0000F53E0000F53E0000F53E000086
:103E7000F53E0000F53E0000F53E0000F53E000076
:103E8000F53E0000F53E0000F53E0000D93E000082
:103E9000F53E0000D93E0000F53E0000F53E000072
:103EA000F53E0000F53E0000F53E0000F53E000046
:103EB000F53E0000F53E0000F53E0000F53E000036
:103EC000F53E0000F53E0000F53E0000D93E000042
:103ED000F53E0000D93E0000032424071568A543E1
:103EE000012464072C19146004E0032424071568D6
:103EF000A54315600C8AD460CC68064D25401C682B
:103F0000054E264074191C60097A0143116070BD8A
:103F100004180000777702008888FDFF10B507239A
:103F20009B04194092008018024A84589C436118EF
:103F3000815010BD3018000010B5029CA40000197B
:103F400011431943014A815010BDC046501800006A
:103F500092008018014A81507047C0461018000036
:103F600010B50122120383180C789C604B788350A3
:103F70008978014A815010BD0C11000010B5112341
:103F80001B02C418D0001C4B81420CD22068184080
:103F900001231B0403432360032353438801194671
:103FA00004F0DEFC12E0206818401301994206D2AA
:103FB0000123DB0318432060C800510802E02060A1
:103FC000C800114604F0CCFC401C400821690B4A93
:103FD0000A40810989B2511821613F210840626974
:103FE0008A431018606160680121084062688A4352
:103FF0001018606010BDC046FF7FFEFF0000FFFF8D
:10400000B0B51122120283580124A34383508B7848
:104010000C881C438B882343094C1C408358094D52
:104020001D402B1983508B79CC791C43097A21438D
:104030007E231940801842689A4351184160B0BDF0
:1040400018670000E798FDFF10B5012212038318DE
:104050000C789C604978815010BD80B5FFF730FC2A
:1040600080BD0000B0B52421AD4AB44B44182546AC
:10407000243D2D6855505D180C3D183C24682C607B
:10408000091D3029F2D1B0BDF0B595B01D46002410
:1040900013941294119410940F940E940D940C9404
:1040A0000B940A9409940894531800D3D1E0069114
:1040B0006A49069E8E4200D9CBE0049066481118EA
:1040C000491E814200D2C4E0954E00207062B06269
:1040D000F0629A4CA061E0612062002B0090059094
:1040E0004ED01A980290002705970195039303E09C
:1040F0007F1C039B9F4243D0079730461F46FEF725
:10410000F5FB2046FFF7E6FA07983946079F00F0CF
:10411000ABF80698874228D308AD34460EAE002788
:10412000E019C068FCF764FF02460B4603CE083E68
:10413000FCF7DEFC03C68148C019C068083EFCF7E6
:1041400057FF02460B4603CD083DFCF7D1FC03C5E3
:104150003F1D0836083D08350C2FE1D10598401C5D
:1041600005902646754C019D079F002D01D00298B1
:10417000A8473B4A106811688142B9D130BFFAE7BD
:104180001846194600F070F805980028009C60D089
:10419000FCF72BFF07900691002508AE0EAC049F9C
:1041A00003CC079A069B083CFCF7D2FCFCF7E6FA26
:1041B000785103CE079A069B083EFCF7C9FCFCF732
:1041C000DDFA7919C860083408362D1D0C2DE7D1A9
:1041D0000125EF07049E3068B843224904F0EEFD44
:1041E0000024002835D1F068B8431E4904F0E6FDEC
:1041F00000282ED10795049D10350021194C0E463C
:10420000022910D028460C380068B843214604F033
:10421000D5FD002807D101CDB843214604F0D9FDD2
:10422000711C0028EBD1022E444D11D32420049B95
:104230003B4C19180A46243A126822502A180C3AA4
:10424000183909681160001D3028F2D1079C00E080
:104250000024204615B0F0BD40D8F6FFC027090065
:10426000E80720203333B33EF0B591B01F4A4243F4
:104270000323DA411E4B9A4235D8081A1D494018CB
:104280007D21C90004F06CFB034601AC40211AA259
:104290002046FBF7C9FF2078002824D001AA1A483D
:1042A0001A491B4B1678002E0AD0551C0027CE55F4
:1042B0007C1C7E2F05D8EE5D002E2746F7D100E04E
:1042C00000240568AD07FCD441608360C4600568C4
:1042D00002262E4306600568AD07FCD41519125D51
:1042E000002A2A46DED111B0F0BDC046D578E926B5
:1042F00037894100E703000043414C5F52454D417F
:10430000494E3A25750A000010B242409A0A202010
:104310002031104002490CC909680CC00160704787
:104320000001202010B505490CC909680124E407E3
:104330005C4004604260816010BDC0468001202066
:1043400070B56F48007800281FD06E4800242B4DB0
:10435000214622462B4600F081FB6B487F21CE058B
:10436000066044608460C460254901646748214652
:1043700022462B4600F072FB65480660446084606C
:10438000C46004614461846117E064225E480021D6
:1043900081545F4A41648164C164016541658165FE
:1043A0007F23DB05136051609160D1601161516121
:1043B0009161036041608160C16030201149002437
:1043C0000C543430CC28FAD10F4804604460846027
:1043D0000E480F490460446081604E480D49074B08
:1043E000224600F03BFB4C487F21C90512C0046007
:1043F00044608460C460046170BDC0466F12833A3B
:104400004ED1113CB4042020540320204803202026
:104410000AE81C41CDCC4C3E411E88413849087009
:104420007047C046F0B587B01C4617460E46024698
:10443000334800780D9906910C990591002831D0E8
:104440000496304E304611460292049A3B4600F0E4
:10445000C9FB334630330FCB2B4E0FC602F0ECFFB7
:104460002A4E30462146059A069B00F0BBFB30469B
:1044700000F017FB306B0190706B0090B26BF36B28
:104480000397234F2046643670CE01993960009916
:104490007960BA60029AFB603C6104467D61BE614E
:1044A000049E039F1046214605F036F83F210D0675
:1044B000294605F0F5F804463046059905F02CF834
:1044C000294605F0EDF806463846069905F024F829
:1044D000294605F0E5F803460E4D284621463246AA
:1044E00000F080FB284600F0DCFA2B4630330FCB7F
:1044F000094C6E6EAF6EED6ECFC4256007B0F0BD97
:1045000001072020D40520208000202080032020C7
:104510004C0120205005202064032020F0B597B0E6
:104520001490D34F3846FEF7E1F9D24D2846FFF7F5
:10453000D1F8D148007800282FD0386816903C1D5B
:104540001ECC7869CD4E33617461B06116983346E4
:104550001C3307C34820385C00280FD1C84C14987E
:10456000A0603B460C330ECB204600F017FC6420C5
:1045700001213154234630330FCB0FC63320285C42
:1045800000280AD1BF48149981600121CC07EA684C
:1045900029696B69614000F001FC3320285C4142CD
:1045A000414104914821795C4A424A4108923422AF
:1045B000AA5C07924922BC5C01220392D3072A68B5
:1045C00015926A681092AA681692EA680B922E6990
:1045D0006A690A92059632461E465A4009923A681E
:1045E00011927A681292BA681392FA680E923A6936
:1045F0000D927A690C9200220029069400D088E07E
:10460000002C00D085E0002800D082E00798002828
:1046100011467FD11298014605F042F804461198E0
:10462000014605F03DF8214604F076FF0446139854
:10463000014605F035F8214604F06EFF05460F9659
:10464000E04E314604F0D2FB07461598014605F0CE
:1046500027F804461098014605F022F8214604F098
:104660005BFF04461698014605F01AF8214604F04F
:1046700053FF0446314604F0B9FB06463E43D24F91
:104680002846394604F09AFB054635430F9E2046DE
:10469000394604F093FB284300220028114639D103
:1046A0000D98014604F0FCFF04460E98014604F004
:1046B000F7FF214604F030FF04460C98014604F051
:1046C000EFFF214604F028FFC04904F077FB0022E9
:1046D000002811461ED10B98014604F0E1FF044664
:1046E0000598014604F0DCFF214604F015FF04465E
:1046F0000A98014604F0D4FF214604F00DFFB349A7
:1047000004F05CFB00220028114603D10121039A2A
:1047100000E011460592109846400F960091089DC2
:104720000195049F0297AA4C20460E460E99099ABD
:10473000149B03F0F3FFA7490860009601950297C8
:10474000204634300D990B9A149D2B4603F0E6FF5A
:10475000A049486000960898019002976834204666
:104760000C990A9A2B4603F0D9FF9A49886012984F
:10477000014604F095FF04461198014604F090FFAD
:10478000214604F0C9FE04461398014604F088FF50
:10479000214604F0C1FE05468F4C214604F0BCFEC4
:1047A00008901598014604F07BFF064610980146D4
:1047B00004F076FF314604F0AFFE06461698014637
:1047C00004F06EFF314604F0A7FE0746214604F0D0
:1047D000A3FE0146079A002A069B04D1002B1698D7
:1047E000159E0F9C65D1002B04D1002A1398129EB0
:1047F000119C5ED1002B05D0002A03D000267848FA
:10480000344656E00C466F49284604F0EFFA00287B
:104810003AD16D49284604F0D1FA002834D16949CB
:10482000384604F0E3FA00282ED16749384604F0F0
:10483000C5FA002828D11198109904F095FF3F215E
:104840000D06294604F02CFF04461298159904F031
:1048500063FE294604F024FF06461398169904F0D7
:104860005BFE294604F01CFF079A069B21E0C04628
:10487000000120208001202001072020800020202E
:10488000D405202080032020544A21461140089856
:10489000104004F093FA00280F9C00D1119C0028CE
:1048A000159E079A069B00D1129E0028169800D1EB
:1048B00013984C4F50C738604B480E9901600D99C2
:1048C00041600C9981604948099901600B994160E8
:1048D0000A998160464811990160129941601399C3
:1048E000816044480F990160159941601699816073
:1048F000584814998160083F584258410599014031
:1049000001294CD1002A4AD11198109904F004FED3
:1049100004461298159904F027FF06461398169935
:1049200004F022FF05463046314604F0B9FE064643
:104930002046214604F0B4FE314604F0EDFD044665
:104940002846294604F0ACFE214604F0E5FD81210D
:10495000C90504F033FA002821D178681690014681
:1049600004F09EFE06463D682846294604F098FE5F
:10497000314604F0D1FD0446BE683046314604F0AD
:104980008FFE214604F0C8FD07461B4904F02EFAAD
:1049900004461A49384604F011FA204306D00D485F
:1049A0000EC82C4800F0FAF917B0F0BD09480EC83F
:1049B0000095169801900296264800F0E1F917B08C
:1049C000F0BDC04639008A4241AEFF4217B7D13A26
:1049D000B4042020540320203D57C0C2FFFFFF7FB6
:1049E0000AE81C4148032020F40020207401202004
:1049F000E8002020680120203B1D9B424091E942B5
:104A0000F0B581B01048007800280ED002F014FDF7
:104A10000E4C204600F045F8234630330FCB0C4DAA
:104A2000666EA76EE46ECFC52C600A4C204600F07F
:104A300038F8234630330FCB074D666EA76EE46E11
:104A4000CFC52C6001B0F0BD0107202080032020DD
:104A50004C012020500520206403202010B504467E
:104A60000EC000302421FBF786FD00207F21C90500
:104A700021636063A063E063204600F026F8A06D28
:104A800004F0C6F90121C90741406166E06D216E5D
:104A900004F04AFAA066216CE06C04F045FAE06686
:104AA00010BD10B50446806D04F0B2F90121C907AC
:104AB00041406166E06D216E04F036FAA066216C1B
:104AC000E06C04F031FAE06610BDF0B587B0044642
:104AD000016B0591406B049004F0E2FD0646A56B66
:104AE000E76B28460695394604F0DAFD009031461A
:104AF00004F012FD014604F00FFDE065284605991B
:104B000004F0CEFD0546029004983946039704F060
:104B1000C7FD0190294604F027FE014604F0FCFC85
:104B2000A0650098314604F01FFE014604F0F4FC35
:104B300060653846059904F0B3FD0546049F384684
:104B4000069904F0ADFD0646294604F0E5FC014651
:104B500004F0E2FCE0640198029904F0DDFC0146F7
:104B600004F0DAFCA0643046294604F0FDFD01465D
:104B700004F0D2FC60643846394604F091FD0546E5
:104B80000698014604F08CFD03218907069104F084
:104B900087FD064605902846294604F0BDFC0146DF
:104BA0007F20C705384604F0DFFD0546304629461C
:104BB00004F0B2FC20660398014604F071FD0699EA
:104BC00004F06EFD0646294604F0A6FC2065059813
:104BD000394604F0A1FC0146304604F09DFC2064F7
:104BE00007B0F0BDF0B587B01F460E4606901046E0
:104BF0000492114604F054FD0546304605963146B0
:104C000004F04EFD294604F087FC054638463C4634
:104C1000394604F045FD294604F07EFC074600268F
:104C2000314604F0D6F8002827D1BF2001063846C7
:104C300004F036FD0546780850490F1A28463946D3
:104C400004F02EFD394604F02BFDFF218E05314680
:104C500004F062FC394604F023FD07462846394635
:104C600004F01EFD394604F01BFD314604F054FCEF
:104C70000146384604F014FD064600253046294614
:104C800004F0A7F8002877D13046049904F008FD15
:104C900007463046214604F003FD03950546384695
:104CA000294604F041F904460120C007049046401B
:104CB0000598314604F0F4FC06462846294604F0DF
:104CC000EFFC05463846394604F0EAFC294604F074
:104CD00023FC04F0F5FB0146304604F025F90646B6
:104CE0003F2005062046294604F0DAFC074604F07A
:104CF00069FA0590384604F021FB074630462946FC
:104D000004F0CEFC054604F05DFA069C06463846E3
:104D1000314604F0C5FC0190284604F00FFB0290D8
:104D200001986063059D2846314604F0B9FC03995B
:104D30006162A162E162206304984740029E3046AE
:104D4000394604F0ADFCE0632846314604F0A8FC87
:104D5000A0632046FFF7B9FEA06D04F059F804994E
:104D600048406066E06D216E04F0DEF8A066216CBC
:104D7000E06C04F0D9F8E06607B0F0BDDF59375FAA
:104D800010B584B000240394089C0294079C0194FD
:104D9000069C009403F01AF904B010BD10B582B05F
:104DA0000024009402F0E8FF02B010BD80B5FEF7C9
:104DB000A7FD80BDF0B583B000272B4B32210762E1
:104DC0004762E12212030260021D8AC20761476145
:104DD00087610190C7617F208502009502973E465A
:104DE0003C4606E0AC68012702964035761C102E42
:104DF0000AD0284603F0DCFB0028F6D0002FF1D0C3
:104E0000A868A042EED2F0E7002F10D002988001EF
:104E100000994618B18803290CD10C360198014637
:104E20001CCE1CC11CCE1CC13CCE3CC116E00020D7
:104E300003B0F0BDF1680198016031694160002163
:104E400041732022B25C0273F269C1818260243610
:104E5000014610311CCE1CC11CCE1CC102F08CFDC1
:104E6000012003B0F0BDC04600002042F0B5ADB057
:104E700015AD29461CC81CC11CC81CC15CC85CC13E
:104E8000284602F079FD0021E9817F208602039601
:104E900004910F460C460D4606E0B56801240497C0
:104EA00040367F1C102F0AD0304603F081FB0028CB
:104EB000F6D0002CF1D0B068A842EED2F0E726463A
:104EC000002C00D190E0049CA001039D4019806853
:104ED000401C0290002E00D0661C0120400204906D
:104EE000474F0F2E0FD8B00128430168491C0AD143
:104EF000001D002211460F2A03D04A1C08C85B1C63
:104F0000F8D00E2915D838462946049AFEF79EFD9A
:104F1000EFF3108072B6402238462946FEF742FD74
:104F2000064662B63846FEF787FD0020032E064689
:104F300063D10196029821903248209032481F9008
:104F40001FA801460C3115AA68CA68C168CA68C1A1
:104F5000E8CAE8C10021CF4334222C4B02E0401CB8
:104F6000521E0DD005786F400E4604E02F46751C8A
:104F7000072E2E46F3D27D08FF07F7D05D40F5E7F8
:104F8000F8432C9005AE4021FF223046FBF7CCFAC7
:104F90001FA831462CC82CC1ACC8ACC12CC82CC130
:104FA000ACC8ACC116480446039F3946049D2A4646
:104FB000FEF74CFDEFF3108072B600950198850165
:104FC0003D4310232746204629463246FEF7F4FC8F
:104FD000044662B63846FEF72FFD032C0CD1284656
:104FE00003F0E6FA064608E001200290039D049CC7
:104FF000002E00D070E770E7002630462DB0F0BDDF
:1050000000D00C4003003800474643302083B8ED01
:1050100001460120094A914207DCE12253029942EC
:1050200002D09202914207D17047E122D302994205
:10503000FAD012039142F7D000207047FF07070013
:10504000EFF3108072B60448002101604160816076
:10505000C16062B67047C046C4052020EFF31080DF
:1050600072B662B6704770B504463830FFF7A2FEDC
:105070004420205C6071E56B002D00D1322568086A
:105080007D21C90046183046294603F069FCB54227
:1050900000D90120A06170BD02480168491C01606F
:1050A0007047C046E807202006480121017070477C
:1050B00004480178002903D00021017001207047C5
:1050C000002070470007202070B50446C56B002DF6
:1050D00000D1322568087D21C9004618304629468E
:1050E00003F03EFCB54200D90120A06170BD30BF85
:1050F0007047000070B5284A002010605060274CAF
:105100008720A0600120030525490B608423A3614B
:1051100005060D6063624506224B1D6082252560F1
:10512000214D6E1C666083241464D463AE1C9663A8
:10513000146694665666D5658124D46614675567EF
:10514000546355651A46403A0324E40314601C6016
:10515000164A136804241C4314604204144B1C6A4E
:1051600014431C621C6814431C600A46403A4023E6
:1051700013600B6001070F4A13680B43136011693A
:1051800001431161052080030B490A6A02430A6248
:105190000A6802430A6070BD28804240B8804240DD
:1051A000D0320A40D0120A4081000400A0130A4005
:1051B00028100A4090330A4028300A4070B582B067
:1051C000154C16492046FEF7CBFE15492046FEF742
:1051D000C5FD14480168384A0A404921C9015118DF
:1051E00001600125009500262046314632463346AF
:1051F000FEF7A2FE204631462A46FEF78FFE7D20AE
:10520000C10020462A46FEF7A3FE0748856002211A
:10521000016002B070BDC04600008740CED90000DA
:10522000D4D900000418874000118740F0B581B040
:105230001D4C1E492046FEF793FE1D492046FEF7F1
:105240004BFD1C4801681C4A0A404921C9015118FC
:10525000016001250095002620463146324633463E
:10526000FEF76AFE204631462A46FEF757FE1349EE
:1052700020462A46FEF76CFE03270097204631465B
:1052800032463346FEF758FE204631463A46FEF790
:1052900045FE204609493A46FEF75AFE0848856011
:1052A0000A21016001B0F0BD00008640DCD9000099
:1052B000E0D90000041886407F00FFFFE9030000EA
:1052C0000011864010B50D4C0D492046FEF750FCEC
:1052D0000C492046FEF71EFC0B4841681D4A0A4057
:1052E000911C4160816812220A432D218A43826009
:1052F000016801220A43026010BDC046008046409A
:10530000E8D90000EAD900000491464010B50D4CE0
:105310000D492046FEF72CFC0C492046FEF7FAFB0F
:105320000B4841680B4A0A40911C41608168122277
:105330000A432D218A438260016801220A430260E8
:1053400010BDC04600A04640F4D90000F6D90000C8
:1053500004B1464000FCFFFF034804490A680240CC
:105360008242FBD17047C0460003200004020B407C
:10537000F0B581B01E480021009101600F2738026E
:105380001C4E316881430125280209183160032130
:10539000CA43331F1C6814401C607268AA437260C1
:1053A000726882437260080314212A46FEF758FC93
:1053B0001148FEF7F3FB316810200143202291438E
:1053C00031603903726B8A430921090351187163F3
:1053D000290332680A433260B16B0143B16368024A
:1053E000716B014371630098FEF762FC01B0F0BD80
:1053F00008030B4004010B4000DA0000084809498B
:105400004160FF210906084A13688B43032189077D
:105410005918116000218160072101607047C04662
:1054200010E000E07F38010020ED00E010B5084CEE
:1054300008492046FEF794FD07492046FEF7F8FC90
:10544000064801680122114301600548026010BD51
:105450000020864028DA00002CDA00002830864040
:105460000831864010B5084C08492046FEF778FD03
:1054700007492046FEF7DCFC06480168012211437B
:1054800001600548026010BD0080864040DA0000DF
:1054900044DA0000289086400891864010B5084CF8
:1054A00008492046FEF75CFD07492046FEF7C0FC90
:1054B000064801680122114301600548026010BDE1
:1054C00000A0864058DA00005CDA000028B0864070
:1054D00008B1864010B5084C08492046FEF740FD4B
:1054E00007492046FEF7A4FC064801680122114343
:1054F00001600548026010BD0000094070DA00003C
:1055000074DA0000281009400811094010B5154C44
:1055100015492046FEF798FD14492046FEF770FD18
:105520000320C103124802688A4302600169114ADC
:105530000A40911C016141692E220A4311218A43CC
:105540004261416801221140436893435918416008
:105550009102094B1C680C431C60016811430160F7
:1055600010BDC0460020104088DA00008ADA000032
:10557000003110400000FFFF2830104080B500F0DF
:1055800037F8FFF7B7FDFFF7F3FEFFF7E5FEFFF78C
:105590004DFEFFF713FEFFF749FFFFF77FFFFFF711
:1055A00099FFFFF75FFFFFF7B1FFFFF7AFFEFFF7D0
:1055B00089FEFFF723FFB820074900220A54074954
:1055C0000A54742006490A5406490A5424200649FC
:1055D0000A5406490A5480BDEC07202044062020C6
:1055E00020092020A8082020C0072020980720207C
:1055F000F0B581B01648174A426017484260174814
:1056000042601748426017484260174E7260174F59
:105610007A60174C6260174B5A6017494A60174806
:105620004260174A0A4D2A600B4D2A600B4D2A60D2
:105630000B4D2A600B4D2A6032603A6022601A607E
:105640000A6002601020FEF787F901B0F0BDC04685
:1056500000080A40030000B100280A400008864004
:10566000000887400028864000A8864000080940BE
:10567000008886400028104000A846400088464028
:105680000100002680B5FFF707FD80BD80B5054805
:105690000168C9B2012904D101218162024800F0E8
:1056A0003DFA80BD209086400407202080B5054843
:1056B0000168C9B2012903D101218162FFF7F4FC1D
:1056C00080BDC04620100940F0B58FB04B2084004B
:1056D000002509952F460B9508950A950595D34801
:1056E000FDF704F9D248FDF7F5FF0CA8FEF71AFE06
:1056F0000E9807900D9806900C9804900CA8FEF751
:1057000009FE0E9803903D460D9F0C9EC448FEF77F
:1057100023F90A98314603F0FFFE0A9009983946AA
:1057200003F0FAFE09902846039903F0F5FE0746B8
:105730000B98049903F0F0FE0B900898069903F07B
:10574000EBFE08900598079903F0E6FE0546641EF7
:10575000C4D11C4E08983146FBF774FC08902846CB
:105760003146FBF76FFC07900A983146FBF76AFC5D
:10577000054609983146FBF765FC04463846314634
:10578000FBF760FC07460B983146FBF75BFC0346D2
:105790000898009007980190284621463A46FEF75F
:1057A00041FE7D20C500084C9D4E2046FEF7B6FE0A
:1057B0003046FEF7D1F86D1EF7D1FFF721F90FB093
:1057C000F0BDC046000096436F12833A411E8841E7
:1057D000EFF3108172B6E8490870E84800210170C3
:1057E000E9480180E948017062B6704780B501461A
:1057F00002780120002A00D080BD4A78002AFBD11F
:105800008A781E2AF8D1CA780F2AF5D10A79FD23A1
:105810001340242BF0D1084601F066FB411E88415D
:1058200080BD0000F0B5ADB00446EFF3108072B655
:105830006C4D00272F706C4E37706C4807806C4899
:10584000077062B6617948424841FCF73FFD20701D
:10585000FDF70CF9A070FDF70EF9E070FDF7E4FA22
:105860006070FDF7E3FF2071214644310C916179AE
:10587000002906D020464830FEF7F4FB0120607175
:105880003AE02178002934D16178002931D1A1781A
:105890001E292ED1E1780F292BD1FD210840242883
:1058A00027D15AA001F0DAFA01200590810720469D
:1058B0000A9101F08FFB002842D066A001F0CEFAD9
:1058C00068A001F0CBFA0094204648300021684AD5
:1058D000684BFEF7D9FB002800D17CE00599A17147
:1058E00061710C98017020463830FFF7BFFA62A052
:1058F00072E040A001F0B2FA0C984078411E484294
:105900004841FEF789FDFEF71BFDFFF7DDFE20464F
:1059100001F0A0FB781C092F0746F8D35E48016808
:10592000012211430160EFF3108072B62A7000204B
:1059300030702E4908802E49087062B62DB0F0BD37
:105940002046143007902046103006900020344E38
:105950000990054618E007980068FBF749FB0B9A89
:105960000092089A0192029003910DA80B90802159
:1059700030A2FAF759FC0B9801F070FA20460A9908
:1059800001F028FB002898D10B95099D204601F0D5
:1059900095FA3046FDF7E0FF681C092D0546F5D362
:1059A0000B9D0A351F4868430321C8411E498842A0
:1059B000E4D2607A002801D0069801E01B481C3030
:1059C0000068FBF715FB0B900891A07A0028C2D164
:1059D00017482430C0E72BA001F040FA014D024ED9
:1059E0008AE7C046C1052020C00520201A0B2020D0
:1059F000C20520204552524F523A494D555F494EFB
:105A000049545F4641494C45440A000043414C5FBC
:105A1000574149543A4155544F5F54454D500A003F
:105A200080380100D578E92638894100000120201E
:105A30008001202043414C5F574149543A5430384B
:105A4000383D252E33662C543237303D252E3366B3
:105A50000A00000043414C5F574149543A444F4EBD
:105A6000450A000043414C3A53544152540A000045
:105A700030750000BD6E000043414C3A444F4E4526
:105A80000A0000004552524F523A43414C5F464192
:105A9000494C45440A0000000498864070B5EFF375
:105AA000108172B639490A7800230B7062B6002A59
:105AB00033D0C169BE4A1268511A2BD4017801242F
:105AC0000029254618D141780029254614D181782E
:105AD0001E29254610D1C1780F2925460CD1017900
